:100000000C9490080C94AD080C94AD080C94AD08B9
:100010000C94AD080C94AD080C94AD080C94AD088C
:100020000C94AD080C94AD080C94AD080C94AD087C
:100030000C94AD080C94AD080C94AD080C944A1CBB
:100040000C94AD080C94AD080C94AD080C94AD085C
:100050000C94E81C0C94AD080C94AD080C94AD08FD
:100060000C94AD080C94AD080C94AD080C94AD083C
:10007000090910927C7CFF7C7C921000000000013A
:10008000000000000909007CFEEE83010100000071
:10009000000000010101000011780A192A100B0E5E
:1000A0000508050B0D090D0C0D0C0D0D0D0D40F087
:1000B000E0E0DCFCDCE0E0F0400002060F070107B6
:1000C0000F06020000000000000000000000000019
:1000D000000000000000000000000000000000C060
:1000E000C0C0C000000000003838383838FFFFFFBB
:1000F000FF383838383800000000000707070700CD
:1001000000000000000000000000000000000000EF
:1001100000000000000000000000000040FFFF7F22
:100120000F000000000000000000000000003C3C48
:100130003C3C3C3C3C3C0000000000000000000057
:10014000000000000000000000000000808080002F
:10015000070F0F0F070000000000000000000080E4
:10016000F0FEFF7F0F000080F0FEFFFF1F03000086
:10017000E0FCFFFF1F030000000000808080000003
:1001800000000000000080E0F0F87C1C1C1C7CF8E3
:10019000F8E0807FFFFFFF8000000080FFFFFF7F0F
:1001A000000107070F0E0E0E0F07070100000000E9
:1001B00000000000000000000000C0E0E0F078F85F
:1001C000FCFCFC0001000000FFFFFFFF000000003E
:1001D000000F0F0F0F00000000000000000010389B
:1001E000383C1C1C1C3CFCF8F8E00000C0E0F0F0BF
:1001F000F87C3E1F0F0701000F0F0F0F0F0E0E0EA2
:100200000E0E0E0E0E0000000000000000000000A8
:10021000000018383C1C1C1C3CFCF8F8E0000000F6
:10022000000E0E0E0F1FFFFBF1E0060F0E0E0E0E5E
:100230000E0F07070301000000000000000000008F
:10024000000000000080E0F0F8FCFCFCFC0000F086
:10025000FCFEFFE7E1E0FFFFFFFFE0E00000000041
:100260000000000F0F0F0F00000000000000000052
:100270000000000000000080FCFCFC1C1C1C1C1C7E
:100280001C000007070707070F1FFEFEFCF0060F04
:100290000E0E0E0E0E0F07070301000000000000F7
:1002A0000000000000000080E0F0F07838381C1CEE
:1002B0001C1C00FEFFFFFF870707070FFFFEFCF86F
:1002C000000307070F0E0E0E0F07070300000000C4
:1002D000000000000000000000001C1C1C1C1C1C76
:1002E0001CDCFCFCFC7C1C00000000E0FCFFFF1F91
:1002F000070100000000000E0F0F0F0100000000BA
:100300000000000000000000000000000000E0F01D
:10031000F8F83C1C1C1C3CFCF8F0E0F1FBFFFF1F54
:100320000E0E1E3FFFFFFBF10103070F0F0E0E0E17
:100330000F0F070301000000000000000000000094
:100340000000E0F0F8F83C1C1C1C3CF8F8F0C0037E
:100350000F0F1F1E1C1C9CFCFFFFFF3F00000E0E1A
:100360000E0F070707030100000000000000000057
:1003700000000000000020F00A0E206000020509C5
:10038000060C090204040506030403060605060616
:100390000706060606060304060706060C090707F5
:1003A0000806070808020609070B080907090806D6
:1003B0000808090D090807040604070702060605D0
:1003C0000606050606020307030A060706060505D4
:1003D0000506070B08070504020407057E7E1C1CA2
:1003E0000F0F000F0F00000000009898F8FE9EF815
:1003F000FE9E98041C1C041C1C040404387C6FCF53
:10040000CC8C181878781C0C1C3E2222BEFCF8DC20
:100410004E42C0800000101C0C040C1C10101C0C60
:10042000C0FC7E66FE9CC0C0000C1C18181C0C1C76
:1004300018100F0F0000F8FE0F021C7CF040020F96
:10044000FEF840F07C1C2C781E782C000000000088
:10045000C0C0F0F0C0C000000C0C00000000004064
:100460007838C0C0C0C0000000000000001C1C1C88
:100470000000E0FC1F03C0F83C040000F8FC060686
:10048000FCF8040C18180C04081C0CFEFE000000FC
:100490001C1C048EC6E67E1C1C1C1C1818180406A6
:1004A0006666FEDC181818181C0CC0F0B88CFEFE2E
:1004B00080040404041C1C04607E7E66E6C61818D2
:1004C00018181C0CF0FC7C66E6C0041C18181C0CE8
:1004D0000606C6F61E06001C1C000000DCFE666652
:1004E000FEDC0C1C18181C0C3C7E6666FEF800181E
:1004F000180C0C003838381C1C1C00383838407870
:100500003800E0E0B0B0B01800000404040CB0B053
:10051000B0B0B0B0B00404040404040418B0B0B027
:10052000E0E00C0404040000030363731F0E001CCE
:100530001C1C0000E0F81CECF636F6F60E0CF8F089
:10054000041C38346C6C6C6C6C0C040000C0F8BE7D
:1005500086BEF8C000181C0C0404040C1C18FEFE17
:10056000666666FEDC1C1C1818181C0CF0FC0E06D7
:10057000060606040C1C18181818FEFE0606060CC3
:10058000FCF81C1C1818180C0C00FEFE66666606AB
:100590001C1C18181818FEFE66666666661C1C0091
:1005A00000000000F0FC0C060606C6C6000C1C1875
:1005B00018181C1CFEFE60606060FEFE1C1C000023
:1005C00000001C1CFEFE1C1C00000000FEFE181893
:1005D00018181C0CFEFE30F0D88C0602001C1C0003
:1005E00000040C1C1810FEFE00000000001C1C186B
:1005F00018181818E0FE1E78E080E0781EFEE01C57
:100600001C00000C0C0400001C1CFEFE1C38E0C08A
:10061000FEFE1C1C0000000C1C1CF0FC0E06060656
:100620000EFCF0000C1C1818181C0C04FEFEC6C6AC
:10063000C67C3C1C1C0000000000F0FC0E060606F8
:100640000EFCF0000C1C183878DCCC04FEFEC6C68C
:10065000C67C38001C1C00000C1C18101C3E666672
:10066000C6C6181818181C0C060606FEFE06060656
:100670000000001C1C000000FEFE00000000FEFE4A
:10068000040C1C18181C0C04063EFCE000E0FC3EA8
:10069000060000041C1C1C0400000EFEF800E0FC18
:1006A0001CFCE000F8FE0E00001C1C1C0000001CDE
:1006B0001C1C000002069EF8F0F89E060210181C92
:1006C0000400041C1810020E3CF0F03C0E02000066
:1006D000001C1C0000000686C6F63E1E06181C1CE8
:1006E00018181818FFFF0303FCFCC0C0031FFCE030
:1006F00000000000043CF8C00303FFFFC0C0FCFC86
:1007000020701C061C70200000000000000000008B
:100710000000000000C0C0C0C0C0C0C00306000090
:1007200000B0B0B0F0E00C1C18181C1CFFFF3030FB
:10073000F0E01C1C18181C0CE0E03030300C1C18C9
:100740001818E0F03030FFFF0C1C18181C1CC0F00B
:10075000B0B0F0E00C1C18181818FEFF3333331C2F
:100760001C000000C0F03030F0F08CDCD8D8FC7CED
:10077000FFFF3030F0E01C1C00001C1CF3F31C1CBD
:1007800000F3F3C0FC7CFFFF80E07030101C1C0005
:10079000041C1810FFFF000C1C18F0F03030F0F0B3
:1007A0003030F0E01C1C00001C1C00001C1CF0F091
:1007B0003030F0E01C1C00001C1CC0E0303030E089
:1007C000C0040C1818180C04F0F03030F0E0FCFCF9
:1007D00018181C0CC0F03030F0F00C1C1818FCFC81
:1007E000F0F03030301C1C000000E0F0B0B0901889
:1007F00018181C0CFCFC3030300C1C181818F0F0C9
:100800000000F0F00C1C18181C1C30F0C000C0F0E8
:100810003000041C181C040030F0C000E070E00040
:10082000C0F03000001C180C000C181C0000103028
:1008300070C0C070301010181C0C041C181030F060
:10084000C000C0F030C0CCFC783C040030B0F0F008
:1008500030181C1C1818C0FEFF03007CFCC0FFFFF2
:10086000FCFC03FFFEC0C0FC7C00C0E060E0C0E018
:100870006000000000000000FF010101FF1C1010DB
:10088000101C0D170A09206000010305040705016B
:100890000303030502020103040204040404040325
:1008A0000404010204040403080505050504040406
:1008B00005010305040705060406050405050509E9
:1008C00005050402030205040204040304040204EF
:1008D00004010204020704040404020303040305E0
:1008E00004050303010304035E000300030000008A
:1008F00028782E782E0000000000444AD322000001
:100900000000044A241824522000000000000000C7
:100910003C526C6010000000000003007C8201006B
:10092000008001827C8000000C060C00000010108A
:100930007C1010000000000080400000101000003B
:10094000400080F01E8000003C42423C000000005D
:10095000047E00004462524C00000000424A4A34C7
:100960000000000018147E1000000000404E4A32C3
:1009700000000000384C4A320000000002720E00F5
:100980000000344A4A34000000004C52321C00007F
:1009900000004400804400001028284400000000AB
:1009A0002828282800000000442828100000000003
:1009B00002520C0000007CC23945453D423C00001B
:1009C000808080800000603C223C600000000000CD
:1009D0007E4A4A4A3400000000003C424242420043
:1009E000000000007E4242423C00000000007E4ABF
:1009F0004A42000000007E0A0A02000000003C4259
:100A00004272000000007E0808087E00000000001E
:100A10007E0040403E0000007E081422400000009E
:100A200000007E404040000000007E0418201804B2
:100A30007E000000000000007E0408307E00000000
:100A400000003C424242423C0000000000007E1296
:100A5000120C000000003C4242C2423C0000000078
:100A600080007E1212324C0000000000444A5222E4
:100A70000000000002027E020200000000003E4072
:100A800040403E00000000000638403806000000EC
:100A900000000638403804384038060000000000E6
:100AA0000000000042241824420000000000020C54
:100AB000700C02000000000062524A460000000074
:100AC000FF018080031C6000000001FF808008049B
:100AD0000204080000000000000000008080808008
:100AE0000102000024545478000000007F44443880
:100AF000000000003844440000003844447F0000F7
:100B0000000038545458000000007F0500003844AD
:100B100044FC808080007F040478000000007D0099
:100B200000FD80007F102844000000003F400000CE
:100B30007C040478040478000000000000007C04B9
:100B40000478000000003844443800000000FC44F1
:100B5000443880000000384444FC000000807C04DD
:100B600000005854340000003E44440000003C4063
:100B7000407C000000000C701C0000001C601C6029
:100B80001C00000000004438284400000000043825
:100B9000C03804808000000064544C00000010EE57
:100BA00001000080FF8001EE108000001008100896
:100BB000000000007F417F000000070970F88C07EB
:100BC0009EF86000000101010000180AFF01FD9578
:100BD000956901C1794579C10105FD040105FD054E
:100BE00001BD01FF0302020202020202020202022E
:100BF0000202020202020202020202038040FF011C
:100C00000101010101010101010101010181818154
:100C100081810101010101010101010101010101C4
:100C200001010101F9F9F9F9393939390101018174
:100C300081818101010101010101818181818101A4
:100C40000101010101010101010101010101010194
:100C50000101010181818181810101010101018184
:100C600081818101010101010101018181818101F4
:100C7000010139393939F9F9F9F9010101FFFF00A9
:100C800000000000000000000000000000FF000065
:100C900024FF000000000000000000000000000031
:100CA00000000000FFFFFFFF00000000000000FF49
:100CB000FFFFFF80C0E0F0F83E1F1F0F0703010099
:100CC000000000000000000000000000000080C0E4
:100CD000F0F8FC7E1FFFFFFFFF000000000000FF98
:100CE000FFFFFF0000000000000000FFFFFFFF000B
:100CF000000000000000FFFFFFFF000000FFFF00FA
:100D0000000000000000000000000000E01F0808D4
:100D1000091FE000000000000000000000000000CB
:100D200000000000FFFFFFFF00000000000000FFC8
:100D3000FFFFFF0F1F3F7FFCF8F0E0C080000000C6
:100D4000001C1C1C1C1C1C1C1C0000F0FCFEFFFFDB
:100D5000E7E1E0E0E0FFFFFFFFE0E000000000FF70
:100D6000FFFFFFC0000000000000C0FFFFFFFF000A
:100D7000000000000000FFFFFFFF000000FFFF0079
:100D800000000000C0C0C0C000000000000102025E
:100D90000201000000808000000000000000000050
:100DA00000000000FFFFFFFFC0C0C0C00000001F28
:100DB0001F1F1F000000000001030F1F1F1F1C1832
:100DC0000000000000000000000000000000000023
:100DD00000000000001F1F1F1F0000000000000097
:100DE00003070F1F1F1E1E1E1E1F1F0F07030000DD
:100DF0000000C0C0C0C0FFFFFFFF000000FFFF00F9
:100E000000000000FFFF0000000006060606FEFED0
:100E10000606060600FFFF3030303070E0C00000EC
:100E200080E06030313171E1C10101F1F0303030EA
:100E30003000F0F030303070E0E030303070E0C042
:100E4000000080E07030303070E080000000000072
:100E50000000000000000000000000000000000092
:100E60000000000000000000000000000000000082
:100E700000000101010101010101000000FFFF006C
:100E800000000000FFFF80800000000000003F3FE6
:100E900000000000003F3F00000000003F3F000056
:100EA0000F1F3B33333333330300003F3F00000059
:100EB00000003F3F000000003F3F000000003F3FB8
:100EC0000000071F38303030381F070000000000D6
:100ED00000000000E0E00000000000000000000052
:100EE000000000000000000000000000000C0CFCEE
:100EF000FC000000000000000000000000FFFF00F8
:100F000000000000010101010000000000000000DD
:100F100000000000000000000000000000000000D1
:100F200000000000000000FFFF03030307FEFE03B4
:100F3000030307FEFC0000F8FEB6333333373E3CB4
:100F40000000E0F31B1B1B1BFEFC00001E1F3333C5
:100F5000E3E00000FFFF030303030000FFFF0303C0
:100F600003030078FE8703030387FE78000000FF79
:100F7000FF000000000000000000000000FFFF80F4
:100F80008080808080808080808080808080808061
:100F90008080808080808080808080808080808051
:100FA0008080808080808083838080808083838035
:100FB0008080808383808080818383838383838018
:100FC0008080808183838383838380808383838302
:100FD00083818080818383838383808083838080F7
:100FE0008080808081838383838381808098989FA1
:100FF0009F808080808080808080808080FF090941
:1010000010927C7CFF7C7C921000000000010000AC
:1010100000000909007CFEEE8301010000000000D1
:1010200000010101000000407A10F35A00A0724E46
:1010300018090010A5D4E80000E87648170000E47D
:101040000B54020000CA9A3B000000E1F5050000C5
:1010500080969800000040420F000000A08601002A
:101060000000102700000000E803000000006400FA
:10107000000000000A000000000001000000000065
:101080002C76D888DC674F0823DFC1DFAE59E1B189
:10109000B796E5E3E453C63AE651997696E8E6C298
:1010A0008426EB898C9B62ED407C6FFCEFBC9C9F9F
:1010B00040F2BAA56FA5F490055A2AF75C936B6CC1
:1010C000F9676DC11BFCE0E40D47FEF520E6B500B5
:1010D000D0ED902E0300943577050080841E080023
:1010E00000204E0A000000C80C333333330F986ED3
:1010F00012831141EF8D2114893BE65516CFFEE690
:10110000DB18D1844B381BF77C1D901DA4BBE42455
:10111000203284725E228100C9F124ECA1E53D27D2
:1011200011241FBECFEFD0E1DEBFCDBF11E0A0E0A4
:10113000B1E0E6E5F9E402C005900D92A037B107F1
:10114000D9F712E0A0E7B1E001C01D92AC30B107C1
:10115000E1F70E94B4190C94A9240C940000EAE76A
:10116000F0E0808186608083ACE7B0E08C918C9366
:101170008C9180628C938081806880838081806480
:1011800080830895AAE7B0E09C919C93ECE7F0E09F
:1011900010829081906290839081892B80838C91C2
:1011A000806C8C93EAE7F0E0808184FFFDCFEAE772
:1011B000F0E0808180618083809179000895AAE7C2
:1011C000B0E09C919C93ECE7F0E0108290819F7DD1
:1011D00090839081892B80838C91806C8C93EAE73B
:1011E000F0E0808184FFFDCFEAE7F0E0808180615C
:1011F00080832091780030917900822F932F089579
:10120000FC01849108959093720180937101709311
:101210007401609373014093780108950F931F93B5
:10122000182F8091710190917201E0917301F091FA
:10123000740104960995082F8091710190917201B3
:10124000E0917301F0917401059609951017D8F09B
:10125000212F30E0402F50E0BA01680F711D261792
:1012600037079CF4101B812F90E0069620917101A6
:1012700030917201E0917301F0917401820F931F1C
:1012800009958F5F03C080E001C080E01F910F913E
:101290000895EF92FF920F931F93CF93DF93FC017A
:1012A0008081882379F08F010F5F1F4FC0E0D0E06D
:1012B0000E940E09C80FD11DF80181918F0188236A
:1012C000B9F702C0C0E0D0E07E018C2F9F2DDF91E6
:1012D000CF911F910F91FF90EF9008950F931F935F
:1012E000CF93DF93EC01FE012491222379F000E0FB
:1012F00010E02196FC0184910E940E09080F111D37
:10130000CE01FE0124912223A1F702C000E010E0EB
:10131000802F912FDF91CF911F910F910895DF932F
:10132000CF930F92CDB7DEB7662319F45A985B9A24
:1013300004C0613011F45B985A9A5C985D989FEFF5
:1013400094B985B95E9A000000000000000000001A
:10135000000000000000000000000000000000008D
:101360005E98198289818E3130F489818F5F8983FB
:1013700089818E31D0F315B80F90CF91DF91089508
:101380001F9388230CF480E0603408F060E08093C1
:101390007501609376016695669566956093770111
:1013A000803418F0805461E001C060E080640E94E5
:1013B0008F0910917701186B812F60E00E948F09CF
:1013C000812F61E00E948F091F9108951F93DF9381
:1013D000CF930F92CDB7DEB715B814B890917501C1
:1013E000903418F45A985B9A02C05B985A9A90917C
:1013F0007501903431F4882321F080E461E00E948B
:101400008F095C9A5D9A5E9A00000000000013B19B
:101410005E9819828981883030F489818F5F898351
:1014200089818830D0F38FEF84B980917501609104
:1014300076010E94C0098091700181111095812F61
:101440000F90CF91DF911F91089581E00E94E609EE
:1014500080E00E94E6090895CF92DF92EF92FF921A
:101460000F931F93DF93CF930F92CDB7DEB7082F63
:101470008091750188230CF4AAC0803418F45A981E
:101480005B9A02C05B985A9A80917501803419F476
:1014900061E00E948F095C9A5D988FEF84B980911A
:1014A00076010F2EF7E0FF2EF02DF82209F46BC025
:1014B000EBB00E94250AEBB89FEF94B910E0CF2C57
:1014C000DD24980102C0220F331FFA94E2F7822B29
:1014D000909170019111809585B95E9A000000008D
:1014E00000000000000000000000000000000000FC
:1014F0000000000000005E98198289818E3130F46E
:1015000089818F5F898389818E31D0F360917601E3
:10151000685F809175010E94C0090E94250AEBB89E
:101520009FEF94B928E030E02C193D0902C01595D1
:1015300007952A95E2F7082B80917001811100959B
:1015400005B95E9A000000000000000000000000E5
:1015500000000000000000000000000000005E9895
:10156000198289818E3130F489818F5F89838981E5
:101570008E31D0F3809175016091760168508F5F54
:101580000E94C00923C0809170018111009505B9A6
:101590005E9A000000000000000000000000000053
:1015A0000000000000000000000000005E981982AA
:1015B00089818E3130F489818F5F898389818E3171
:1015C000D0F3809175018F5F8093750115B80F90EE
:1015D000CF91DF911F910F91FF90EF90DF90CF900F
:1015E00008952F923F924F925F926F927F928F92C7
:1015F0009F92AF92BF92CF92DF92EF92FF920F93A2
:101600001F93DF93CF9300D000D000D0CDB7DEB7CB
:10161000E82E8091710190917201E0917301F09137
:10162000740103960995C82E282F2770298380916D
:10163000710190917201E0917301F091740104962F
:101640000995182F8091710190917201E0917301B9
:10165000F091740105960995A82E309175013B8390
:10166000809176018C83E11608F4DFC02E2D30E0E6
:10167000812F90E08A0D911D281739070CF0D8C0F2
:10168000E11AE1F00F2EF6E08F2E9924F02D00E004
:1016900010E08091710190917201E0917301F091DD
:1016A0007401880D991D0995080F111D0894811C5E
:1016B000911C882D86508E1560F302C000E010E06A
:1016C0008C2D90E00796959587959595879595959E
:1016D00087958A83282F30E0029FC001039F900DD9
:1016E000129F900D11242A2C3324E6E0F0E02E0EF8
:1016F0003F1E280E391E8E2D90E006962091710116
:1017000030917201E0917301F0917401820F931F87
:101710000995082FFA81FF2309F47EC0482E4194D1
:10172000552466247724689461F8CF2EDD240023A5
:1017300009F449C04101840C911C9101250D311D12
:101740003E832D83740153010894A108B108809150
:10175000710190917201E0917301F09174012D81FA
:101760003E81820F931F0995182FAC14BD0499F484
:101770008091710190917201E0917301F091740177
:101780008E0D9F1D099590E0098002C09595879563
:101790000A94E2F7182B809178018F3F21F4812F72
:1017A0000E942C0A04C0812F80950E942C0A8D81F2
:1017B0009E8101969E838D830894E11CF11C8E2DE1
:1017C0008819801720F2809178018F3F21F480E002
:1017D0000E942C0A03C08FEF0E942C0A6C147D0417
:1017E00044F4E6E7F1E06081685F8B810E94C00904
:1017F00008C0E6E7F1E06081F9816F0F8B810E94FC
:10180000C0090894611C711C500E400E862D825038
:101810002A81821708F48BCF8B818F5F800F6C81B8
:101820000E94C00920E030E005C021E030E002C0A5
:1018300021E030E0822F932F26960FB6F894DEBF7A
:101840000FBECDBFCF91DF911F910F91FF90EF9011
:10185000DF90CF90BF90AF909F908F907F906F90D0
:101860005F904F903F902F900895EF92FF920F93CB
:101870001F93CF93DF93EC0100917501FE0124913A
:10188000222331F10F2EF6E7EF2EF1E0FF2EF02D9F
:10189000FC0124912A3091F4F701108180917101AB
:1018A00090917201E0917301F09174010396099592
:1018B000682F610F802F0E94C00904C0FC01849131
:1018C0000E94F10A2196CE01FE012491222301F704
:1018D000DF91CF911F910F91FF90EF900895EF92BC
:1018E000FF920F931F93CF93DF93EC01009175014B
:1018F0008881882301F121960F2EF6E7EF2EF1E083
:10190000FF2EF02D8A3091F4F70110818091710142
:1019100090917201E0917301F09174010396099521
:10192000682F610F802F0E94C00902C00E94F10A37
:101930008991882339F7DF91CF911F910F91FF9003
:10194000EF9008950F931F93162F042F687F0E9426
:10195000C0090E94250A0F3F59F4177041E050E07A
:101960009A0102C0220F331F1A95E2F7822B0BC097
:10197000177021E030E0B90102C0660F771F1A9599
:10198000E2F7609586230E942C0A1F910F9108951B
:10199000AF92BF92CF92DF92EF92FF920F931F937D
:1019A000CF93DF93C82EE42EA22EA394462F477028
:1019B000062F041BCA2DD0E088E090E0841B91091B
:1019C000C817D9077CF488E090E08C1B9D0B2FEFA3
:1019D00030E0B90102C0759567958A95E2F7D62E79
:1019E0001A2D04C018E0141BDD24DA9401C0DD0CAC
:1019F0004A95EAF78C2D602F0E94C009FF24BD2C68
:101A0000B0940E94250A982F90959D218B21892BB7
:101A10000E942C0AF394EF14A0F710C0185F085F1F
:101A20008C2D602F0E94C009DF2C0E94250A809512
:101A30000E942C0AD394ED1410F0F7CFFF24812FCD
:101A400090E09C01285F3F4FC217D3073CF71A155F
:101A500010F5C81BD90B8FEF90E09C010C2E02C033
:101A6000220F331F0A94E2F7B9016095162F602FF9
:101A7000685F8C2D0E94C00900E0F12EF0940E9456
:101A8000250A982F909591238F21892B0E942C0A4B
:101A90000F5FE016A0F7DF91CF911F910F91FF909C
:101AA000EF90DF90CF90BF90AF9008951F93182FC5
:101AB00080917001811741F080E060E04FE72FE3F3
:101AC0000E94C80C109370011F9108959F92AF92CD
:101AD000BF92CF92DF92EF92FF920F931F93CF931B
:101AE000DF93B82ED42EE02E922E9394462F47707B
:101AF000062F041BC92DD0E088E090E0841B9109DB
:101B0000C817D9077CF488E090E08C1B9D0B2FEF61
:101B100030E0B90102C0759567958A95E2F7A62E67
:101B2000192D04C018E0141BAA24AA9401C0AA0C01
:101B30004A95EAF78B2D602F0E94C009FF24CA2C1A
:101B4000C0940E94250A7E2D7F3F11F48A2901C08E
:101B50008C210E942C0AF394DF1498F70EC0185FB2
:101B6000085F8B2D602F0E94C009CF2C8E2D0E9404
:101B70002C0AC394DC1410F0F9CFFF24812F90E0DD
:101B80009C01285F3F4FC217D3074CF7191518F572
:101B9000C81BD90B8FEF90E09C010C2E02C0220FC6
:101BA000331F0A94E2F7B9016095F62E602F685F43
:101BB0008B2D0E94C00910E00F2D00950E94250A70
:101BC0007E2D7F3F11F48F2901C080230E942C0AB3
:101BD0001F5FD11698F7DF91CF911F910F91FF9062
:101BE000EF90DF90CF90BF90AF909F9008952F928D
:101BF0003F924F925F926F927F928F929F92AF929D
:101C0000BF92CF92DF92EF92FF920F931F93DF93D9
:101C1000CF93CDB7DEB72B970FB6F894DEBF0FBECC
:101C2000CDBF8C836D83488729870B83C02EDD242D
:101C3000662477246C187D08660C771C83E090E09E
:101C4000680E791E302E9C81390E202E260EE42F30
:101C5000E90FEF83E01BE983822F860F8E83801BC1
:101C60008A83F82EBE2EA22C932C442455241B8646
:101C70001A861C2D022D0C19892D602F4E2D0E94C5
:101C8000A20C832C8C18882D6A2D4E2D0E94A20C3C
:101C90008B2D602F4E2D0E94A20C09810C0D802FE0
:101CA0006A2D4E2D0E94A20C9A81190F8B2D612F47
:101CB0004E2D0E94A20C802F6F2D4E2D0E94A20C43
:101CC000892D612F4E2D0E94A20C882D6F2D4E2D37
:101CD0000E94A20C77203CF4E6E0F0E06E0E7F1E3E
:101CE000640C751C11C08AE090E0680E791E8A852C
:101CF0009B858C199D09880F991F880F991F680E65
:101D0000791E0894C108D108EA85FB853196FB87C6
:101D1000EA879A94AA94B394F39484E090E0480EEE
:101D2000591ECE16DF060CF0A4CFFB80F194FF0CF9
:101D300018851F0D832D6D81412F20E00E2D0E94EF
:101D4000660D832D6E81412F20E00E94660D19855E
:101D50001F0D8C81622D40E0212F0E94660D8F8126
:101D6000622D40E0212F0E94660D2B960FB6F8944D
:101D7000DEBF0FBECDBFCF91DF911F910F91FF90BE
:101D8000EF90DF90CF90BF90AF909F908F907F901B
:101D90006F905F904F903F902F900895CF92DF9279
:101DA000EF92FF920F931F93F82EE62ED42EC22EA1
:101DB00020E00E94660D6C2D6E0D8F2D4D2D20E0C4
:101DC0000E94660D8F2D6E2D40E02C2D0E94660D19
:101DD0008D2D8F0D6E2D40E02C2D0E94660D1F91D4
:101DE0000F91FF90EF90DF90CF9008952F923F9248
:101DF0004F925F926F927F928F929F92AF92BF921B
:101E0000CF92DF92EF92FF920F931F93DF93CF93C6
:101E100000D000D0CDB7DEB7E82ED62EA42EB22E3D
:101E2000C02E841769F4261710F4D22EB62E2B2D4F
:101E30002D198E2D6D2D40E00C2D0E94660DF4C0E5
:101E4000621769F4481710F4E42EA82E4A2D4E1993
:101E50008E2D6D2D20E00C2D0E94660DE5C030E02A
:101E6000462F50E08A2D90E08E199109B901641B2C
:101E7000750B6817790734F4421B530B4817590741
:101E80000CF46BC0AE1430F48D2DDB2CB82E8E2DDF
:101E9000EA2CA82EAE188B2D90E09A8389832D2CE6
:101EA00033244C0182189308AA2DB0E0BC83AB8385
:101EB00028EC30E0829EC001839E900D929E900D92
:101EC0001124BD010E943D1F3B01ED2D10E00F2E9E
:101ED000F8EC4F2E5524F02D89819A81281A390A61
:101EE000212F30E0269DC001279D900D369D900D3D
:101EF0001124B2010E943D1FFD2CF60E282F392F10
:101F00002436310514F0F39405C09FEF2D393907BD
:101F10000CF4FA94412F4E0D842F6E2F2F2D0C2D83
:101F20000E94F60EAB81BC818A169B062CF0DB1456
:101F300018F4EF2DEF5F0DC0EB81FC812E163F06EC
:101F40002CF0BD1428F4EF2DE15003C0EF2D01C09B
:101F5000EF2D1F5FA11620F667C0BD1430F48D2D44
:101F6000DB2CB82E8E2DEA2CA82EBD18EA2DF0E021
:101F70002E2C33244F01821893088B2D90E09A83E6
:101F8000898328EC30E0829EC001839E900D929E52
:101F9000900D112469817A810E943D1F3B014E2DD5
:101FA00010E00F2EF8EC4F2E5524F02D2E1A3F0A7C
:101FB000212F30E0269DC001279D900D369D900D6C
:101FC0001124B2010E943D1FFE2CF60E282F392F3E
:101FD0002436310514F0F39405C09FEF2D393907ED
:101FE0000CF4FA94212F2D0D842F622F4F2D0C2DE0
:101FF0000E94F60EA981BA818A169B062CF0EA147B
:1020000018F44F2D4F5F0DC0E981FA812E163F065F
:102010002CF0AE1428F44F2D415003C04F2D01C0B9
:102020004F2D1F5FB11620F60F900F900F900F905D
:10203000CF91DF911F910F91FF90EF90DF90CF90A4
:10204000BF90AF909F908F907F906F905F904F90D8
:102050003F902F9008950F93109275011092760182
:1020600010927701809370018FEF8AB98FE360E05F
:102070000E948F098FE361E00E948F0980EC60E08D
:102080000E948F0980EC61E00E948F0980E060E08F
:102090004FE72FE300E00E94660D80E060E00E94C1
:1020A000C0090F9108951092B90080E38093B800A1
:1020B0000895813059F0813028F0823059F0833012
:1020C00091F40CC084EA8093BC000DC084E8809336
:1020D000BC0009C084EC8093BC0005C084E98093F7
:1020E000BC0080E00895ECEBF0E080818823ECF701
:1020F0008091B900887F08950F931F93CF93DF934A
:1021000012E3082F007F042B6770062BCBEBD0E087
:1021100002C01150A9F080E00E9459108833C9F321
:10212000883011F0803171F4088381E00E945910E9
:10213000803279F3883369F3883131F08FEF05C04D
:102140008FEF03C08FEF01C080E0DF91CF911F912F
:102150000F91089583E00E94591008958093BB0069
:1021600081E00E945910883211F08FEF089580E0CD
:1021700008951F93CF93DF93EC01162F80E091E039
:102180000E94871F112301F18AE091E00E94871FBE
:1021900082E00E945910182F00D000D0EDB7FEB792
:1021A000319682E191E0ADB7BEB712969C938E93C3
:1021B0001197128313820E94721F0F900F900F903D
:1021C0000F90103559F405C081E00E9459108835F0
:1021D00039F48091BB00888380E003C08FEF01C099
:1021E0008FEFDF91CF911F9108956AE00E941D1F2C
:1021F0008295807F890F0895982F92959F70990FEF
:10220000292F220F220F920F8F70890F0895EF92BE
:10221000FF920F931F93DF93CF930F92CDB7DEB74B
:102220007C0180ED90E060E070E040E00E947C1076
:1022300080E00E94AE100E94AA1080ED90E060E065
:1022400070E041E00E947C108E010F5F1F4FC801BB
:1022500061E00E94B91089818F770E94FC10F7011C
:102260008083C80161E00E94B91089810E94FC103E
:10227000F7018183C80161E00E94B9108981282F8C
:1022800030E086FF17C091E09093790120723070A2
:102290003595279535952795359527953595279526
:1022A0003595279520937A018F710E94FC10F701D4
:1022B000828309C01092790110927A018F730E9473
:1022C000FC10F70182838E010F5F1F4FC80161E090
:1022D0000E94B91089810E94FC10F7018383C80114
:1022E00061E00E94B91089810E94FC10F70184838B
:1022F000C80161E00E94B91089810E94FC10F701B9
:102300008583C80160E00E94B91089810E94FC1099
:10231000F70186830E94AA100F90CF91DF911F9141
:102320000F91FF90EF900895CF92DF92FF920F935D
:102330001F93DF93CF93CDB7DEB727970FB6F894EF
:10234000DEBF0FBECDBFFC01908181818A83828177
:102350008B8383818C8384818D8385818E83868129
:102360008F83A5E8B1E087E001900D928150E1F7FD
:102370009F77998380ED90E060E070E040E00E94FC
:102380007C1080E00E94AE10FF24F39400E010E087
:102390006E010894C11CD11C03C00F5F1F4FF39442
:1023A0000230A1F48B810E94F5109091790199235C
:1023B00049F0806490917A01992311F0806203C002
:1023C0008F7D01C08F7B0E94AE10E7CFF601E00F3A
:1023D000F11D80810E94F5100E94AE108F2D873074
:1023E000E0F20E94AA1027960FB6F894DEBF0FBE47
:1023F000CDBFCF91DF911F910F91FF90DF90CF90D4
:1024000008958A3090F090E39F5F8A508A30E0F719
:1024100020E320932301903311F090932301805DFA
:102420008093240183E291E0089590E39093230147
:10243000F6CF42988091CD019091CE018D7F9093FF
:10244000CE018093CD0108958091B80184FF11C021
:102450008091CF0164E1681B8FEB91E00E94E31A49
:102460008091B8019091B9018F7E9093B9018093CA
:10247000B80108954F925F926F927F929F92AF92B0
:10248000BF92CF92DF92EF92FF920F931F93CF9361
:10249000DF93082FA62E7A010894E11CF11CFA01A3
:1024A000C490F7019490992049F10894E11CF11C23
:1024B000BB24662477244C2C4A9455240894411C50
:1024C000511C19C0E301DB2CDA0CF701EC0FFD1FE6
:1024D00014919E01200F822F6D2D0E94C009812F23
:1024E0000E942C0A2196CC1580F3E40CF51C98E090
:1024F000B90EB91418F4CC2029F7F9CFDF91CF9198
:102500001F910F91FF90EF90DF90CF90BF90AF9011
:102510009F907F906F905F904F9008958091B80149
:1025200083FF0FC088EC91E06091B7010E94E31A2D
:102530008091B8019091B901877F9093B901809300
:10254000B8018091B8019091B90182FF0BC08B7FD7
:102550009093B9018093B80180E069E04AEC5BE0B8
:102560000E943A1208954F925F926F927F929F92CB
:10257000AF92BF92CF92DF92EF92FF920F931F9391
:10258000CF93DF93082FA62E7A010894E11CF11C4B
:10259000FA01C490F7019490992051F10894E11C3C
:1025A000F11CBB24662477244C2C4A9455240894AF
:1025B000411C511C1AC0E301DB2CDA0CF701EC0FB3
:1025C000FD1F14919E01200F822F6D2D0E94C009C6
:1025D000812F80950E942C0A2196CC1578F3E40C6B
:1025E000F51C98E0B90EB91418F4CC2021F7F9CFF6
:1025F000DF91CF911F910F91FF90EF90DF90CF90DF
:10260000BF90AF909F907F906F905F904F90089594
:102610000F931F93DF93CF93CDB7DEB727970FB6F6
:10262000F894DEBF0FBECDBF80E00E942B108091DA
:10263000CD019091CE0182609093CE018093CD0127
:102640001A82198289819A812AE38839920758F47B
:1026500089819A8101969A83898389819A81AAE3E3
:1026600088399A07A8F30CEF1BE080E060E0A8012E
:102670000E94B3128FEF94E3ACE081509040A040F1
:10268000E1F700C0000080E060E0A8010E943A127B
:102690008FEF98E0ADE381509040A040E1F700C09B
:1026A000000080E060E04FE72FE300E00E94660D4D
:1026B0008091B70190E060E071E049E00E94C71AA4
:1026C0002B833C834D835E836F83A8ECB1E0FE01D6
:1026D000339685E001900D928150E1F72091CF0172
:1026E00084E190E0821B910964E170E04FE30E9475
:1026F000C71A2B833C834D835E836F83AFEBB1E0BE
:10270000FE01339685E001900D928150E1F788EC4F
:1027100091E00E94E71A8FEB91E00E94E71A27965A
:102720000FB6F894DEBF0FBECDBFCF91DF911F91E2
:102730000F910895EF92FF920F931F93CF93DF9322
:102740008091B8019091B90185FF56C08F7D90931B
:10275000B9018093B80182E898E060E079E04FEF3A
:102760000E9403098FE560E043E227E000E00E9459
:10277000660D8FE560E00E94C0090F2EF7E8EF2E8E
:10278000F1E0FF2EF02D809187011AE0612F0E9469
:102790001D1F805D0E94F10A80918701612F0E94B8
:1027A0001D1F892F805D0E94F10A8AE30E94F10AB1
:1027B000E7018A91612F0E941D1F805D0E94F10A2E
:1027C0008881612F0E941D1F892F805D0E94F10A60
:1027D0008AE30E94F10AE70122978881612F0E9413
:1027E0001D1F805D0E94F10A8881612F0E941D1FBC
:1027F000892F805D0E94F10ADF91CF911F910F9187
:10280000FF90EF9008950F931F938091B8019091DE
:10281000B90186FF51C08F7B9093B9018093B801B5
:1028200082E898E060E079E04FEF0E94030983E0DE
:1028300060E048E227E000E00E94660D83E060E08F
:102840000E94C009809189011AE0612F0E941D1F1A
:10285000805D0E94F10A80918901612F0E941D1FF5
:10286000892F805D0E94F10A8DE20E94F10A809119
:102870008A01612F0E941D1F805D0E94F10A8091D4
:102880008A01612F0E941D1F892F805D0E94F10A1D
:102890008DE20E94F10A80918B01612F0E941D1F21
:1028A000805D0E94F10A80918B01612F0E941D1FA3
:1028B000892F805D0E94F10A1F910F9108950F9357
:1028C0000E949A130E94031480E068E040E820E030
:1028D0000FEF0E94660D0E948E120F9108950F93C4
:1028E0008091CD019091CE0193FF29C08091B801D4
:1028F0009091B901977F9093B9018093B8018FE0CF
:1029000067E042E622E600E00E94660D80E168E0B2
:1029100040E620E30FEF0E94CE0E82E168E144E141
:1029200020E10E94CE0E88E268E144E120E10E94AD
:10293000CE0E8CE368E144E120E10E94CE0E0F91BF
:1029400008950F931F93182F8091B8019091B901AA
:1029500091FF94C09D7F9093B9018093B80180E569
:1029600064E24CE028E000E00E94660D80E464E24E
:102970004CE028E00E94660D80E664E24CE028E02E
:102980000E94660D80E764E24CE028E00E94660D3C
:1029900080E564E24CE028E00FEF0E94CE0E80E478
:1029A00064E24CE028E00E94CE0E80E664E24CE057
:1029B00028E00E94CE0E80E764E24CE028E000E0D0
:1029C0000E94CE0E84E468E248E428E20FEF0E9401
:1029D000F60E84E568E248E528E20E94F60E86E5F8
:1029E00066E246E52AE20E94F60E8091CD0185FF5F
:1029F00015C081E66BE24AE022E000E00E94660D2D
:102A000084E669E246E627E20FEF0E94F60E88E6CA
:102A100069E246E627E20E94F60E0DC084E667E210
:102A200046E629E20FEF0E94F60E88E667E246E6E8
:102A300029E20E94F60E113039F480E564E24CE0A0
:102A400028E00E94C80C1AC0123039F480E464E215
:102A50004CE028E00E94C80C11C0133039F480E625
:102A600064E24CE028E00E94C80C08C0143031F445
:102A700080E764E24CE028E00E94C80C1F910F91AF
:102A80000895EF920F931F938091B8019091B9012F
:102A900087FF6EC08F779093B9018093B80183E070
:102AA00064E14CE324E100E00E94660D83E064E110
:102AB0000E94C00988E990E060E079E04FEF0E9451
:102AC00003096091C4017091C5018091C601909184
:102AD000C70120E030E040E251E40E94741D20E094
:102AE00030E040E452E40E940C1D0E94DC1D862F61
:102AF0000E94F10A6091C4017091C5018091C601E4
:102B00009091C7010E94DC1D862F1AE0612F0E9460
:102B10001D1F892F805D0E94F10A8EE20E94F10A3A
:102B20006091C4017091C5018091C6019091C70167
:102B300020E030E040E251E40E94BA1E0E94DC1D19
:102B4000862F612F0E941D1F892F805D0E94F10A30
:102B50008FE261E146E026E003E0EE24EA940E9481
:102B6000F70D80E362E144E024E002E00E94F70D0B
:102B70008091B8019091B90190FF67C09E7F9093BA
:102B8000B9018093B80186E793E060E079E04FEF08
:102B90000E94030982E464E144E12EE000E00E9427
:102BA000660D82E464E10E94C00960919701709112
:102BB00098018091990190919A0120E030E040E2E3
:102BC00051E40E94741D20E030E040E452E40E9491
:102BD0000C1D0E94DC1D862F0E94F10A6091970156
:102BE000709198018091990190919A010E94DC1D49
:102BF000862F1AE0612F0E941D1F892F805D0E9481
:102C0000F10A8EE20E94F10A609197017091980199
:102C10008091990190919A0120E030E040E251E4E6
:102C20000E94BA1E0E94DC1D862F612F0E941D1F6C
:102C3000892F805D0E94F10A8AE562E144E024E088
:102C400002E0EE24EA940E94F70D1F910F91EF909D
:102C500008950F938091B8019091B90181FF3AC016
:102C60008D7F9093B9018093B80180E46DE24CE2CE
:102C70002CE000E00E94660D80E46DE24CE22CE066
:102C80000FEF0E94CE0E81E66BE24AE022E000E008
:102C90000E94660D83E46FE240E750E00E943A1222
:102CA0008FE46FE244E850E00E943A1283E480939C
:102CB0009F019FE29093A00189E08093A1018093FE
:102CC000A2012FE42093A4019093A5018093A60173
:102CD0008093A7010F9108950F9380E46DE24CE279
:102CE0002CE000E00E94660D0F9108950F938091F3
:102CF000B8019091B90192FF16C09B7F9093B901E2
:102D00008093B80182E665E149E029E000E00E9495
:102D1000660DE091D401F091D5014081518182E6A8
:102D200065E10E943A120F91089582E898E060E010
:102D300079E04FEF0E9403090E945F140E94411541
:102D40000E9476160E9424128091CD0180FF06C059
:102D500088E765E34AEB5BE00E943A128091BA0192
:102D60000E94A1140E946F1480E48093D60124E293
:102D70002093D7019CE09093D80188E08093D901FB
:102D800030E53093BB012093BC019093BD0180934B
:102D9000BE0130E63093810120938201909383013C
:102DA0008093840130E73093B3012093B401909372
:102DB000B5018093B6010895DF93CF9300D0CDB7CE
:102DC000DEB7429A8091CD019091CE0182609093BE
:102DD000CE018093CD011A82198289819A812AE3DA
:102DE0008839920758F489819A8101969A83898358
:102DF00089819A812AE388399207A8F380E00E94AA
:102E00002B100E9495160F900F90CF91DF9108958F
:102E1000FC01DB0120814C912417E8F030E0129690
:102E20008C91129790E0840F911D82179307ACF05C
:102E3000418111968C911197481788F050E01396B4
:102E40002C91139730E0280F311D81E024173507AE
:102E50003CF480E0089580E0089580E0089580E0EB
:102E60000895FC01DB01208130E08C9190E0AC0101
:102E700042505040421753074CF4AC014E5F5F4F35
:102E800081E0241735071CF480E001C081E0218136
:102E900030E011964C91119750E0BA0162507040A9
:102EA000621773072CF44E5F5F4F241735070CF041
:102EB0008260228112969C91129729138460089552
:102EC000DF92EF92FF920F931F93DF93CF9300D087
:102ED0000F92CDB7DEB781B1807F81B981B18560B6
:102EE00081B982B1807F82B9129A81E00E94C208C2
:102EF000182F83E00E94C208E82E612F665170E00F
:102F0000882777FD8095982F0E940A1E20E030E0E8
:102F100048EC5FE30E94741D0E94DC1DF62E81B117
:102F2000807F81B981B18A6081B982B1807F82B9A5
:102F3000139A80E00E94C208082F009582E00E9448
:102F4000C208D82E602F685270E0882777FD8095E0
:102F5000982F0E940A1E20E030E041E350E40E94D6
:102F6000741D0E94DC1D762F1E1531F4D09481E073
:102F70000D1519F080E001C080E06F2D90E00F90FA
:102F80000F900F90CF91DF911F910F91FF90EF90D5
:102F9000DF900895EF92FF920F931F93DF93CF93EB
:102FA00000D00F92CDB7DEB78091CD0181FF5DC11A
:102FB0000E94601769837A838B83ABE7B1E0FE01DF
:102FC000319683E001900D928150E1F78BE791E01B
:102FD0006EE771E00E943117882309F41FC182FF58
:102FE00014C180917D01882309F402C18BE791E02F
:102FF00066ED71E00E940817882319F182E0809342
:10300000BA018091B8019091B90192609093B90191
:103010008093B80160919701709198018091990116
:1030200090919A0120E030E040E05FE30E940B1DA8
:1030300060939701709398018093990190939A01FE
:103040005CC08BE791E06BEB71E00E94081788236E
:1030500019F181E08093BA018091B8019091B90192
:1030600092609093B9018093B8016091970170913B
:1030700098018091990190919A0120E030E040E020
:103080005FE30E940C1D60939701709398018093F9
:10309000990190939A0131C08BE791E061E871E06A
:1030A0000E940817882349F183E08093BA01209198
:1030B000B8013091B901226032603093B901209398
:1030C000B8018091CD019091CE0185FF0CC00E9486
:1030D0006C168091CD019091CE018F7D9093CE01A1
:1030E0008093CD010AC022603093B9012093B801CA
:1030F00080629093CE018093CD018091CD0185FFB8
:1031000082C08BE791E06FE971E00E940817882385
:1031100099F13091D4012091D501832F922FDC01B8
:10312000E6E3F1E089E001900D928150E1F7E09152
:10313000D401F091D50182819381A481B5818093DE
:10314000970190939801A0939901B0939A010E94DE
:103150006C168091CD019091CE018F7D9093CE0120
:103160008093CD018091B8019091B90194609093C2
:10317000B9018093B80147C08BE791E064EA71E040
:103180000E940817882309F43EC03091D401209191
:10319000D501832F922FDC01EFE3F1E089E001906C
:1031A0000D928150E1F7E091D401F091D501828137
:1031B0009381A481B5818093970190939801A09306
:1031C0009901B0939A018091CD019091CE018F7DAC
:1031D0009093CE018093CD010E946C168091B8012E
:1031E0009091B90194609093B9018093B8010BC09C
:1031F0008091B8019091B90192609093B901809348
:10320000B8011092BA011092CF01AEE7B1E0EBE73E
:10321000F1E083E001900D928150E1F7E090970199
:10322000F09098010091990110919A0160919B0191
:1032300070919C0180919D0190919E01A801970140
:103240000E94701D882389F0E0929B01F0929C01FE
:1032500000939D0110939E018091B8019091B90156
:1032600091609093B9018093B8010F900F900F90E7
:10327000CF91DF911F910F91FF90EF90089587B14B
:10328000877C87B988B1886388B93A9A429808954B
:103290008091CD0181FF57C0349929C03091D4016C
:1032A0002091D501832F922FDC01E6E3F1E089E044
:1032B00001900D928150E1F7E091D401F091D50198
:1032C00082819381A481B581809397019093980125
:1032D000A0939901B0939A018091B8019091B9019E
:1032E00094609093B9018093B8011092CF01359901
:1032F0003AC03091D4012091D501832F922FDC0167
:10330000EFE3F1E089E001900D928150E1F7E09167
:10331000D401F091D50182819381A481B5818093FC
:10332000970190939801A0939901B0939A0180918D
:10333000B8019091B90194609093B9018093B8015C
:103340001092CF01089533990EC00E94DC1680912F
:10335000B8019091B9018A6F976F9093B9018093EA
:10336000B8011092CF01089586E391E09093D501C2
:103370008093D4010E94AF080E943F190E94081355
:103380000E94BB1C0E940B1B0E9453100E94BE1B7C
:10339000789486E291E00E94871F8091B801909115
:1033A000B9018A6F976F9093B9018093B80185E84E
:1033B00091E00E9407110E9495168091CD0181FF36
:1033C00004C00E94CA170E9495168091CD01909169
:1033D000CE0187FF05C08F779093CE018093CD01FA
:1033E0000E94D11BEACFFC01A681B7819C91828506
:1033F00089230895FC01A481B5819C918285892B44
:103400008C93A085B1859C918285892B8C9308959E
:10341000DC011896ED91FC91199790811A968C9188
:103420001A9780958923808308950F931F93CF93D4
:10343000DF93EC01EC81FD8190818A858095892361
:103440008083E885F98590818A858095892B8083A2
:103450008FE599E00197F1F700C000001FB7F894DD
:10346000E885F98590818A85809589238083EC8120
:10347000FD8190818A85892B80838FE391E001977C
:10348000F1F700C00000CE010E94F319082F1FBF02
:103490008FE198E00197F1F700C00000CE010E9493
:1034A000F319882309F401E0802FDF91CF911F9158
:1034B0000F9108950F931F93CF93DF93EC01162F75
:1034C00011700FB7F894EC81FD8190818A85809509
:1034D00089238083E885F98590818A85892B80837B
:1034E0008DE08A95F1F70000112371F0E885F985E8
:1034F00090818A85809589238083EC81FD819081EC
:103500008A858095892B808396E59A95F1F700C08E
:10351000CE010E94F319882309F410E086ED90E0B3
:103520000197F1F700C00000EC81FD8190818A8550
:10353000892B8083E885F98590818A858095892308
:1035400080830FBF92E49A95F1F700C0812FDF913D
:10355000CF911F910F9108950F931F93CF93DF93F6
:10356000EC01162F08E0612F6170CE010E945A1AFB
:103570001695811110680150B1F7812FDF91CF911D
:103580001F910F9108956FEF0E94AC1A0895DF9379
:10359000CF9300D000D00F92CDB7DEB7E42F898350
:1035A0009A836B837C83282F392F462F572F6E2FBA
:1035B00070E080E090E00F900F900F900F900F90D0
:1035C000CF91DF910895FC016083118208950F93DC
:1035D0001F93CF93DF93EC01888199819695982F63
:1035E0008827979587956A817B810E94291F162FCE
:1035F00080E06C8140E820E000E00E94660D80E001
:103600006C81412F20E00FEF0E94660DDF91CF917A
:103610001F910F9108958AE290E090939501809315
:103620009401ECE8F1E080E090E0DC01808391839C
:10363000A283B38340E8428729E230E037832683C0
:103640002BE230E03583248321E230E03093B10176
:103650002093B001E8EAF1E080839183A283B383F1
:10366000428780E290E09783868382E290E09583B0
:10367000848308958F929F92AF92BF92CF92DF92F0
:10368000EF92FF920F931F93DF93CF93CDB7DEB7E7
:103690006E970FB6F894DEBF0FBECDBF7C010E94BF
:1036A000151AC7016CEC0E94AC1AC70164E40E94B1
:1036B000AC1AC7010E94C31A8823D9F3C7010E941C
:1036C000151AC7016CEC0E94AC1AC7016EEB0E9480
:1036D000AC1AC7010E94C31AC82EC7010E94C31AA0
:1036E000382F20E06C2D70E0262B372BB90188276E
:1036F00077FD8095982F0E940A1E20E030E040E878
:103700005DE30E94BA1EB62EA72E982E892E41E0A8
:1037100050E021E030E06E010894C11CD11C86010C
:103720000E94501F00D000D088E491E0EDB7FEB7B2
:1037300092838183D482C3820E94721F8B2D9A2D23
:10374000A92DB82DF70180839183A283B3830F90B5
:103750000F900F900F906E960FB6F894DEBF0FBECD
:10376000CDBFCF91DF911F910F91FF90EF90DF9030
:10377000CF90BF90AF909F908F9008958CE38093EF
:10378000840086EF8093850082E080938100EFE6DD
:10379000F0E08081816080838DE491E00E94871F4A
:1037A0000895EF92FF920F931F938091CD01909116
:1037B000CE0184FF3FC09C012F7E3093CE01209329
:1037C000CD0181FF0CC0809185018F5F80938501C1
:1037D0008C3329F420683093CE012093CD018CE8FE
:1037E00091E00E943A1BE0908C01F0908D010091D5
:1037F0008E0110918F01C801B7012091D001309145
:10380000D1014091D2015091D3010E94701D8823B3
:1038100089F08091B8019091B90180689093B901C5
:103820008093B801E092D001F092D1010093D201CF
:103830001093D3018091CD019091CE0183FF05C0FB
:10384000877F9093CE018093CD018091CD0190919F
:10385000CE0182FF1AC09C012B7F3093CE012093B2
:10386000CD0181FF12C02091CF012F5F2093CF01A6
:103870008091B8019091B90180619093B9018093D2
:10388000B801243111F40E9419121F910F91FF9079
:10389000EF9008951F920F920FB60F9211245F932D
:1038A0006F937F938F939F93AF93BF938CE380939A
:1038B000840086EF809385008091DA019091DB018E
:1038C00001969093DB018093DA018091DA01909167
:1038D000DB0164E670E00E94291F009749F48091A3
:1038E000CD019091CE0188609093CE018093CD015F
:1038F0008091DA019091DB0164EF71E00E94291F51
:10390000009749F48091CD019091CE01846090930D
:10391000CE018093CD018091DA019091DB0168EEB8
:1039200073E00E94291F009769F48091CD01909166
:10393000CE0180619093CE018093CD011092DB0186
:103940001092DA01BF91AF919F918F917F916F910A
:103950005F910F900FBE0F901F901895E0ECF0E074
:10396000908195FFFDCF8093C60080E090E00895A0
:1039700080E090E0089580E48093C40088E0809324
:10398000C10082E691E090930B0280930A0290932B
:103990000902809308020895E0ECF0E0908195FF21
:1039A000FDCF8093C600089580910402089590E0B1
:1039B00020910402309105028217930721F410929E
:1039C00005021092040284529E4FFC0180810895EA
:1039D0001F920F920FB60F9211242F938F939F93E4
:1039E000EF93FF93809104029091050201969093CA
:1039F0000502809304022091C60084529E4FFC0170
:103A00002083FF91EF919F918F912F910F900FBE87
:103A10000F901F9018955058BB27AA270ED070C141
:103A200061D130F066D120F031F49F3F11F41EF4E3
:103A300056C10EF4E095E7FB4CC1E92F72D180F33B
:103A4000BA17620773078407950718F071F49EF59B
:103A50008AC10EF4E0950B2EBA2FA02D0B01B901EF
:103A600090010C01CA01A0011124FF27591B99F0F4
:103A7000593F50F4503E68F11A16F040A22F232F00
:103A8000342F4427585FF3CF469537952795A79550
:103A9000F0405395C9F77EF41F16BA0B620B730BF7
:103AA000840BBAF09150A1F0FF0FBB1F661F771F68
:103AB000881FC2F70EC0BA0F621F731F841F48F41D
:103AC000879577956795B795F7959E3F08F0B3CFA3
:103AD0009395880F08F09927EE0F9795879508958D
:103AE000D4D008F481E008950CD00AC102D140F08E
:103AF000F9D030F021F45F3F19F0EBC0511134C11F
:103B0000EEC00FD198F39923C9F35523B1F3951B58
:103B1000550BBB27AA2762177307840738F09F5FEE
:103B20005F4F220F331F441FAA1FA9F333D00E2E5D
:103B30003AF0E0E830D091505040E695001CCAF7CA
:103B400029D0FE2F27D0660F771F881FBB1F26178F
:103B500037074807AB07B0E809F0BB0B802DBF0162
:103B6000FF2793585F4F2AF09E3F510568F0B1C080
:103B7000FBC05F3FECF3983EDCF386957795679545
:103B8000B795F7959F5FC9F7880F911D9695879513
:103B900097F90895E1E0660F771F881FBB1F621732
:103BA00073078407BA0720F0621B730B840BBA0BF0
:103BB000EE1F88F7E0950895BCD088F09F5790F0ED
:103BC000B92F9927B751A0F0D1F0660F771F881F42
:103BD000991F1AF0BA95C9F712C0B13081F0C3D05D
:103BE000B1E00895C0C0672F782F8827B85F39F0FB
:103BF000B93FCCF3869577956795B395D9F73EF4A1
:103C000090958095709561957F4F8F4F9F4F089548
:103C1000E89409C097FB3EF4909580957095619566
:103C20007F4F8F4F9F4F9923A9F0F92F96E9BB271C
:103C30009395F695879577956795B795F111F8CF98
:103C4000FAF4BB0F11F460FF1BC06F5F7F4F8F4F03
:103C50009F4F16C0882311F096E911C0772321F0F9
:103C60009EE8872F762F05C0662371F096E8862F91
:103C700070E060E02AF09A95660F771F881FDAF7E8
:103C8000880F9695879597F90895990F0008550F15
:103C9000AA0BE0E8FEEF16161706E807F907C0F0D2
:103CA00012161306E407F50798F0621B730B840BDA
:103CB000950B39F40A2661F0232B242B252B21F4B4
:103CC00008950A2609F4A140A6958FEF811D811D54
:103CD000089597F99F6780E870E060E008959FEF8E
:103CE00080EC089500240A94161617061806090693
:103CF000089500240A941216130614060506089562
:103D0000092E0394000C11F4882352F0BB0F40F4E9
:103D1000BF2B11F460FF04C06F5F7F4F8F4F9F4F29
:103D2000089557FD9058440F551F59F05F3F71F0AB
:103D30004795880F97FB991F61F09F3F79F0879512
:103D40000895121613061406551FF2CF4695F1DF9B
:103D500008C0161617061806991FF1CF869571052B
:103D6000610508940895E894BB2766277727CB015F
:103D700097F908950BD0C4CFB5DF28F0BADF18F05B
:103D8000952309F0A6CFABCF1124EECFCADFA0F365
:103D9000959FD1F3950F50E0551F629FF001729FE0
:103DA000BB27F00DB11D639FAA27F00DB11DAA1FFF
:103DB000649F6627B00DA11D661F829F2227B00D4C
:103DC000A11D621F739FB00DA11D621F839FA00DD7
:103DD000611D221F749F3327A00D611D231F849F27
:103DE000600D211D822F762F6A2F11249F5750407E
:103DF0008AF0E1F088234AF0EE0FFF1FBB1F661F19
:103E0000771F881F91505040A9F79E3F510570F0D1
:103E100060CFAACF5F3FECF3983EDCF386957795B1
:103E20006795B795F795E7959F5FC1F7FE2B880FCC
:103E3000911D9695879597F90895991B79E004C08F
:103E4000991F961708F0961B881F7A95C9F78095D9
:103E50000895AA1BBB1B51E107C0AA1FBB1FA617D1
:103E6000B70710F0A61BB70B881F991F5A95A9F723
:103E700080959095BC01CD01089597FB092E0726EA
:103E80000AD077FD04D0E5DF06D000201AF4709543
:103E900061957F4F0895F6F7909581959F4F08950E
:103EA000EF92FF920F931F93322FF02E47FF02C025
:103EB000A4E101C0A4E0E42FFF27E7FDF095F7FFA0
:103EC00003C0F095E195FF4F4F2D512F2E2F032F5B
:103ED000EA2E0E94A3218F2D912F1F910F91FF9009
:103EE000EF900895A0E0B0E0E8E7FFE10C948224B1
:103EF000FE013596619171918091080290910902BD
:103F0000AF010E94BC1F2096E2E00C949E24EF9229
:103F1000FF920F931F93CF93DF938C01E0910802E0
:103F2000F0910902838181FF1FC0C0E0D0E00AC088
:103F3000DB011896ED91FC9119970995009711F006
:103F4000CFEFDFEFF80181918F016091080270914E
:103F50000902882369F7DB011896ED91FC91199706
:103F60008AE00995009711F0CFEFDFEFCE01CDB7D2
:103F7000DEB7E6E00C949A24ACE0B0E0E2ECFFE1BE
:103F80000C9472246C011B018A01FC0117821682B9
:103F9000838181FFD1C12E010894411C511CF6017F
:103FA0009381F10193FD859193FF81911F018823F6
:103FB00009F4BEC1853239F493FD859193FF819157
:103FC0001F01853229F490E0B6010E94E823E7CF73
:103FD000EE24FF2420E02032B0F48B3269F08C32E2
:103FE00028F4803251F0833271F40BC08D3239F0F5
:103FF000803349F421602CC02260246029C02860ED
:1040000027C0206125C027FD2CC0382F30533A30FF
:1040100098F426FF08C08E2D880FE82EEE0CEE0CCB
:10402000E80EE30E15C08F2D880FF82EFF0CFF0C45
:10403000F80EF30E20620CC08E3221F426FD78C1FA
:10404000206406C08C3611F4206802C0883649F41A
:10405000F10193FD859193FF81911F01882309F060
:10406000BACF982F9554933018F09052933028F48B
:104070000C5F1F4FFFE3F9830DC0833631F08337A8
:1040800071F0833509F060C022C0F8018081898316
:104090000E5F1F4F420171E0A72EB12C16C062E0E7
:1040A000662E712C600E711EF8018080918026FFB3
:1040B00003C06E2D70E002C06FEF7FEFC4012C874C
:1040C0000E94DD235C0183012C852F7717C052E00D
:1040D000652E712C600E711EF8018080918026FF84
:1040E00003C06E2D70E002C06FEF7FEFC4012C871C
:1040F0000E94D2235C012C852068830123FD20C00F
:1041000008C080E290E0B6012C870E94E823FA9470
:104110002C858F2D90E0A816B90698F311C0F401F4
:1041200027FD859127FF81914F0190E0B6012C87F3
:104130000E94E8232C85F110FA940894A108B10894
:10414000A114B10461F7F1C0843611F0893649F544
:1041500027FF08C0F80160817181828193810C5F23
:104160001F4F09C0F80160817181882777FD809514
:10417000982F0E5F1F4F4FE6B42EB22297FF09C053
:1041800090958095709561957F4F8F4F9F4FF0E888
:10419000BF2AA2012AE030E00E941424782E74186D
:1041A00045C0853731F43FEEB32EB2222AE030E02D
:1041B00025C099EFB92EB2228F36C1F0803720F496
:1041C000883509F0B5C00DC0803721F0883709F077
:1041D000AFC002C020E1B22AB4FE0BC084E0B82A0E
:1041E00008C0B4FE09C0E6E0BE2A06C028E030E000
:1041F00005C020E130E002C020E132E0B7FE08C097
:10420000F80160817181828193810C5F1F4F07C02B
:10421000F8016081718180E090E00E5F1F4FA20184
:104220000E941424782E7418FFE7BF22B6FE0BC03C
:104230002EEFB2227E1438F4B4FE07C0B2FC05C0E3
:104240008FEEB82202C0A72C01C0AE2C8B2D90E0BF
:10425000B4FE0DC0FE01E70DF11D2081203319F4DD
:10426000E9EEBE2209C0A394B2FE06C004C086785F
:104270009070009709F0A3948B2C9924B3FC14C080
:10428000B0FE0FC0AF1428F4E72CEF0CEA18AF2CE7
:1042900008C0E72C06C080E290E0B6010E94E82347
:1042A000A394AF14C0F304C0AF1410F4FA1801C003
:1042B000FF2484FE0FC080E390E0B6010E94E82353
:1042C00082FE1FC081FE03C088E590E010C088E731
:1042D00090E00DC0C40186789070009791F081FC49
:1042E00002C080E201C08BE2B7FC8DE290E0B60133
:1042F0000E94E82306C080E390E0B6010E94E82314
:10430000EA947E14C0F37A94F201E70DF11D8081E6
:1043100090E0B6010E94E8237720A9F706C080E26A
:1043200090E0B6010E94E823FA94FF20C1F737CE4F
:10433000F6012681378102C02FEF3FEFC9012C968D
:10434000E2E10C948E24A9E0B0E0E9EAF1E20C94F9
:104350007A246A01F22E102F0C3318F4B02EB39485
:1043600002C0ECE3BE2EAE014F5F5F4F27E00B2D86
:104370000E94FA22298130E0A90149705070413031
:10438000510531F0E1FC06C0E0FE06C0E0E205C0E8
:10439000EDE203C0EBE201C0E0E023FF37C0EE2313
:1043A00011F084E001C083E08F1518F4F81A8F2D06
:1043B00001C080E0E4FC0BC0982FD60120E202C0CF
:1043C0002D9391509923E1F7C80ED11C80E0EE2384
:1043D00019F0D601ED936D01F6013196E2FE05C0AC
:1043E0009EE4D6019C9321E404C09EE6D6019C93F2
:1043F00021E611962C9391833296982FDF0120E2CB
:1044000002C02D9391509923E1F73DC022FF41C096
:10441000EE2311F084E001C083E08F1518F4F81A40
:104420008F2D01C080E0E4FC0BC0982FD60120E264
:1044300002C02D9391509923E1F7C80ED11C80E062
:10444000EE2319F0D601ED936D01F6013196E2FEEF
:1044500009C099E4D6019C939EE411969C93119710
:1044600096E407C099E6D6019C939EE611969C932C
:1044700096E691833296982FDF0120E202C02D93B9
:1044800091509923E1F7E80FF11D10822EEF3FEFD5
:10449000ACC041E050E0EE2311F440E050E01816CB
:1044A000190624F4BC016F5F7F4F02C061E070E029
:1044B000640F751F112329F0412F50E04F5F5F4FAC
:1044C00002C040E050E0460F571F6F2D70E04617C6
:1044D00057071CF40F2D041B01C000E0FF24A701A7
:1044E00040715070E4FC0DC0E3FC0BC0602FD6019E
:1044F00070E202C07D9361506623E1F7C00ED11CCB
:1045000000E0EE2319F0D601ED936D014115510540
:1045100059F4402FF60150E302C051934150442317
:10452000E1F7C00ED11C00E0B80EFA80A90140717D
:10453000507024FF04C0BF2DB13309F4BA941B148A
:104540002CF4AB2DA93018F0A8E001C0A1E09C012B
:1045500097FF02C020E030E0BC016F5F7F4F621B1D
:10456000730BFE013196E60FF71F6EE2E62EBC01DB
:104570006A1B7109A12FB0E0AA24BB24AA1ABB0AA6
:104580001FEF2F3F310719F4D601ED926D0182170D
:1045900093072CF06217730714F4108101C010E325
:1045A0002150304031962A153B0524F0D6011D9349
:1045B0006D01E6CF2817390749F4BF2DB63328F42B
:1045C000B53321F44115510509F411E3F6011193B6
:1045D000802FDF0190E202C09D9381508823E1F794
:1045E000E00FF11D108220E030E0C9012996EAE0D9
:1045F0000C949624283008F027E03327DA01990F2D
:10460000311D87FD916000966105710539F43260B6
:104610002E5F3D9330E32A95E1F708959F3F30F0F8
:1046200080387105610509F03C5F3C5F3D93913036
:1046300008F08068911DDF93CF931F930F93FF9233
:10464000EF92192F987F9695E92F96959695E90FF9
:10465000FF27E058FF4E99273327EE24FF24A701B8
:10466000E70105900894079428F4360FE71EF81E1A
:10467000491F511D660F771F881F991F0694A1F7C8
:104680000590079428F4E70EF81E491F561FC11D18
:10469000770F881F991F661F0694A1F7059007944E
:1046A00028F4F80E491F561FC71FD11D880F991FE8
:1046B000661F771F0694A1F70590079420F4490F11
:1046C000561FC71FD81F990F661F771F881F069494
:1046D000A9F784911095177041F0D695C795579515
:1046E0004795F794E7941A95C1F7E6E2F0E16894EC
:1046F0001590159135916591959105907FE273958F
:10470000E118F10A430B560BC90BD009C0F7E10CB5
:10471000F11E431F561FC91FD01D7EF4703311F4C4
:104720008A95E6CFE894015030F0080F0AF400278C
:10473000021708F4202F2395022F7A3328F079E30B
:104740007D932A95E9F710C07D932A9589F6069402
:1047500097956795379517951794E118F10A430BCC
:10476000560BC90BD00998F023957E9173957A3337
:1047700008F070E37C932013B8F77E9170617D930D
:1047800030F0839571E37D9370E32A95E1F711246E
:10479000EF90FF900F911F91CF91DF91992787FDA7
:1047A00090950895FC010590615070400110D8F774
:1047B000809590958E0F9F1F0895FC016150704069
:1047C00001900110D8F7809590958E0F9F1F089546
:1047D0000F931F93CF93DF938C01EB018B8181FFAC
:1047E0001BC082FF0DC02E813F818C819D812817C7
:1047F000390764F4E881F9810193F983E88306C0FD
:10480000E885F985802F0995009731F48E819F8185
:1048100001969F838E8302C00FEF1FEFC801DF91C7
:10482000CF911F910F910895FA01AA27283051F1D5
:10483000203181F1E8946F936E7F6E5F7F4F8F4FD1
:104840009F4FAF4FB1E03ED0B4E03CD0670F781F30
:10485000891F9A1FA11D680F791F8A1F911DA11D15
:104860006A0F711D811D911DA11D20D009F468944E
:104870003F912AE0269F11243019305D3193DEF6F6
:10488000CF010895462F4770405D4193B3E00FD0AC
:10489000C9F7F6CF462F4F70405D4A3318F0495D97
:1048A00031FD4052419302D0A9F7EACFB4E0A6957A
:1048B0009795879577956795BA95C9F7009761059C
:1048C000710508959B01AC010A2E069457954795F2
:1048D00037952795BA95C9F7620F731F841F951FE7
:1048E000A01D08952F923F924F925F926F927F92F8
:1048F0008F929F92AF92BF92CF92DF92EF92FF92F0
:104900000F931F93CF93DF93CDB7DEB7CA1BDB0B9B
:104910000FB6F894DEBF0FBECDBF09942A88398840
:1049200048885F846E847D848C849B84AA84B98447
:10493000C884DF80EE80FD800C811B81AA81B98153
:10494000CE0FD11D0FB6F894DEBF0FBECDBFED0167
:064950000895F894FFCF6A
:104956006932635F726561640D0061636B696E67DE
:104966000D00493263207374617475733A202569AA
:104976000D0A00303000496E697420636F6D706CEB
:10498600657465210D00FE0F0000904100001112B4
:10499600100000504100001725730D0A0054696D80
:1049A6006572203120696E697469616C697A656423
:1049B6000D000000000300000000AE1CB81C000043
:00000001FF
