:100000000C941D080C943A080C943A080C943A0885
:100010000C943A080C943A080C949D1E0C943A08DF
:100020000C943A080C943A080C943A080C943A0848
:100030000C943A080C943A080C943A080C94BC229C
:100040000C943A080C943A080C943A080C943A0828
:100050000C945A230C943A080C943A080C943A08DD
:100060000C943A080C943A080C943A080C943A0808
:10007000090910927C7CFF7C7C921000000000013A
:10008000000000000909007CFEEE83010100000071
:10009000000000010101000011780A192A100B0E5E
:1000A0000508050B0D090D0C0D0C0D0D0D0D40F087
:1000B000E0E0DCFCDCE0E0F0400002060F070107B6
:1000C0000F06020000000000000000000000000019
:1000D000000000000000000000000000000000C060
:1000E000C0C0C000000000003838383838FFFFFFBB
:1000F000FF383838383800000000000707070700CD
:1001000000000000000000000000000000000000EF
:1001100000000000000000000000000040FFFF7F22
:100120000F000000000000000000000000003C3C48
:100130003C3C3C3C3C3C0000000000000000000057
:10014000000000000000000000000000808080002F
:10015000070F0F0F070000000000000000000080E4
:10016000F0FEFF7F0F000080F0FEFFFF1F03000086
:10017000E0FCFFFF1F030000000000808080000003
:1001800000000000000080E0F0F87C1C1C1C7CF8E3
:10019000F8E0807FFFFFFF8000000080FFFFFF7F0F
:1001A000000107070F0E0E0E0F07070100000000E9
:1001B00000000000000000000000C0E0E0F078F85F
:1001C000FCFCFC0001000000FFFFFFFF000000003E
:1001D000000F0F0F0F00000000000000000010389B
:1001E000383C1C1C1C3CFCF8F8E00000C0E0F0F0BF
:1001F000F87C3E1F0F0701000F0F0F0F0F0E0E0EA2
:100200000E0E0E0E0E0000000000000000000000A8
:10021000000018383C1C1C1C3CFCF8F8E0000000F6
:10022000000E0E0E0F1FFFFBF1E0060F0E0E0E0E5E
:100230000E0F07070301000000000000000000008F
:10024000000000000080E0F0F8FCFCFCFC0000F086
:10025000FCFEFFE7E1E0FFFFFFFFE0E00000000041
:100260000000000F0F0F0F00000000000000000052
:100270000000000000000080FCFCFC1C1C1C1C1C7E
:100280001C000007070707070F1FFEFEFCF0060F04
:100290000E0E0E0E0E0F07070301000000000000F7
:1002A0000000000000000080E0F0F07838381C1CEE
:1002B0001C1C00FEFFFFFF870707070FFFFEFCF86F
:1002C000000307070F0E0E0E0F07070300000000C4
:1002D000000000000000000000001C1C1C1C1C1C76
:1002E0001CDCFCFCFC7C1C00000000E0FCFFFF1F91
:1002F000070100000000000E0F0F0F0100000000BA
:100300000000000000000000000000000000E0F01D
:10031000F8F83C1C1C1C3CFCF8F0E0F1FBFFFF1F54
:100320000E0E1E3FFFFFFBF10103070F0F0E0E0E17
:100330000F0F070301000000000000000000000094
:100340000000E0F0F8F83C1C1C1C3CF8F8F0C0037E
:100350000F0F1F1E1C1C9CFCFFFFFF3F00000E0E1A
:100360000E0F070707030100000000000000000057
:100370000000000000000808FC8281923854101030
:1003800020F00A0E206000020509060C0902040490
:100390000506030403060605060607060606060606
:1003A0000304060706060C090707080607080802E3
:1003B0000609070B0809070908060808090D0908B6
:1003C00007040604070702060605060605060602D8
:1003D0000307030A0607060605050506070B0807B7
:1003E0000504020407057E7E1C1C0F0F000F0F0082
:1003F000000000009898F8FE9EF8FE9E98041C1CD1
:10040000041C1C040404387C6FCFCC8C181878783A
:100410001C0C1C3E2222BEFCF8DC4E42C0800000B8
:10042000101C0C040C1C10101C0CC0FC7E66FE9CE6
:10043000C0C0000C1C18181C0C1C18100F0F00005A
:10044000F8FE0F021C7CF040020FFEF840F07C1C0E
:100450002C781E782C0000000000C0C0F0F0C0C056
:1004600000000C0C0000000000407838C0C0C0C084
:10047000000000000000001C1C1C0000E0FC1F032A
:10048000C0F83C040000F8FC0606FCF8040C181840
:100490000C04081C0CFEFE0000001C1C048EC6E6AA
:1004A0007E1C1C1C1C18181804066666FEDC181836
:1004B00018181C0CC0F0B88CFEFE80040404041C48
:1004C0001C04607E7E66E6C6181818181C0CF0FC2A
:1004D0007C66E6C0041C18181C0C0606C6F61E0630
:1004E000001C1C000000DCFE6666FEDC0C1C1818FC
:1004F0001C0C3C7E6666FEF80018180C0C003838A0
:10050000381C1C1C0038383840783800E0E0B0B0A7
:10051000B01800000404040CB0B0B0B0B0B0B00427
:1005200004040404040418B0B0B0E0E00C040404B3
:100530000000030363731F0E001C1C1C0000E0F886
:100540001CECF636F6F60E0CF8F0041C38346C6C25
:100550006C6C6C0C040000C0F8BE86BEF8C00018BD
:100560001C0C0404040C1C18FEFE666666FEDC1CF3
:100570001C1818181C0CF0FC0E06060606040C1CB1
:1005800018181818FEFE0606060CFCF81C1C181895
:10059000180C0C00FEFE666666061C1C181818185F
:1005A000FEFE66666666661C1C0000000000F0FC2D
:1005B0000C060606C6C6000C1C1818181C1CFEFEED
:1005C00060606060FEFE1C1C000000001C1CFEFE43
:1005D0001C1C00000000FEFE181818181C0CFEFE63
:1005E00030F0D88C0602001C1C0000040C1C1810F3
:1005F000FEFE00000000001C1C1818181818E0FE71
:100600001E78E080E0781EFEE01C1C00000C0C044C
:1006100000001C1CFEFE1C38E0C0FEFE1C1C00007E
:10062000000C1C1CF0FC0E0606060EFCF0000C1C58
:100630001818181C0C04FEFEC6C6C67C3C1C1C0008
:1006400000000000F0FC0E0606060EFCF0000C1C7C
:10065000183878DCCC04FEFEC6C6C67C38001C1CEC
:1006600000000C1C18101C3E6666C6C61818181828
:100670001C0C060606FEFE0606060000001C1C00FA
:100680000000FEFE00000000FEFE040C1C18181CFA
:100690000C04063EFCE000E0FC3E060000041C1CCE
:1006A0001C0400000EFEF800E0FC1CFCE000F8FE5C
:1006B0000E00001C1C1C0000001C1C1C000002067C
:1006C0009EF8F0F89E060210181C0400041C181076
:1006D000020E3CF0F03C0E020000001C1C0000006A
:1006E0000686C6F63E1E06181C1C18181818FFFFB2
:1006F0000303FCFCC0C0031FFCE000000000043C3E
:10070000F8C00303FFFFC0C0FCFC20701C061C7077
:10071000200000000000000000000000000000C0F9
:10072000C0C0C0C0C0C00306000000B0B0B0F0E060
:100730000C1C18181C1CFFFF3030F0E01C1C181893
:100740001C0CE0E03030300C1C181818E0F0303091
:10075000FFFF0C1C18181C1CC0F0B0B0F0E00C1C03
:1007600018181818FEFF3333331C1C000000C0F0AB
:100770003030F0F08CDCD8D8FC7CFFFF3030F0E07B
:100780001C1C00001C1CF3F31C1C00F3F3C0FC7CBD
:10079000FFFF80E07030101C1C00041C1810FFFFCD
:1007A000000C1C18F0F03030F0F03030F0E01C1C81
:1007B00000001C1C00001C1CF0F03030F0E01C1C81
:1007C00000001C1CC0E0303030E0C0040C181818C9
:1007D0000C04F0F03030F0E0FCFC18181C0CC0F0F9
:1007E0003030F0F00C1C1818FCFCF0F03030301CED
:1007F0001C000000E0F0B0B0901818181C0CFCFCB5
:100800003030300C1C181818F0F00000F0F00C1C00
:1008100018181C1C30F0C000C0F03000041C181C5C
:10082000040030F0C000E070E000C0F03000001CB8
:10083000180C000C181C0000103070C0C070301074
:1008400010181C0C041C181030F0C000C0F030C090
:10085000CCFC783C040030B0F0F030181C1C1818A8
:10086000C0FEFF03007CFCC0FFFFFCFC03FFFEC0DA
:10087000C0FC7C00C0E060E0C0E060000000000060
:100880000000FF010101FF1C1010101C0808FC8271
:100890008192105438100D170A09206000010305D9
:1008A0000407050103030305020201030402040413
:1008B00004040403040401020404040308050505F8
:1008C00005040404050103050407050604060504E0
:1008D00005050509050504020302050402040403D5
:1008E00004040204040102040207040404040203D1
:1008F0000304030504050303010304035E0003006E
:100900000300000028782E782E0000000000444AE2
:10091000D32200000000044A2418245220000000C2
:10092000000000003C526C6010000000000003005A
:100930007C820100008001827C8000000C060C009B
:10094000000010107C10100000000000804000002B
:1009500010100000400080F01E8000003C42423C2D
:1009600000000000047E00004462524C00000000C1
:10097000424A4A340000000018147E1000000000B3
:10098000404E4A3200000000384C4A32000000005D
:1009900002720E000000344A4A34000000004C523B
:1009A000321C00000000440080440000102828444D
:1009B00000000000282828280000000044282810F3
:1009C0000000000002520C0000007CC23945453D89
:1009D000423C0000808080800000603C223C60003F
:1009E000000000007E4A4A4A3400000000003C42F9
:1009F00042424200000000007E4242423C000000B1
:100A000000007E4A4A42000000007E0A0A020000FE
:100A100000003C424272000000007E0808087E0090
:100A2000000000007E0040403E0000007E081422CE
:100A30004000000000007E404040000000007E04B6
:100A4000182018047E000000000000007E0408301A
:100A50007E00000000003C424242423C0000000098
:100A600000007E12120C000000003C4242C2423CD8
:100A70000000000080007E1212324C0000000000D6
:100A8000444A52220000000002027E0202000000DE
:100A900000003E4040403E00000000000638403864
:100AA00006000000000006384038043840380600D0
:100AB0000000000000000000422418244200000052
:100AC0000000020C700C02000000000062524A4656
:100AD00000000000FF018080031C6000000001FF97
:100AE00080800804020408000000000000000000EC
:100AF00080808080010200002454547800000000AF
:100B00007F4444380000000038444400000038446A
:100B1000447F0000000038545458000000007F0556
:100B20000000384444FC808080007F04047800008A
:100B300000007D0000FD80007F10284400000000C0
:100B40003F4000007C0404780404780000000000AA
:100B500000007C04047800000000384444380000A1
:100B60000000FC44443880000000384444FC00008D
:100B700000807C0400005854340000003E444400CF
:100B800000003C40407C000000000C701C00000095
:100B90001C601C601C000000000044382844000059
:100BA00000000438C03804808000000064544C0009
:100BB000000010EE01000080FF8001EE10800000B8
:100BC00010081008000000007F417F0000000709A6
:100BD00070F88C079EF86000000101010000180AFF
:100BE000FF01FD95956901C1794579C10105FD04B4
:100BF0000105FD0501BD01FF03020202020202021E
:100C000002020202020202020202020202020203C3
:100C10008040FF0101010101010101010101010108
:100C20000181818181810101010101010101010134
:100C30000101010101010101F9F9F9F939393939E4
:100C40000101018181818101010101010101818194
:100C50008181810101010101010101010101010104
:100C600001010101010101018181818181010101F4
:100C700001010181818181010101010101010181E4
:100C800081818101010139393939F9F9F9F9010114
:100C900001FFFF0000000000000000000000000055
:100CA00000FF000024FF0000000000000000000022
:100CB0000000000000000000FFFFFFFF0000000038
:100CC000000000FFFFFFFF80C0E0F0F83E1F1F0F95
:100CD0000703010000000000000000000000000009
:100CE000000080C0F0F8FC7E1FFFFFFFFF00000047
:100CF000000000FFFFFFFF0000000000000000FFF9
:100D0000FFFFFF00000000000000FFFFFFFF0000EA
:100D100000FFFF00000000000000000000000000D5
:100D2000E01F0808091FE0000000000000000000AC
:100D30000000000000000000FFFFFFFF00000000B7
:100D4000000000FFFFFFFF0F1F3F7FFCF8F0E0C037
:100D500080000000001C1C1C1C1C1C1C1C0000F043
:100D6000FCFEFFFFE7E1E0E0E0FFFFFFFFE0E00067
:100D7000000000FFFFFFFFC0000000000000C0FFF8
:100D8000FFFFFF00000000000000FFFFFFFF00006A
:100D900000FFFF0000000000C0C0C0C00000000055
:100DA000000102020201000000808000000000003B
:100DB0000000000000000000FFFFFFFFC0C0C0C037
:100DC0000000001F1F1F1F000000000001030F1F75
:100DD0001F1F1C18000000000000000000000000A1
:100DE0000000000000000000001F1F1F1F00000087
:100DF0000000000003070F1F1F1E1E1E1E1F1F0FD7
:100E0000070300000000C0C0C0C0FFFFFFFF0000DC
:100E100000FFFF0000000000FFFF000000000606CA
:100E20000606FEFE0606060600FFFF303030307074
:100E3000E0C0000080E06030313171E1C10101F1BA
:100E4000F03030303000F0F030303070E0E03030F2
:100E50003070E0C0000080E07030303070E0800022
:100E60000000000000000000000000000000000082
:100E70000000000000000000000000000000000072
:100E8000000000000000010101010101010100005A
:100E900000FFFF0000000000FFFF80800000000056
:100EA00000003F3F00000000003F3F000000000046
:100EB0003F3F00000F1F3B33333333330300003F0A
:100EC0003F00000000003F3F000000003F3F0000E7
:100ED00000003F3F0000071F38303030381F070048
:100EE0000000000000000000E0E000000000000042
:100EF00000000000000000000000000000000000F2
:100F0000000C0CFCFC0000000000000000000000D1
:100F100000FFFF00000000000101010100000000CF
:100F200000000000000000000000000000000000C1
:100F30000000000000000000000000FFFF030303AA
:100F400007FEFE03030307FEFC0000F8FEB6333382
:100F500033373E3C0000E0F31B1B1B1BFEFC000074
:100F60001E1F3333E3E00000FFFF03030303000011
:100F7000FFFF030303030078FE8703030387FE7864
:100F8000000000FFFF000000000000000000000063
:100F900000FFFF80808080808080808080808080D3
:100FA0008080808080808080808080808080808041
:100FB000808080808080808080808083838080802B
:100FC000808383808080808383808080818383830B
:100FD00083838380808080818383838383838080F5
:100FE00083838383838180808183838383838080E1
:100FF00083838080808080808183838383838180DA
:101000008098989F9F808080808080808080808072
:1010100080FF090910927C7CFF7C7C92100000000C
:101020000001000000000909007CFEEE83010100C0
:101030000000000000010101000011241FBECFEFDD
:10104000D0E1DEBFCDBF11E0A0E0B1E0E0EAF1E524
:1010500002C005900D92AA3AB107D9F712E0AAEAA8
:10106000B1E001C01D92A937B107E1F70E94BE1E91
:101070000C94CE280C940000EAE7F0E080818660B2
:101080008083ACE7B0E08C918C938C9180628C93E0
:101090008081806880838081806480830895AAE74E
:1010A000B0E09C919C93ECE7F0E01082908190621C
:1010B00090839081892B80838C91806C8C93EAE75C
:1010C000F0E0808184FFFDCFEAE7F0E0808180617D
:1010D0008083809179000895AAE7B0E09C919C9369
:1010E000ECE7F0E0108290819F7D90839081892BC6
:1010F00080838C91806C8C93EAE7F0E0808184FFA0
:10110000FDCFEAE7F0E08081806180832091780064
:1011100030917900822F932F0895FC0184910895D6
:101120009093AC018093AB017093AE016093AD01DD
:101130004093B20108950F931F93182F8091AB0134
:101140009091AC01E091AD01F091AE01049609954A
:10115000082F8091AB019091AC01E091AD01F0912D
:10116000AE01059609951017D8F0212F30E0402FD9
:1011700050E0BA01680F711D261737079CF4101B49
:10118000812F90E006962091AB013091AC01E09167
:10119000AD01F091AE01820F931F09958F5F03C0DF
:1011A00080E001C080E01F910F910895EF92FF92BF
:1011B0000F931F93CF93DF93FC018081882379F0F5
:1011C0008F010F5F1F4FC0E0D0E00E949B08C80F47
:1011D000D11DF80181918F018823B9F702C0C0E0C9
:1011E000D0E07E018C2F9F2DDF91CF911F910F9129
:1011F000FF90EF9008950F931F93CF93DF93EC012F
:10120000FE012491222379F000E010E02196FC01F8
:1012100084910E949B08080F111DCE01FE012491AC
:101220002223A1F702C000E010E0802F912FDF9170
:10123000CF911F910F910895DF93CF930F92CDB768
:10124000DEB7662319F45A985B9A04C0613011F432
:101250005B985A9A5C985D989FEF94B985B95E9AAD
:10126000000000000000000000000000000000007E
:10127000000000000000000000005E9819828981D3
:101280008E3130F489818F5F898389818E31D0F3EB
:1012900015B80F90CF91DF9108951F9388230CF418
:1012A00080E0603408F060E08093AF016093B001AB
:1012B0006695669566956093B101803418F0805408
:1012C00061E001C060E080640E941C091091B101DE
:1012D000186B812F60E00E941C09812F61E00E9441
:1012E0001C091F9108951F93DF93CF930F92CDB7E1
:1012F000DEB715B814B89091AF01903418F45A982D
:101300005B9A02C05B985A9A9091AF01903431F485
:10131000882321F080E461E00E941C095C9A5D9AB8
:101320005E9A00000000000013B15E981982898166
:10133000883030F489818F5F898389818830D0F348
:101340008FEF84B98091AF016091B0010E944D0987
:101350008091AA0181111095812F0F90CF91DF917B
:101360001F91089581E00E94730980E00E94730933
:101370000895CF92DF92EF92FF920F931F93DF9326
:10138000CF930F92CDB7DEB7082F8091AF0188239E
:101390000CF4AAC0803418F45A985B9A02C05B9887
:1013A0005A9A8091AF01803419F461E00E941C09BF
:1013B0005C9A5D988FEF84B98091B0010F2EF7E0B1
:1013C000FF2EF02DF82209F46BC0EBB00E94B20999
:1013D000EBB89FEF94B910E0CF2CDD24980102C048
:1013E000220F331FFA94E2F7822B9091AA019111F8
:1013F000809585B95E9A00000000000000000000A2
:1014000000000000000000000000000000000000DC
:101410005E98198289818E3130F489818F5F89834A
:1014200089818E31D0F36091B001685F8091AF0106
:101430000E944D090E94B209EBB89FEF94B928E0D1
:1014400030E02C193D0902C0159507952A95E2F761
:10145000082B8091AA018111009505B95E9A0000C0
:10146000000000000000000000000000000000007C
:1014700000000000000000005E98198289818E3112
:1014800030F489818F5F898389818E31D0F3809197
:10149000AF016091B00168508F5F0E944D0923C079
:1014A0008091AA018111009505B95E9A00000000A3
:1014B000000000000000000000000000000000002C
:1014C0000000000000005E98198289818E3130F49E
:1014D00089818F5F898389818E31D0F38091AF01BB
:1014E0008F5F8093AF0115B80F90CF91DF911F915F
:1014F0000F91FF90EF90DF90CF9008952F923F9241
:101500004F925F926F927F928F929F92AF92BF9213
:10151000CF92DF92EF92FF920F931F93DF93CF93BF
:1015200000D000D000D0CDB7DEB7E82E8091AB015F
:101530009091AC01E091AD01F091AE010396099557
:10154000C82E282F277029838091AB019091AC0180
:10155000E091AD01F091AE0104960995182F8091AC
:10156000AB019091AC01E091AD01F091AE01059617
:101570000995A82E3091AF013B838091B0018C83F7
:10158000E11608F4DFC02E2D30E0812F90E08A0DA7
:10159000911D281739070CF0D8C0E11AE1F00F2E81
:1015A000F6E08F2E9924F02D00E010E08091AB0141
:1015B0009091AC01E091AD01F091AE01880D991DC3
:1015C0000995080F111D0894811C911C882D8650C7
:1015D0008E1560F302C000E010E08C2D90E00796BD
:1015E0009595879595958795959587958A83282FC5
:1015F00030E0029FC001039F900D129F900D1124B7
:101600002A2C3324E6E0F0E02E0E3F1E280E391E71
:101610008E2D90E006962091AB013091AC01E091C7
:10162000AD01F091AE01820F931F0995082FFA8149
:10163000FF2309F47EC0482E419455246624772464
:10164000689461F8CF2EDD24002309F449C04101DC
:10165000840C911C9101250D311D3E832D83740155
:1016600053010894A108B1088091AB019091AC019D
:10167000E091AD01F091AE012D813E81820F931F6B
:101680000995182FAC14BD0499F48091AB01909189
:10169000AC01E091AD01F091AE018E0D9F1D099559
:1016A00090E0098002C0959587950A94E2F7182B7F
:1016B0008091B2018F3F21F4812F0E94B90904C0AB
:1016C000812F80950E94B9098D819E8101969E830C
:1016D0008D830894E11CF11C8E2D8819801720F24F
:1016E0008091B2018F3F21F480E00E94B90903C0CC
:1016F0008FEF0E94B9096C147D0444F4E0EBF1E033
:101700006081685F8B810E944D0908C0E0EBF1E0C9
:101710006081F9816F0F8B810E944D090894611CD3
:10172000711C500E400E862D82502A81821708F4BB
:101730008BCF8B818F5F800F6C810E944D0920E0E1
:1017400030E005C021E030E002C021E030E0822F2F
:10175000932F26960FB6F894DEBF0FBECDBFCF9164
:10176000DF911F910F91FF90EF90DF90CF90BF908E
:10177000AF909F908F907F906F905F904F903F9031
:101780002F900895EF92FF920F931F93CF93DF93C3
:10179000EC010091AF01FE012491222331F10F2EC3
:1017A000F0EBEF2EF1E0FF2EF02DFC0124912A301A
:1017B00091F4F70110818091AB019091AC01E0911F
:1017C000AD01F091AE0103960995682F610F802F4E
:1017D0000E944D0904C0FC0184910E947E0A21965A
:1017E000CE01FE012491222301F7DF91CF911F91B9
:1017F0000F91FF90EF900895EF92FF920F931F9338
:10180000CF93DF93EC010091AF018881882301F130
:1018100021960F2EF0EBEF2EF1E0FF2EF02D8A3007
:1018200091F4F70110818091AB019091AC01E091AE
:10183000AD01F091AE0103960995682F610F802FDD
:101840000E944D0902C00E947E0A8991882339F7BF
:10185000DF91CF911F910F91FF90EF9008950F931B
:101860001F93162F042F687F0E944D090E94B20912
:101870000F3F59F4177041E050E09A0102C0220F67
:10188000331F1A95E2F7822B0BC0177021E030E06E
:10189000B90102C0660F771F1A95E2F7609586239B
:1018A0000E94B9091F910F910895AF92BF92CF92F4
:1018B000DF92EF92FF920F931F93CF93DF93C82E87
:1018C000E42EA22EA394462F4770062F041BCA2D88
:1018D000D0E088E090E0841B9109C817D9077CF418
:1018E00088E090E08C1B9D0B2FEF30E0B90102C027
:1018F000759567958A95E2F7D62E1A2D04C018E0E3
:10190000141BDD24DA9401C0DD0C4A95EAF78C2D16
:10191000602F0E944D09FF24BD2CB0940E94B20993
:10192000982F90959D218B21892B0E94B909F394C2
:10193000EF14A0F710C0185F085F8C2D602F0E9475
:101940004D09DF2C0E94B20980950E94B909D394F9
:10195000ED1410F0F7CFFF24812F90E09C01285F59
:101960003F4FC217D3073CF71A1510F5C81BD90B08
:101970008FEF90E09C010C2E02C0220F331F0A94BF
:10198000E2F7B9016095162F602F685F8C2D0E94D9
:101990004D0900E0F12EF0940E94B209982F909525
:1019A00091238F21892B0E94B9090F5FE016A0F7C0
:1019B000DF91CF911F910F91FF90EF90DF90CF902B
:1019C000BF90AF9008951F93182F8091AA0181179F
:1019D00041F080E060E04FE72FE30E94550C109348
:1019E000AA011F9108959F92AF92BF92CF92DF926A
:1019F000EF92FF920F931F93CF93DF93B82ED42EC5
:101A0000E02E922E9394462F4770062F041BC92D6B
:101A1000D0E088E090E0841B9109C817D9077CF4D6
:101A200088E090E08C1B9D0B2FEF30E0B90102C0E5
:101A3000759567958A95E2F7A62E192D04C018E0D2
:101A4000141BAA24AA9401C0AA0C4A95EAF78B2D6C
:101A5000602F0E944D09FF24CA2CC0940E94B20935
:101A60007E2D7F3F11F48A2901C08C210E94B90983
:101A7000F394DF1498F70EC0185F085F8B2D602F6A
:101A80000E944D09CF2C8E2D0E94B909C394DC14FD
:101A900010F0F9CFFF24812F90E09C01285F3F4F89
:101AA000C217D3074CF7191518F5C81BD90B8FEFC0
:101AB00090E09C010C2E02C0220F331F0A94E2F723
:101AC000B9016095F62E602F685F8B2D0E944D093D
:101AD00010E00F2D00950E94B2097E2D7F3F11F47A
:101AE0008F2901C080230E94B9091F5FD11698F782
:101AF000DF91CF911F910F91FF90EF90DF90CF90EA
:101B0000BF90AF909F9008952F923F924F925F9217
:101B10006F927F928F929F92AF92BF92CF92DF92FD
:101B2000EF92FF920F931F93DF93CF93CDB7DEB762
:101B30002B970FB6F894DEBF0FBECDBF8C836D839D
:101B4000488729870B83C02EDD24662477246C18F0
:101B50007D08660C771C83E090E0680E791E302EBD
:101B60009C81390E202E260EE42FE90FEF83E01B17
:101B7000E983822F860F8E83801B8A83F82EBE2EE8
:101B8000A22C932C442455241B861A861C2D022D2E
:101B90000C19892D602F4E2D0E942F0C832C8C1830
:101BA000882D6A2D4E2D0E942F0C8B2D602F4E2DCF
:101BB0000E942F0C09810C0D802F6A2D4E2D0E9442
:101BC0002F0C9A81190F8B2D612F4E2D0E942F0CF7
:101BD000802F6F2D4E2D0E942F0C892D612F4E2DA1
:101BE0000E942F0C882D6F2D4E2D0E942F0C7720D8
:101BF0003CF4E6E0F0E06E0E7F1E640C751C11C034
:101C00008AE090E0680E791E8A859B858C199D0973
:101C1000880F991F880F991F680E791E0894C108B4
:101C2000D108EA85FB853196FB87EA879A94AA94C6
:101C3000B394F39484E090E0480E591ECE16DF066C
:101C40000CF0A4CFFB80F194FF0C18851F0D832DA1
:101C50006D81412F20E00E2D0E94F30C832D6E81AB
:101C6000412F20E00E94F30C19851F0D8C81622DFD
:101C700040E0212F0E94F30C8F81622D40E0212F44
:101C80000E94F30C2B960FB6F894DEBF0FBECDBFAB
:101C9000CF91DF911F910F91FF90EF90DF90CF9048
:101CA000BF90AF909F908F907F906F905F904F907C
:101CB0003F902F900895CF92DF92EF92FF920F9373
:101CC0001F93F82EE62ED42EC22E20E00E94F30C95
:101CD0006C2D6E0D8F2D4D2D20E00E94F30C8F2D5D
:101CE0006E2D40E02C2D0E94F30C8D2D8F0D6E2D4E
:101CF00040E02C2D0E94F30C1F910F91FF90EF906C
:101D0000DF90CF9008952F923F924F925F926F9203
:101D10007F928F929F92AF92BF92CF92DF92EF927B
:101D2000FF920F931F93DF93CF9300D000D0CDB7D6
:101D3000DEB7E82ED62EA42EB22EC02E841769F45C
:101D4000261710F4D22EB62E2B2D2D198E2D6D2D7B
:101D500040E00C2D0E94F30CF4C0621769F44817A0
:101D600010F4E42EA82E4A2D4E198E2D6D2D20E054
:101D70000C2D0E94F30CE5C030E0462F50E08A2D78
:101D800090E08E199109B901641B750B68177907EA
:101D900034F4421B530B481759070CF46BC0AE14B4
:101DA00030F48D2DDB2CB82E8E2DEA2CA82EAE18FB
:101DB0008B2D90E09A8389832D2C33244C0182183B
:101DC0009308AA2DB0E0BC83AB8328EC30E0829E60
:101DD000C001839E900D929E900D1124BD010E9422
:101DE000B3253B01ED2D10E00F2EF8EC4F2E5524BE
:101DF000F02D89819A81281A390A212F30E0269DF9
:101E0000C001279D900D369D900D1124B2010E94B6
:101E1000B325FD2CF60E282F392F2436310514F06A
:101E2000F39405C09FEF2D3939070CF4FA94412F34
:101E30004E0D842F6E2F2F2D0C2D0E94830EAB8103
:101E4000BC818A169B062CF0DB1418F4EF2DEF5F93
:101E50000DC0EB81FC812E163F062CF0BD1428F43A
:101E6000EF2DE15003C0EF2D01C0EF2D1F5FA11634
:101E700020F667C0BD1430F48D2DDB2CB82E8E2DCE
:101E8000EA2CA82EBD18EA2DF0E02E2C33244F01A9
:101E9000821893088B2D90E09A83898328EC30E098
:101EA000829EC001839E900D929E900D11246981A7
:101EB0007A810E94B3253B014E2D10E00F2EF8ECE5
:101EC0004F2E5524F02D2E1A3F0A212F30E0269D4B
:101ED000C001279D900D369D900D1124B2010E94E6
:101EE000B325FE2CF60E282F392F2436310514F099
:101EF000F39405C09FEF2D3939070CF4FA94212F84
:101F00002D0D842F622F4F2D0C2D0E94830EA98141
:101F1000BA818A169B062CF0EA1418F44F2D4F5FF5
:101F20000DC0E981FA812E163F062CF0AE1428F47C
:101F30004F2D415003C04F2D01C04F2D1F5FB116D3
:101F400020F60F900F900F900F90CF91DF911F917F
:101F50000F91FF90EF90DF90CF90BF90AF909F9048
:101F60008F907F906F905F904F903F902F9008954B
:101F70000F93429A1092AF011092B0011092B101EA
:101F80008093AA018FEF8AB98FE360E00E941C0959
:101F90008FE361E00E941C0980EC60E00E941C0954
:101FA00080EC61E00E941C0980E060E04FE72FE3D5
:101FB00000E00E94F30C80E060E00E944D090F9168
:101FC00008951092B90080E38093B80087B1806CC7
:101FD00087B988B18F7388B90895FC0182818230F6
:101FE00051F0883020F480FD08C08EE1089580FF14
:101FF00006C08EE108958CE108958FE108958FE188
:102000000895CF93DF93FC012281438151812330D6
:1020100010F4245F415030E0842F90E0C52FD0E0D1
:102020002196C80FD91FB901660F771FC60FD71F9A
:10203000542F56955695C50FD11D60E971E00E9449
:10204000B325C60FD71F842F64E60E949325C81BB3
:10205000D1092F5F3F4FC901880F991F280F391FE2
:10206000C901880F991F6AE070E00E94B325CE0174
:10207000860F971F67E070E00E94B3258083DF9191
:10208000CF910895813059F0813028F0823059F095
:10209000833091F40CC084EA8093BC000DC084E8C6
:1020A0008093BC0009C084EC8093BC0005C084E927
:1020B0008093BC0080E00895ECEBF0E08081882301
:1020C000ECF78091B900887F08950F931F93CF9309
:1020D000DF9312E3082F007F042B6770062BCBEBF6
:1020E000D0E002C01150A9F080E00E944210883375
:1020F000C9F3883011F0803171F4088381E00E94C7
:102100004210803279F3883369F3883131F08FEFF0
:1021100005C08FEF03C08FEF01C080E0DF91CF914A
:102120001F910F91089583E00E94421008958093BB
:10213000BB0081E00E944210883211F08FEF0895B9
:1021400080E008951F93CF93DF93EC01162F80E07A
:1021500091E00E94DB25112301F18AE091E00E94C9
:10216000DB2582E00E944210182F00D000D0EDB78E
:10217000FEB7319682E191E0ADB7BEB712969C935F
:102180008E931197128313820E94C6250F900F9091
:102190000F900F90103559F405C081E00E94421055
:1021A000883539F48091BB00888380E003C08FEFCD
:1021B00001C08FEFDF91CF911F9108956AE00E94D7
:1021C00093258295807F890F0895982F92959F700F
:1021D000990F292F220F220F920F8F70890F0895C8
:1021E000DF92EF92FF920F931F93DF93CF930F92A3
:1021F000CDB7DEB77C0180ED90E060E070E040E0BC
:102200000E94651080E00E9497100E94931080ED5C
:1022100090E060E070E041E00E9465108E010F5F89
:102220001F4FC80161E00E94A210D9808D2D8F77C9
:102230000E94E510D7018C938D2D8795882787956F
:102240008D190E94E51000D000D0EDB7FEB7319691
:1022500023E231E0ADB7BEB712963C932E931197AF
:10226000828313820E94C6250F900F900F900F90CB
:10227000C80161E00E94A21089810E94E510F70167
:10228000818300D000D0EDB7FEB7319621E331E075
:10229000ADB7BEB712963C932E93119782831382EB
:1022A0000E94C6250F900F900F900F90C80161E01B
:1022B0000E94A2108981282F30E086FF17C091E08C
:1022C0009093B301207230703595279535952795F9
:1022D0003595279535952795359527952093B40104
:1022E0008F710E94E510F70182830AC01092B3013A
:1022F0001092B4018F730E94E510D70112968C934F
:102300008E010F5F1F4FC80161E00E94A2108981FA
:102310000E94E510F7018383C80161E00E94A210CA
:1023200089810E94E510D70114968C93C80161E061
:102330000E94A21089810E94E510F7018583C801DF
:1023400060E00E94A21089810E94E510D7011696D4
:102350008C930E9493100F90CF91DF911F910F915A
:10236000FF90EF90DF900895CF92DF92FF920F934E
:102370001F93DF93CF93CDB7DEB727970FB6F894AF
:10238000DEBF0FBECDBFFC01908181818A83828137
:102390008B8383818C8384818D8385818E838681E9
:1023A0008F83A3ECB1E087E001900D928150E1F7BB
:1023B0009F77998380ED90E060E070E040E00E94BC
:1023C000651080E00E949710FF24F39400E010E075
:1023D0006E010894C11CD11C03C00F5F1F4FF39402
:1023E0000230A1F48B810E94DE109091B3019923F9
:1023F00049F080649091B401992311F0806203C088
:102400008F7D01C08F7B0E949710E7CFF601E00F10
:10241000F11D80810E94DE100E9497108F2D873061
:10242000E0F20E94931027960FB6F894DEBF0FBE1D
:10243000CDBFCF91DF911F910F91FF90DF90CF9093
:1024400008958A3090F090E39F5F8A508A30E0F7D9
:1024500020E320933F01903311F090933F01805D82
:10246000809340018FE391E0089590E390933F01C2
:10247000F6CF429880913602909137028D7F9093EB
:102480003702809336022AB181E090E0AC0102C0AD
:10249000440F551F2A95E2F79A012C672AB92BB1F0
:1024A0003AB102C0880F991F3A95E2F78C67809580
:1024B00082238BB98FEF84B915B80895CF93DF933A
:1024C0008091160284FF15C0C4E2D2E080913802E8
:1024D00064E1681BCE010E94CE20CE010E94D22072
:1024E00080911602909117028F7E9093170280932D
:1024F0001602DF91CF9108954F925F926F927F9273
:102500009F92AF92BF92CF92DF92EF92FF920F9382
:102510001F93CF93DF93082FA62E7A010894E11C16
:10252000F11CFA01C490F7019490992049F10894A4
:10253000E11CF11CBB24662477244C2C4A945524BE
:102540000894411C511C19C0E301DB2CDA0CF70183
:10255000EC0FFD1F14919E01200F822F6D2D0E9404
:102560004D09812F0E94B9092196CC1580F3E40C06
:10257000F51C98E0B90EB91418F4CC2029F7F9CF5E
:10258000DF91CF911F910F91FF90EF90DF90CF904F
:10259000BF90AF909F907F906F905F904F90089505
:1025A000CF93DF938091160283FF13C0CDE2D2E078
:1025B000CE01609115020E94CE20CE010E94D22051
:1025C0008091160290911702877F90931702809353
:1025D0001602809116029091170282FF0BC08B7F2A
:1025E000909317028093160280E069E04EED5BE065
:1025F0000E947C12DF91CF9108954F925F926F926B
:102600007F929F92AF92BF92CF92DF92EF92FF9212
:102610000F931F93CF93DF93082FA62E7A01089470
:10262000E11CF11CFA01C490F7019490992051F13A
:102630000894E11CF11CBB24662477244C2C4A949A
:1026400055240894411C511C1AC0E301DB2CDA0C00
:10265000F701EC0FFD1F14919E01200F822F6D2DAD
:102660000E944D09812F80950E94B9092196CC15B1
:1026700078F3E40CF51C98E0B90EB91418F4CC20EA
:1026800021F7F9CFDF91CF911F910F91FF90EF903C
:10269000DF90CF90BF90AF909F907F906F905F90B2
:1026A0004F9008950F931F93DF93CF93CDB7DEB76D
:1026B00027970FB6F894DEBF0FBECDBF80E00E9413
:1026C000B80F809136029091370282609093370262
:1026D000809336021A82198289819A812AE3883985
:1026E000920758F489819A8101969A838983898116
:1026F0009A81AAE388399A07A8F300E11CE080E0F8
:1027000060E0A8010E94FD128FEF94E3ACE08150DD
:102710009040A040E1F700C0000080E060E0A80128
:102720000E947C128FEF98E0ADE381509040A04072
:10273000E1F700C0000080E060E04FE72FE300E039
:102740000E94F30C8091150290E060E071E049E096
:102750000E94B2202B833C834D835E836F83ADE266
:10276000B2E0FE01339685E001900D928150E1F7D1
:102770002091380284E190E0821B910964E170E0CD
:102780004FE30E94B2202B833C834D835E836F8393
:10279000A4E2B2E0FE01339685E001900D928150F3
:1027A000E1F78DE292E00E94D22084E292E00E9462
:1027B000D22027960FB6F894DEBF0FBECDBFCF91C3
:1027C000DF911F910F910895EF92FF920F931F9346
:1027D000CF93DF93809116029091170285FF56C028
:1027E0008F7D909317028093160286E998E06DE83A
:1027F00078E04FEF0E9490088FE560E043E227E029
:1028000000E00E94F30C8FE560E00E944D090F2E5E
:10281000F5ECEF2EF1E0FF2EF02D8091C5011AE0CE
:10282000612F0E949325805D0E947E0A8091C501E0
:10283000612F0E949325892F805D0E947E0A8AE382
:102840000E947E0AE7018A91612F0E949325805D94
:102850000E947E0A8881612F0E949325892F805DC6
:102860000E947E0A8AE30E947E0AE70122978881FD
:10287000612F0E949325805D0E947E0A8881612FCE
:102880000E949325892F805D0E947E0ADF91CF915F
:102890001F910F91FF90EF9008950F931F938091D8
:1028A00016029091170286FF51C08F7B90931702FA
:1028B0008093160286E998E06DE878E04FEF0E9479
:1028C000900883E060E048E227E000E00E94F30C1B
:1028D00083E060E00E944D098091C7011AE0612FFA
:1028E0000E949325805D0E947E0A8091C701612F1E
:1028F0000E949325892F805D0E947E0A8DE20E94AE
:102900007E0A8091C801612F0E949325805D0E94FC
:102910007E0A8091C801612F0E949325892F805DD6
:102920000E947E0A8DE20E947E0A8091C901612F79
:102930000E949325805D0E947E0A8091C901612FCB
:102940000E949325892F805D0E947E0A1F910F911E
:1029500008950F930E94E4130E944D1480E068E0F4
:1029600040E820E00FEF0E94F30C0E94D0120F917C
:102970000895FC0180816181428123810E94550C70
:1029800008950F93CF93DF93EC01888169814A8189
:102990002B810FEF0E945B0E88812981622F695F76
:1029A000482F475F2D5F8B5F0E94830E88812981AE
:1029B000622F695F482F475F2D5F835F0E94830E00
:1029C000DF91CF910F9108950F93CF93DF93EC0197
:1029D000888169814A812B810FEF0E945B0E88817B
:1029E0002981622F6D5F482F475F295F8B5F0E94AF
:1029F000830E88812981622F6D5F482F475F295F91
:102A0000835F0E94830EDF91CF910F9108951F93F2
:102A1000182F8A3038F06AE00E949325805D0E946A
:102A20007E0A03C080E30E947E0A812F6AE00E9432
:102A30009325892F805D0E947E0A1F910895AF9291
:102A4000BF92CF92DF92EF92FF920F931F93CF939B
:102A5000DF938091160287FF68C1CDE8D8E086E950
:102A600098E0BE014FEF0E9490088091160290916D
:102A700017028F77909317028093160283E066E027
:102A800049E723E300E00E94F30C84E067E047E7B6
:102A900021E30FEF0E945B0E8BE06AE10E944D097B
:102AA000E0912002F0E0EE0FFF1FE758FE4F80811B
:102AB00091810E94FC0B89E068E14FE02FE00E94C9
:102AC0005B0E80E893E0BE014FEF0E94900880E229
:102AD0006AE10E944D09809121020E9407158DE153
:102AE00068E143E12FE00E945B0E83E368E143E38A
:102AF0002EE10E94830E82E36FE142E327E20E940F
:102B0000830E88E36AE10E944D09809122020E94AF
:102B1000071585E368E143E12FE00E945B0E80E545
:102B20006AE10E944D0980911F020E9407158DE401
:102B300068E143E12FE00E945B0E83E66DE14FEF19
:102B40000E942F0C82E66DE14FEF0E942F0C83E66E
:102B50006EE14FEF0E942F0C82E66EE14FEF0E9474
:102B60002F0C83E661E24FEF0E942F0C82E661E2B8
:102B70004FEF0E942F0C83E662E24FEF0E942F0C72
:102B800082E662E24FEF0E942F0C88E66AE10E9423
:102B90004D0980911E020E94071585E668E143E118
:102BA0002FE00E945B0E89E06BE04FE02AE00E947C
:102BB0005B0E0F2EF9E0EF2EF02DE092FA010F2EB2
:102BC000FBE0FF2EF02DF092FB010F2EFFE0DF2E39
:102BD000F02DD092FC011AE01093FD018EE06EE022
:102BE00042E122E10E94830E8091FA012091FB01D3
:102BF000622F6D5F482F4B5F295F875F0E94830EB6
:102C000089E06AE24FE02AE00E945B0EE092BF0199
:102C10000F2EFAE2EF2EF02DE092C001D092C1010A
:102C20001093C2018DE06FE24FE021E30E94830E1A
:102C30008091BF012091C001622F695F482F465FDC
:102C40002D5F8A5F0E94830E0F2EFDE1DF2EF02D97
:102C5000D0923202F092330203E1009334021093D7
:102C6000350282E392E00E94C1140F2EF5E3CF2ECD
:102C7000F02DC092ED01F092EE010093EF01109360
:102C8000F0018DEE91E00E94C1140F2EFDE4BF2EE5
:102C9000F02DB0923D02F0923E0200933F0210935D
:102CA00040028DE392E00E94C1140F2EF5E6AF2E94
:102CB000F02DA0920D02F0920E0200930F021093DD
:102CC00010028DE092E00E94C114D092E901E092DE
:102CD000EA010093EB011093EC0189EE91E00E9470
:102CE000E414C092E101E092E2010093E301109349
:102CF000E40181EE91E00E94E414B092F601E092CA
:102D0000F7010093F8011093F90186EF91E00E941A
:102D1000E414A0922902E0922A0200932B0210935D
:102D20002C0289E292E00E94E414DF91CF911F917E
:102D30000F91FF90EF90DF90CF90BF90AF900895EC
:102D40000F931F93182F809116029091170291FFF5
:102D500092C09D7F909317028093160280E564E2F3
:102D60004CE028E000E00E94F30C80E464E24CE0D8
:102D700028E00E94F30C80E664E24CE028E00E9428
:102D8000F30C80E764E24CE028E00E94F30C80E55D
:102D900064E24CE028E00FEF0E945B0E80E464E206
:102DA0004CE028E00E945B0E80E664E24CE028E004
:102DB0000E945B0E80E764E24CE028E00E945B0E1C
:102DC00084E468E248E428E20E94830E84E568E235
:102DD00048E528E20E94830E86E566E246E52AE29F
:102DE0000E94830E8091360285FF15C081E66BE25A
:102DF0004AE022E000E00E94F30C84E669E246E645
:102E000027E20FEF0E94830E88E669E246E627E29A
:102E10000E94830E0DC084E667E246E629E20FEFCA
:102E20000E94830E88E667E246E629E20E94830E4E
:102E3000113039F480E564E24CE028E00E94550C42
:102E40001AC0123039F480E464E24CE028E00E94B9
:102E5000550C11C0133039F480E664E24CE028E0F0
:102E60000E94550C08C0143031F480E764E24CE055
:102E700028E00E94550C1F910F910895EF92FF9248
:102E80000F931F93809116029091170293FF84C0B5
:102E9000977F90931702809316028CE06FE042E3D5
:102EA00024E100E00E94F30C8CE06FE00E944D09E9
:102EB00088E990E06DE878E04FEF0E949008E0909C
:102EC000CA01F090CB010091CC011091CD01C80155
:102ED000B70120E030E040E251E40E942C25882335
:102EE000A4F0C801B70120E030E040E251E40E94C4
:102EF000E62320E030E040E452E40E947E230E947A
:102F00004E24862F0E947E0A03C080E30E947E0A20
:102F10006091CA017091CB018091CC019091CD015B
:102F20000E944E24862F1AE0612F0E949325892F3C
:102F3000805D0E947E0A8EE20E947E0A6091CA0134
:102F40007091CB018091CC019091CD0120E030E0D7
:102F500040E251E40E9430250E944E24862F612FCA
:102F60000E949325892F805D0E947E0A88E36CE091
:102F700046E026E003E0EE24EA940E94840D89E313
:102F80006DE044E024E002E00E94840D82E068E10C
:102F900046E753E00E947C1280911602909117023E
:102FA00094FF93C09F7E90931702809316028CE04B
:102FB0006CE24EE120E100E00E94F30C8CE06CE258
:102FC0000E944D0980E893E06DE878E04FEF0E94A1
:102FD00090086091FE017091FF0180910002909134
:102FE000010220E030E0A9010E94E223882324F4BA
:102FF0008DE20E947E0A03C08BE20E947E0AE0906E
:10300000FE01F090FF010091000210910102C80141
:10301000B70120E030E040E251E40E942C258823F3
:10302000A4F0C801B70120E030E040E251E40E9482
:10303000E62320E030E040E452E40E947E230E9438
:103040004E24862F0E947E0A03C080E30E947E0ADF
:103050006091FE017091FF01809100029091010248
:103060000E944E24862F1AE0612F0E949325892FFB
:10307000805D0E947E0A8EE20E947E0A6091FE01BF
:103080007091FF01809100029091010220E030E0F8
:1030900040E251E40E9430250E944E24862F612F89
:1030A0000E949325892F805D0E947E0A8DE26AE24C
:1030B00044E024E002E0EE24EA940E94840D82E0E1
:1030C0006FE24CE858E00E947C12809116029091C9
:1030D000170290FF67C09E7F90931702809316029D
:1030E00080E893E06DE878E04FEF0E94900882E47A
:1030F00064E148E12EE000E00E94F30C82E464E128
:103100000E944D096091D9017091DA018091DB0133
:103110009091DC0120E030E040E251E40E94E6239F
:1031200020E030E040E452E40E947E230E944E24DE
:10313000862F0E947E0A6091D9017091DA018091F8
:10314000DB019091DC010E944E24862F1AE0612F52
:103150000E949325892F805D0E947E0A8EE20E9444
:103160007E0A6091D9017091DA018091DB01909122
:10317000DC0120E030E040E251E40E9430250E9472
:103180004E24862F612F0E949325892F805D0E94F7
:103190007E0A8CE562E144E024E002E0EE24EA9459
:1031A0000E94840D1F910F91FF90EF9008950F934F
:1031B000809116029091170281FF3AC08D7F909303
:1031C00017028093160280E46DE24CE22CE000E0EE
:1031D0000E94F30C80E46DE24CE22CE00FEF0E94C1
:1031E0005B0E81E66BE24AE022E000E00E94F30C15
:1031F00083E46FE240E750E00E947C128FE46FE2CC
:1032000044E850E00E947C1283E48093E5019FE251
:103210009093E60189E08093E7018093E8012FE431
:103220002093F2019093F3018093F4018093F501D0
:103230000F9108950F9380E46DE24CE22CE000E0E2
:103240000E94F30C0F9108950F93809116029091B4
:10325000170292FF16C09B7F90931702809316026D
:1032600082E665E149E029E000E00E94F30CE0918C
:103270004102F09142024081518182E665E10E9463
:103280007C120F9108950F9386E998E06DE878E03D
:103290004FEF0E949008809116029091170295FFBF
:1032A0000CC09F7D909317028093160280E060E02F
:1032B0004FE72FE300E00E94F30C809136029091DB
:1032C000370290FD32C00E94A9140E943E170E944E
:1032D00024190E945E12809116029091170280FFBD
:1032E0000BC08E7F909317028093160288E765E3E8
:1032F0004EEC5BE00E947C128091160290911702C6
:1033000096FF0CC09F7B909317028093160288E76C
:1033100065E347E029E000E00E94F30C8091180289
:103320000E94A0160E94D71802C00E941F1580E4B8
:103330008093430224E2209344029CE09093450250
:1033400088E08093460230E53093190220931A02F8
:1033500090931B0280931C0230E63093BB012093B4
:10336000BC019093BD018093BE0130E73093110200
:103370002093120290931302809314020F910895E8
:10338000DF93CF9300D0CDB7DEB7429A809136025B
:1033900090913702826090933702809336021A82AE
:1033A000198289819A812AE38839920758F48981A0
:1033B0009A8101969A83898389819A812AE388393F
:1033C0009207A8F380E00E94B80F0E9443190F9063
:1033D0000F90CF91DF910895FC01DB0120814C918A
:1033E0002417E8F030E012968C91129790E0840F49
:1033F000911D82179307ACF0418111968C91119722
:10340000481788F050E013962C91139730E0280F5E
:10341000311D81E0241735073CF480E0089580E0F9
:10342000089580E0089580E00895FC01DB0120818B
:1034300030E08C9190E0AC0142505040421753076D
:103440004CF4AC014E5F5F4F81E0241735071CF44C
:1034500080E001C081E0218130E011964C9111970C
:1034600050E0BA0162507040621773072CF44E5F4F
:103470005F4F241735070CF08260228112969C91D1
:103480001297291384600895DF92EF92FF920F93B1
:103490001F93DF93CF9300D00F92CDB7DEB781B1EA
:1034A000807F81B981B1856081B982B1807F82B925
:1034B000129A81E00E944F08182F83E00E944F0863
:1034C000E82E612F665170E0882777FD8095982F50
:1034D0000E947C2420E030E048EC5FE30E94E62379
:1034E0000E944E24F62E81B1807F81B981B18A601D
:1034F00081B982B1807F82B9139A80E00E944F081F
:10350000082F009582E00E944F08D82E602F685245
:1035100070E0882777FD8095982F0E947C2420E01A
:1035200030E041E350E40E94E6230E944E24762FCF
:103530001E1531F4D09481E00D1519F080E001C022
:1035400080E06F2D90E00F900F900F90CF91DF9162
:103550001F910F91FF90EF90DF900895EF92FF92EF
:103560000F931F93DF93CF9300D00F92CDB7DEB7A9
:103570008091360281FF6FC30E94441A69837A8367
:103580008B83A5EBB1E0FE01319683E001900D92B3
:103590008150E1F785EB91E068EB71E00E94151A2C
:1035A000882309F431C382FF26C38091B7018823A1
:1035B00009F414C3009136021091370210FD07C1BF
:1035C00085EB91E063E472E00E94EC19882319F125
:1035D00082E0809318028091160290911702926007
:1035E00090931702809316026091D9017091DA01CD
:1035F0008091DB019091DC0120E030E040E05FE36E
:103600000E947D236093D9017093DA018093DB01DE
:103610009093DC0173C085EB91E069E172E00E9458
:10362000EC19882319F181E0809318028091160229
:103630009091170292609093170280931602609106
:10364000D9017091DA018091DB019091DC0120E0D9
:1036500030E040E05FE30E947E236093D9017093E5
:10366000DA018093DB019093DC0148C085EB91E0A7
:103670006BEB71E00E94EC19882331F183E08093B9
:1036800018028091160290911702826092609093C6
:1036900017028093160205FF0CC00E941A19809130
:1036A0003602909137028F7D9093370280933602D5
:1036B00025C08260909317028093160200621093D7
:1036C0003702009336021AC085EB91E061E172E0A7
:1036D0000E94EC19882391F084E080931802809175
:1036E000160290911702806892609093170280935F
:1036F00016021160109337020093360200913602D1
:103700001091370205FF75C285EB91E065EE71E01F
:103710000E94EC19882359F182E591E090934202CE
:10372000809341028091540190915501A0915601DE
:10373000B09157018093D9019093DA01A093DB01F6
:10374000B093DC010E941A198091360290913702E1
:103750008F7D90933702809336028091160290916C
:1037600017029460909317028093160242C285EB71
:1037700091E062EF71E00E94EC19882309F439C2EC
:103780008BE591E0909342028093410280915D012C
:1037900090915E01A0915F01B09160018093D90189
:1037A0009093DA01A093DB01B093DC010F7D1093BD
:1037B0003702009336020E941A19809116029091E6
:1037C00017029460909317028093160212C285EB41
:1037D00091E06AEF71E00E94EC19882381F01C7F70
:1037E00010933702009336028091160290911702CF
:1037F00088679F639093170280931602FAC185EB46
:1038000091E06FEB71E00E94EC19882389F012605F
:103810001E7F10933702009336028091160290911A
:10382000170288679F639093170280931602E1C185
:1038300085EB91E062E372E00E94EC19882369F164
:1038400080911602909117028068909317028093DE
:103850001602809121028F5F8093210280E292E024
:103860000E94ED0F90912102891790F481E08093DE
:103870002102809122028F5F809322028D3041F4D9
:10388000809123028F5F8093230281E08093220244
:1038900080E292E00E940110ACC185EB91E069EEFC
:1038A00071E00E94EC19882351F1809116029091E9
:1038B000170280689093170280931602809121026C
:1038C0008150809321028823A9F4809122028150A3
:1038D00080932202882341F48091230281508093B7
:1038E00023028CE08093220280E292E00E94ED0F9E
:1038F0008093210280E292E00E9401107AC185EB60
:1039000091E06DEE71E00E94EC19882341F1809105
:103910001602909117028068909317028093160206
:10392000809122028F5F809322028D3041F480913A
:1039300023028F5F8093230281E08093220280E242
:1039400092E00E94ED0F90912102891708F051C179
:1039500080E292E00E94ED0F809321024AC185EB44
:1039600091E061EE71E00E94EC19882341F18091B1
:1039700016029091170280689093170280931602A6
:1039800080912202815080932202882341F4809109
:1039900023028150809323028CE08093220280E2F4
:1039A00092E00E94ED0F90912102891708F021C149
:1039B00080E292E00E94ED0F809321021AC185EB14
:1039C00091E06DE372E00E94EC198823B9F18091D7
:1039D0001602909117028068909317028093160246
:1039E00080911F028F5F80931F02883109F001C10F
:1039F00010921F02809121028F5F8093210280E24A
:103A000092E00E94ED0F90912102891790F481E0DD
:103A100080932102809122028F5F809322028D3059
:103A200041F4809123028F5F8093230281E0809391
:103A3000220280E292E00E940110DBC085EB91E05F
:103A400066EF71E00E94EC198823A9F180911602BB
:103A500090911702806890931702809316028091CC
:103A60001F02882321F587E180931F0280912102A4
:103A70008150809321028823A9F4809122028150F1
:103A800080932202882341F4809123028150809305
:103A900023028CE08093220280E292E00E94ED0FEC
:103AA0008093210280E292E00E940110A2C0815026
:103AB00080931F029EC085EB91E06DE072E00E9452
:103AC000EC19882309F441C08091160290911702E5
:103AD0008068909317028093160280911E028F5F78
:103AE00080931E028C3309F084C010921E028091D4
:103AF0001F028F5F80931F02883109F07AC01092F5
:103B00001F02809121028F5F8093210280E292E068
:103B10000E94ED0F90912102891790F481E080932B
:103B20002102809122028F5F809322028D3041F426
:103B3000809123028F5F8093230281E08093220291
:103B400080E292E00E94011054C085EB91E069E2AE
:103B500072E00E94EC19882309F44BC08091160290
:103B600090911702806890931702809316028091BB
:103B70001E02882379F58BE380931E0280911F0239
:103B8000882321F587E180931F02809121028150D3
:103B9000809321028823A9F480912202815080938E
:103BA0002202882341F480912302815080932302D2
:103BB0008CE08093220280E292E00E94ED0F8093DD
:103BC000210280E292E00E94011013C08150809394
:103BD0001F020FC0815080931E020BC080911602FD
:103BE00090911702926090931702809316021092A0
:103BF000180210923802A8EBB1E0E5EBF1E083E0A7
:103C000001900D928150E1F7E090D901F090DA0136
:103C10000091DB011091DC016091DD017091DE010A
:103C20008091DF019091E001A80197010E94E223B9
:103C3000882389F0E092DD01F092DE010093DF013C
:103C40001093E00180911602909117029160909379
:103C50001702809316020F900F900F90CF91DF9173
:103C60001F910F91FF90EF90089587B1877C87B9DE
:103C700088B1886388B93A9A429887B1806C87B9CD
:103C800088B18F7388B90C9A1498E8E6F0E08081C7
:103C900084608083EDE6F0E0808188608083089511
:103CA0008091360281FF47C0349921C082E591E0BE
:103CB000909342028093410280915401909155016A
:103CC000A0915601B09157018093D9019093DA01E8
:103CD000A093DB01B093DC01809116029091170252
:103CE00094609093170280931602109238023599CF
:103CF00023C08BE591E09093420280934102809132
:103D00005D0190915E01A0915F01B091600180938F
:103D1000D9019093DA01A093DB01B093DC0180918B
:103D200016029091170294609093170280931602E6
:103D300010923802089586B108951F920F920FB61F
:103D40000F9211248F939F938091360290913702A6
:103D500081FD08C09460909337028093360283B748
:103D60008E7F83BF149B02C0149801C0149A9F9148
:103D70008F910F900FBE0F901F9018956F927F92AA
:103D80008F929F92AF92BF92CF92DF92EF92FF926B
:103D90000F931F93CF93DF9382E591E090934202BC
:103DA000809341020E9483218FEF8093B3000E9491
:103DB0003C080E94351E0E9452130E942D230E942F
:103DC000F6200E94E10F0E949421789482E491E011
:103DD0000E94DB25809116029091170288679F61EF
:103DE00090931702809316028091360290913702C9
:103DF0008260909337028093360283EC91E00E94B8
:103E0000F0108AEC91E00E943E218EEF91E00E943A
:103E10003E210E944319469A87EA91E60197F1F7FD
:103E200000C000004698809116029091170290649D
:103E300090931702809316028BE08093210282E018
:103E4000809322028DE08093230283E180931F02FE
:103E500084E180931E0280E292E00E9401100E94A1
:103E60004319E4E6F0E08081806280838081846091
:103E7000808383B7817F8C6083BF0F2EF3EC6F2E1E
:103E8000F1E07F2EF02DC4E6D0E00F2EFAEC8F2E5D
:103E9000F1E09F2EF02D809136029091370281FF44
:103EA00017C00E94501E0E94AE1A0E9443198091B2
:103EB000360287FF37C0C3010E94F010809136029E
:103EC000909137028F7790933702809336022AC001
:103ED00092FF28C00E94C01920911602309117024B
:103EE00028673F61309317022093160280913602B3
:103EF0009091370280FF05C0216030931702209314
:103F000016021092380282689B7F9093370280934A
:103F1000360288818F77888388818F7B8883888128
:103F20008E7F88830E94A721F401E080F1800281C6
:103F30001381A090D901B090DA01C090DB01D0903C
:103F4000DC01C601B50120E030E040E05FE30E9403
:103F50007D239B01AC01C801B7010E94E223181622
:103F6000FCF0809136029091370280FD19C086FDE9
:103F700017C081609093370280933602479A87EA90
:103F800091E60197F1F700C0000047988091160272
:103F900090911702816090931702809316027BCF55
:103FA000C801B701A60195010E942C2588230CF4B5
:103FB00072CF809136029091370280FF6CCF8E7F56
:103FC0009093370280933602469AE7EAF1E63197FA
:103FD000F1F700C0000046988091160290911702F8
:103FE0009064909317028093160255CFFC01A2852E
:103FF000B3859C91868589230895FC01A085B185B0
:104000009C918685892B8C93A485B5859C9186850A
:10401000892B8C930895FC01A485B5859C91868598
:10402000809589238C93A085B1859C918685809508
:1040300089238C9308950F931F93CF93DF93EC0103
:10404000E885F98590818E85809589238083EC852C
:10405000FD8590818E85892B80838FE599E001977E
:10406000F1F700C000001FB7F894EC85FD85908142
:104070008E858095892380838FE391E00197F1F706
:1040800000C00000CE010E94F61F082F1FBF8FE165
:1040900098E00197F1F700C00000CE010E94F61FE2
:1040A000882309F401E0802FDF91CF911F910F91B8
:1040B00008950F931F93CF93DF93EC01162F117088
:1040C0000FB7F894EC85FD8590818E85892B8083D0
:1040D0008DE08A95F1F70000112339F0EC85FD851C
:1040E00090818E8580958923808396E59A95F1F756
:1040F00000C0CE010E94F61F882309F410E086ED6F
:1041000090E00197F1F700C00000EC85FD859081FB
:104110008E858095892380830FBF92E49A95F1F76D
:1041200000C0812FDF91CF911F910F9108950F93C0
:104130001F93CF93DF93EC01162F08E0612F61707E
:10414000CE010E9459201695811110680150B1F7D7
:10415000812FDF91CF911F910F9108956FEF0E94F2
:1041600097200895DF93CF9300D000D00F92CDB762
:10417000DEB7E42F89839A836B837C83282F392FC2
:10418000462F572F6E2F70E080E090E00F900F9039
:104190000F900F900F90CF91DF910895FC016083F5
:1041A000118208950F931F93CF93DF93EC018881C1
:1041B00099819695982F8827979587956A817B8115
:1041C0000E949F25162F80E06C8140E820E000E0EF
:1041D0000E94F30C80E06C81412F20E00FEF0E94E1
:1041E000F30CDF91CF911F910F91089580E090E043
:1041F000DC018093CA019093CB01A093CC01B093D2
:10420000CD018093CE019093CF01A093D001B093C4
:10421000D10120E42093D80161E270E07093D701CE
:104220006093D60140E250E05093D5014093D40111
:1042300022E230E03093D3012093D2018093FE013B
:104240009093FF01A0930002B093010280930202B9
:1042500090930302A0930402B093050280E8809338
:104260000C0270930B0260930A0250930902409370
:104270000802309307022093060208951F93CF93FC
:10428000DF93EC01EAE7F0E080818083CE010E94B9
:104290001B20CE016CEC0E949720CE0164E40E94AA
:1042A0009720CE010E94AE208823D9F3CE010E9430
:1042B0001B20CE016CEC0E949720CE016EEB0E9479
:1042C0009720CE010E94AE20182FCE010E94AE2072
:1042D000382F20E0612F70E0262B372BB90188277B
:1042E00077FD8095982F0E947C2420E030E040E804
:1042F0005DE30E943025688379838A839B83DF9105
:10430000CF911F910895E0EBF0E080818068808379
:10431000808181608083E1EBF0E080818160808337
:104320001092B300579A08958CE38093840086EF2F
:104330008093850082E080938100EFE6F0E0808149
:104340008160808387E891E00E94DB250895EF92E9
:10435000FF920F931F93409136025091370244FF12
:10436000C6C09A012F7E3093370220933602E09127
:10437000C301EF5FE093C30141FF09C04091160202
:1043800050911702406250931702409316028E2FED
:104390006AE00E949325992329F42068309337021C
:1043A000209336028E2F64E10E949325992309F011
:1043B00062C08AEC91E00E943E21E090CA01F09038
:1043C000CB010091CC011091CD016091CE01709193
:1043D000CF018091D0019091D101A80197010E9455
:1043E000E2238823B9F0809136029091370290FD44
:1043F00009C080911602909117029860909317025D
:1044000080931602E092CE01F092CF010093D0018A
:104410001093D1018EEF91E00E943E21E090FE01C9
:10442000F090FF01009100021091010260910202E0
:10443000709103028091040290910502A8019701F6
:104440000E94E2238823B9F08091360290913702CE
:1044500090FD09C08091160290911702906190938F
:10446000170280931602E0920202F0920302009378
:1044700004021093050285E00E944F088093150204
:10448000282F30E04091F10150E0BA0162507040B5
:10449000621773072CF44E5F5F4F241735073CF10A
:1044A0002091160230911702286030931702209352
:1044B00016028093F1018431D0F4809136029091FC
:1044C000370286FD14C080649093370280933602D1
:1044D000469A87EA91E60197F1F700C000004698F6
:1044E000C9018460906490931702809316028091B2
:1044F00036029091370283FF05C0877F9093370281
:1045000080933602809136029091370282FF2FC04D
:104510009C012B7F309337022093360281FF27C006
:10452000209138022F5F2093380284EF289F802D3E
:10453000112480518093B30080911602909117024C
:1045400080619093170280931602243181F40E94B7
:104550003912E4E6F0E080818068808380818064A5
:10456000808380818160808383B7816083BF1F9156
:104570000F91FF90EF9008951F920F920FB60F9238
:1045800011245F936F937F938F939F93AF93BF9308
:104590008CE38093840086EF8093850080914702AE
:1045A000909148020196909348028093470280912F
:1045B00047029091480264E670E00E949F250097B0
:1045C00049F48091360290913702886090933702C7
:1045D00080933602809147029091480264EF71E027
:1045E0000E949F25009749F48091360290913702EE
:1045F00084609093370280933602809147029091B5
:10460000480268EE73E00E949F25009769F480914C
:104610003602909137028061909337028093360280
:104620001092480210924702BF91AF919F918F91D3
:104630007F916F915F910F900FBE0F901F90189513
:10464000E0ECF0E0908195FFFDCF8093C60080E024
:1046500090E0089580E090E0089580E48093C400A5
:1046600088E08093C1008CE991E090937802809378
:10467000770290937602809375020895E0ECF0E063
:10468000908195FFFDCF8093C600089580917102BF
:10469000089590E020917102309172028217930781
:1046A00021F41092720210927102875B9D4FFC01FF
:1046B000808108951F920F920FB60F9211242F93AD
:1046C0008F939F93EF93FF93809171029091720269
:1046D000019690937202809371022091C600875BCD
:1046E0009D4FFC012083FF91EF919F918F912F911E
:1046F0000F900FBE0F901F9018955058BB27AA27F8
:104700000ED070C161D130F066D120F031F49F3FFE
:1047100011F41EF456C10EF4E095E7FB4CC1E92FED
:1047200072D180F3BA17620773078407950718F0F0
:1047300071F49EF58AC10EF4E0950B2EBA2FA02DD0
:104740000B01B90190010C01CA01A0011124FF273E
:10475000591B99F0593F50F4503E68F11A16F04039
:10476000A22F232F342F4427585FF3CF4695379538
:104770002795A795F0405395C9F77EF41F16BA0BFD
:10478000620B730B840BBAF09150A1F0FF0FBB1FAB
:10479000661F771F881FC2F70EC0BA0F621F731FF4
:1047A000841F48F4879577956795B795F7959E3F51
:1047B00008F0B3CF9395880F08F09927EE0F9795DF
:1047C00087950895D4D008F481E008950CD00AC1EB
:1047D00002D140F0F9D030F021F45F3F19F0EBC086
:1047E000511134C1EEC00FD198F39923C9F3552369
:1047F000B1F3951B550BBB27AA27621773078407D4
:1048000038F09F5F5F4F220F331F441FAA1FA9F389
:1048100033D00E2E3AF0E0E830D091505040E6957B
:10482000001CCAF729D0FE2F27D0660F771F881FDC
:10483000BB1F261737074807AB07B0E809F0BB0BCB
:10484000802DBF01FF2793585F4F2AF09E3F5105EF
:1048500068F0B1C0FBC05F3FECF3983EDCF3869597
:1048600077956795B795F7959F5FC9F7880F911D65
:104870009695879597F90895E1E0660F771F881F51
:10488000BB1F621773078407BA0720F0621B730B04
:10489000840BBA0BEE1F88F7E0950895BCD088F022
:1048A0009F5790F0B92F9927B751A0F0D1F0660F1C
:1048B000771F881F991F1AF0BA95C9F712C0B13037
:1048C00081F0C3D0B1E00895C0C0672F782F88274A
:1048D000B85F39F0B93FCCF3869577956795B39576
:1048E000D9F73EF490958095709561957F4F8F4FE5
:1048F0009F4F0895E89409C097FB3EF490958095EA
:10490000709561957F4F8F4F9F4F9923A9F0F92F95
:1049100096E9BB279395F695879577956795B79513
:10492000F111F8CFFAF4BB0F11F460FF1BC06F5FF9
:104930007F4F8F4F9F4F16C0882311F096E911C00B
:10494000772321F09EE8872F762F05C0662371F02C
:1049500096E8862F70E060E02AF09A95660F771F40
:10496000881FDAF7880F9695879597F90895990F1C
:104970000008550FAA0BE0E8FEEF16161706E80729
:10498000F907C0F012161306E407F50798F0621B4A
:10499000730B840B950B39F40A2661F0232B242B1F
:1049A000252B21F408950A2609F4A140A6958FEF3E
:1049B000811D811D089597F99F6780E870E060E090
:1049C00008959FEF80EC089500240A9416161706A8
:1049D00018060906089500240A94121613061406F0
:1049E00005060895092E0394000C11F4882352F053
:1049F000BB0F40F4BF2B11F460FF04C06F5F7F4F0B
:104A00008F4F9F4F089557FD9058440F551F59F0F1
:104A10005F3F71F04795880F97FB991F61F09F3FAB
:104A200079F087950895121613061406551FF2CFD4
:104A30004695F1DF08C0161617061806991FF1CF24
:104A400086957105610508940895E894BB2766274B
:104A50007727CB0197F908958ADF08F48FEF08953F
:104A60000BD0C0CFB1DF28F0B6DF18F0952309F0E6
:104A7000A2CFA7CF1124EACFC6DFA0F3959FD1F331
:104A8000950F50E0551F629FF001729FBB27F00DFC
:104A9000B11D639FAA27F00DB11DAA1F649F662751
:104AA000B00DA11D661F829F2227B00DA11D621FA0
:104AB000739FB00DA11D621F839FA00D611D221F5A
:104AC000749F3327A00D611D231F849F600D211D3E
:104AD000822F762F6A2F11249F5750408AF0E1F0E1
:104AE00088234AF0EE0FFF1FBB1F661F771F881F2A
:104AF00091505040A9F79E3F510570F05CCFA6CF72
:104B00005F3FECF3983EDCF3869577956795B79514
:104B1000F795E7959F5FC1F7FE2B880F911D96953E
:104B2000879597F90895991B79E004C0991F961706
:104B300008F0961B881F7A95C9F780950895AA1BDF
:104B4000BB1B51E107C0AA1FBB1FA617B70710F078
:104B5000A61BB70B881F991F5A95A9F780959095AA
:104B6000BC01CD01089597FB092E07260AD077FDD9
:104B700004D0E5DF06D000201AF4709561957F4FD0
:104B80000895F6F7909581959F4F0895A0E0B0E0C5
:104B9000ECECF5E20C94A728FE0135966191719139
:104BA0008091750290917602AF010E9410262096A6
:104BB000E2E00C94C328EF92FF920F931F93CF93E0
:104BC000DF938C01E0917502F0917602838181FF81
:104BD0001FC0C0E0D0E00AC0DB011896ED91FC9147
:104BE00019970995009711F0CFEFDFEFF801819148
:104BF0008F016091750270917602882369F7DB015D
:104C00001896ED91FC9119978AE00995009711F09B
:104C1000CFEFDFEFCE01CDB7DEB7E6E00C94BF28D3
:104C2000ACE0B0E0E6E1F6E20C9497286C011B01E1
:104C30008A01FC0117821682838181FFD1C12E0176
:104C40000894411C511CF6019381F10193FD85915B
:104C500093FF81911F01882309F4BEC1853239F485
:104C600093FD859193FF81911F01853229F490E096
:104C7000B6010E940D28E7CFEE24FF2420E0203269
:104C8000B0F48B3269F08C3228F4803251F08332E8
:104C900071F40BC08D3239F0803349F421602CC09F
:104CA0002260246029C0286027C0206125C027FD1C
:104CB0002CC0382F30533A3098F426FF08C08E2D80
:104CC000880FE82EEE0CEE0CE80EE30E15C08F2DCB
:104CD000880FF82EFF0CFF0CF80EF30E20620CC0AC
:104CE0008E3221F426FD78C1206406C08C3611F482
:104CF000206802C0883649F4F10193FD859193FF45
:104D000081911F01882309F0BACF982F95549330D1
:104D100018F09052933028F40C5F1F4FFFE3F98393
:104D20000DC0833631F0833771F0833509F060C0F0
:104D300022C0F801808189830E5F1F4F420171E01C
:104D4000A72EB12C16C062E0662E712C600E711E6B
:104D5000F8018080918026FF03C06E2D70E002C0B4
:104D60006FEF7FEFC4012C870E9402285C01830152
:104D70002C852F7717C052E0652E712C600E711EA6
:104D8000F8018080918026FF03C06E2D70E002C084
:104D90006FEF7FEFC4012C870E94F7275C012C8501
:104DA0002068830123FD20C008C080E290E0B601A6
:104DB0002C870E940D28FA942C858F2D90E0A81640
:104DC000B90698F311C0F40127FD859127FF819161
:104DD0004F0190E0B6012C870E940D282C85F11020
:104DE000FA940894A108B108A114B10461F7F1C0C4
:104DF000843611F0893649F527FF08C0F801608133
:104E00007181828193810C5F1F4F09C0F80160811D
:104E10007181882777FD8095982F0E5F1F4F4FE691
:104E2000B42EB22297FF09C0909580957095619538
:104E30007F4F8F4F9F4FF0E8BF2AA2012AE030E05A
:104E40000E943928782E741845C0853731F43FEE1A
:104E5000B32EB2222AE030E025C099EFB92EB2225B
:104E60008F36C1F0803720F4883509F0B5C00DC009
:104E7000803721F0883709F0AFC002C020E1B22AA4
:104E8000B4FE0BC084E0B82A08C0B4FE09C0E6E056
:104E9000BE2A06C028E030E005C020E130E002C0B4
:104EA00020E132E0B7FE08C0F801608171818281A3
:104EB00093810C5F1F4F07C0F8016081718180E012
:104EC00090E00E5F1F4FA2010E943928782E7418BF
:104ED000FFE7BF22B6FE0BC02EEFB2227E1438F4DD
:104EE000B4FE07C0B2FC05C08FEEB82202C0A72CEA
:104EF00001C0AE2C8B2D90E0B4FE0DC0FE01E70D7D
:104F0000F11D2081203319F4E9EEBE2209C0A394DB
:104F1000B2FE06C004C086789070009709F0A39492
:104F20008B2C9924B3FC14C0B0FE0FC0AF1428F42E
:104F3000E72CEF0CEA18AF2C08C0E72C06C080E283
:104F400090E0B6010E940D28A394AF14C0F304C0F2
:104F5000AF1410F4FA1801C0FF2484FE0FC080E3E0
:104F600090E0B6010E940D2882FE1FC081FE03C0A2
:104F700088E590E010C088E790E00DC0C401867815
:104F80009070009791F081FC02C080E201C08BE23A
:104F9000B7FC8DE290E0B6010E940D2806C080E3C8
:104FA00090E0B6010E940D28EA947E14C0F37A9432
:104FB000F201E70DF11D808190E0B6010E940D28FD
:104FC0007720A9F706C080E290E0B6010E940D2884
:104FD000FA94FF20C1F737CEF6012681378102C04F
:104FE0002FEF3FEFC9012C96E2E10C94B328FC01AE
:104FF0000590615070400110D8F7809590958E0F04
:105000009F1F0895FC016150704001900110D8F776
:10501000809590958E0F9F1F08950F931F93CF93A8
:10502000DF938C01EB018B8181FF1BC082FF0DC0E0
:105030002E813F818C819D812817390764F4E88196
:10504000F9810193F983E88306C0E885F985802F0B
:105050000995009731F48E819F8101969F838E83FD
:1050600002C00FEF1FEFC801DF91CF911F910F9189
:105070000895FA01AA27283051F1203181F1E894EE
:105080006F936E7F6E5F7F4F8F4F9F4FAF4FB1E03B
:105090003ED0B4E03CD0670F781F891F9A1FA11D36
:1050A000680F791F8A1F911DA11D6A0F711D811D37
:1050B000911DA11D20D009F468943F912AE0269FFC
:1050C00011243019305D3193DEF6CF010895462F5B
:1050D0004770405D4193B3E00FD0C9F7F6CF462F3C
:1050E0004F70405D4A3318F0495D31FD40524193A5
:1050F00002D0A9F7EACFB4E0A69597958795779562
:105100006795BA95C9F700976105710508959B01E8
:10511000AC010A2E06945795479537952795BA9571
:10512000C9F7620F731F841F951FA01D08952F924A
:105130003F924F925F926F927F928F929F92AF9227
:10514000BF92CF92DF92EF92FF920F931F93CF9374
:10515000DF93CDB7DEB7CA1BDB0B0FB6F894DEBF0B
:105160000FBECDBF09942A88398848885F846E8431
:105170007D848C849B84AA84B984C884DF80EE807B
:10518000FD800C811B81AA81B981CE0FD11D0FB684
:10519000F894DEBF0FBECDBFED010895F894FFCFA8
:1051A0006932635F726561640D0061636B696E678C
:1051B0000D00493263207374617475733A20256958
:1051C0000D0A005365636F6E64733A2025690D0AFA
:1051D000004D696E757465733A2025690D0A0030BB
:1051E0003000496E697420636F6D706C6574652161
:1051F0000D00121000009041000011261000005018
:10520000410000174D6100446900576F00446F0072
:105210005672005A61005A6F00640167016A016D9D
:105220000170017301760154696D65722031206946
:105230006E697469616C697A65640D000000000331
:0A5240000000000020232A230000D4
:00000001FF
