:100000000C9473080C9490080C9490080C9490082D
:100010000C9490080C9490080C9490080C94900800
:100020000C9490080C9490080C9490080C949008F0
:100030000C9490080C9490080C9490080C949008E0
:100040000C943A160C9490080C9498160C94900802
:100050000C9490080C9490080C9490080C949008C0
:100060000C9490080C94900811780A192A100B0E21
:100070000508050B0D090D0C0D0C0D0D0D0D40F0B7
:10008000E0E0DCFCDCE0E0F0400002060F070107E6
:100090000F06020000000000000000000000000049
:1000A000000000000000000000000000000000C090
:1000B000C0C0C000000000003838383838FFFFFFEB
:1000C000FF383838383800000000000707070700FD
:1000D0000000000000000000000000000000000020
:1000E00000000000000000000000000040FFFF7F53
:1000F0000F000000000000000000000000003C3C79
:100100003C3C3C3C3C3C0000000000000000000087
:10011000000000000000000000000000808080005F
:10012000070F0F0F07000000000000000000008014
:10013000F0FEFF7F0F000080F0FEFFFF1F030000B6
:10014000E0FCFFFF1F030000000000808080000033
:1001500000000000000080E0F0F87C1C1C1C7CF813
:10016000F8E0807FFFFFFF8000000080FFFFFF7F3F
:10017000000107070F0E0E0E0F0707010000000019
:1001800000000000000000000000C0E0E0F078F88F
:10019000FCFCFC0001000000FFFFFFFF000000006E
:1001A000000F0F0F0F0000000000000000001038CB
:1001B000383C1C1C1C3CFCF8F8E00000C0E0F0F0EF
:1001C000F87C3E1F0F0701000F0F0F0F0F0E0E0ED2
:1001D0000E0E0E0E0E0000000000000000000000D9
:1001E000000018383C1C1C1C3CFCF8F8E000000027
:1001F000000E0E0E0F1FFFFBF1E0060F0E0E0E0E8F
:100200000E0F0707030100000000000000000000BF
:10021000000000000080E0F0F8FCFCFCFC0000F0B6
:10022000FCFEFFE7E1E0FFFFFFFFE0E00000000071
:100230000000000F0F0F0F00000000000000000082
:100240000000000000000080FCFCFC1C1C1C1C1CAE
:100250001C000007070707070F1FFEFEFCF0060F34
:100260000E0E0E0E0E0F0707030100000000000027
:100270000000000000000080E0F0F07838381C1C1E
:100280001C1C00FEFFFFFF870707070FFFFEFCF89F
:10029000000307070F0E0E0E0F07070300000000F4
:1002A000000000000000000000001C1C1C1C1C1CA6
:1002B0001CDCFCFCFC7C1C00000000E0FCFFFF1FC1
:1002C000070100000000000E0F0F0F0100000000EA
:1002D0000000000000000000000000000000E0F04E
:1002E000F8F83C1C1C1C3CFCF8F0E0F1FBFFFF1F85
:1002F0000E0E1E3FFFFFFBF10103070F0F0E0E0E48
:100300000F0F0703010000000000000000000000C4
:100310000000E0F0F8F83C1C1C1C3CF8F8F0C003AE
:100320000F0F1F1E1C1C9CFCFFFFFF3F00000E0E4A
:100330000E0F070707030100000000000000000087
:1003400000000000000020F00A0E206000020509F5
:10035000060C090204040506030403060605060646
:100360000706060606060304060706060C09070725
:100370000806070808020609070B08090709080606
:100380000808090D09080704060407070206060500
:100390000606050606020307030A06070606050504
:1003A0000506070B08070504020407057E7E1C1CD2
:1003B0000F0F000F0F00000000009898F8FE9EF845
:1003C000FE9E98041C1C041C1C040404387C6FCF83
:1003D000CC8C181878781C0C1C3E2222BEFCF8DC51
:1003E0004E42C0800000101C0C040C1C10101C0C91
:1003F000C0FC7E66FE9CC0C0000C1C18181C0C1CA7
:1004000018100F0F0000F8FE0F021C7CF040020FC6
:10041000FEF840F07C1C2C781E782C0000000000B8
:10042000C0C0F0F0C0C000000C0C00000000004094
:100430007838C0C0C0C0000000000000001C1C1CB8
:100440000000E0FC1F03C0F83C040000F8FC0606B6
:10045000FCF8040C18180C04081C0CFEFE0000002C
:100460001C1C048EC6E67E1C1C1C1C1818180406D6
:100470006666FEDC181818181C0CC0F0B88CFEFE5E
:1004800080040404041C1C04607E7E66E6C6181802
:1004900018181C0CF0FC7C66E6C0041C18181C0C18
:1004A0000606C6F61E06001C1C000000DCFE666682
:1004B000FEDC0C1C18181C0C3C7E6666FEF800184E
:1004C000180C0C003838381C1C1C003838384078A0
:1004D0003800E0E0B0B0B01800000404040CB0B084
:1004E000B0B0B0B0B00404040404040418B0B0B058
:1004F000E0E00C0404040000030363731F0E001CFF
:100500001C1C0000E0F81CECF636F6F60E0CF8F0B9
:10051000041C38346C6C6C6C6C0C040000C0F8BEAD
:1005200086BEF8C000181C0C0404040C1C18FEFE47
:10053000666666FEDC1C1C1818181C0CF0FC0E0607
:10054000060606040C1C18181818FEFE0606060CF3
:10055000FCF81C1C1818180C0C00FEFE66666606DB
:100560001C1C18181818FEFE66666666661C1C00C1
:1005700000000000F0FC0C060606C6C6000C1C18A5
:1005800018181C1CFEFE60606060FEFE1C1C000053
:1005900000001C1CFEFE1C1C00000000FEFE1818C3
:1005A00018181C0CFEFE30F0D88C0602001C1C0033
:1005B00000040C1C1810FEFE00000000001C1C189B
:1005C00018181818E0FE1E78E080E0781EFEE01C87
:1005D0001C00000C0C0400001C1CFEFE1C38E0C0BB
:1005E000FEFE1C1C0000000C1C1CF0FC0E06060687
:1005F0000EFCF0000C1C1818181C0C04FEFEC6C6DD
:10060000C67C3C1C1C0000000000F0FC0E06060628
:100610000EFCF0000C1C183878DCCC04FEFEC6C6BC
:10062000C67C38001C1C00000C1C18101C3E6666A2
:10063000C6C6181818181C0C060606FEFE06060686
:100640000000001C1C000000FEFE00000000FEFE7A
:10065000040C1C18181C0C04063EFCE000E0FC3ED8
:10066000060000041C1C1C0400000EFEF800E0FC48
:100670001CFCE000F8FE0E00001C1C1C0000001C0E
:100680001C1C000002069EF8F0F89E060210181CC2
:100690000400041C1810020E3CF0F03C0E02000096
:1006A000001C1C0000000686C6F63E1E06181C1C18
:1006B00018181818FFFF0303FCFCC0C0031FFCE060
:1006C00000000000043CF8C00303FFFFC0C0FCFCB6
:1006D00020701C061C7020000000000000000000BC
:1006E0000000000000C0C0C0C0C0C0C003060000C1
:1006F00000B0B0B0F0E00C1C18181C1CFFFF30302C
:10070000F0E01C1C18181C0CE0E03030300C1C18F9
:100710001818E0F03030FFFF0C1C18181C1CC0F03B
:10072000B0B0F0E00C1C18181818FEFF3333331C5F
:100730001C000000C0F03030F0F08CDCD8D8FC7C1D
:10074000FFFF3030F0E01C1C00001C1CF3F31C1CED
:1007500000F3F3C0FC7CFFFF80E07030101C1C0035
:10076000041C1810FFFF000C1C18F0F03030F0F0E3
:100770003030F0E01C1C00001C1C00001C1CF0F0C1
:100780003030F0E01C1C00001C1CC0E0303030E0B9
:10079000C0040C1818180C04F0F03030F0E0FCFC29
:1007A00018181C0CC0F03030F0F00C1C1818FCFCB1
:1007B000F0F03030301C1C000000E0F0B0B09018B9
:1007C00018181C0CFCFC3030300C1C181818F0F0F9
:1007D0000000F0F00C1C18181C1C30F0C000C0F019
:1007E0003000041C181C040030F0C000E070E00071
:1007F000C0F03000001C180C000C181C0000103059
:1008000070C0C070301010181C0C041C181030F090
:10081000C000C0F030C0CCFC783C040030B0F0F038
:1008200030181C1C1818C0FEFF03007CFCC0FFFF22
:10083000FCFC03FFFEC0C0FC7C00C0E060E0C0E048
:100840006000000000000000FF010101FF1C10100B
:10085000101C0D170A09206000010305040705019B
:100860000303030502020103040204040404040355
:100870000404010204040403080505050504040436
:100880000501030504070506040605040505050919
:10089000050504020302050402040403040402041F
:1008A0000401020402070404040402030304030510
:1008B00004050303010304035E00030003000000BA
:1008C00028782E782E0000000000444AD322000031
:1008D0000000044A241824522000000000000000F8
:1008E0003C526C6010000000000003007C8201009C
:1008F000008001827C8000000C060C0000001010BB
:100900007C1010000000000080400000101000006B
:10091000400080F01E8000003C42423C000000008D
:10092000047E00004462524C00000000424A4A34F7
:100930000000000018147E1000000000404E4A32F3
:1009400000000000384C4A320000000002720E0025
:100950000000344A4A34000000004C52321C0000AF
:1009600000004400804400001028284400000000DB
:100970002828282800000000442828100000000033
:1009800002520C0000007CC23945453D423C00004B
:10099000808080800000603C223C600000000000FD
:1009A0007E4A4A4A3400000000003C424242420073
:1009B000000000007E4242423C00000000007E4AEF
:1009C0004A42000000007E0A0A02000000003C4289
:1009D0004272000000007E0808087E00000000004F
:1009E0007E0040403E0000007E08142240000000CF
:1009F00000007E404040000000007E0418201804E3
:100A00007E000000000000007E0408307E00000030
:100A100000003C424242423C0000000000007E12C6
:100A2000120C000000003C4242C2423C00000000A8
:100A300080007E1212324C0000000000444A522214
:100A40000000000002027E020200000000003E40A2
:100A500040403E000000000006384038060000001C
:100A60000000063840380438403806000000000016
:100A70000000000042241824420000000000020C84
:100A8000700C02000000000062524A4600000000A4
:100A9000FF018080031C6000000001FF80800804CB
:100AA0000204080000000000000000008080808038
:100AB0000102000024545478000000007F444438B0
:100AC000000000003844440000003844447F000027
:100AD000000038545458000000007F0500003844DE
:100AE00044FC808080007F040478000000007D00CA
:100AF00000FD80007F102844000000003F400000FF
:100B00007C040478040478000000000000007C04E9
:100B10000478000000003844443800000000FC4421
:100B2000443880000000384444FC000000807C040D
:100B300000005854340000003E44440000003C4093
:100B4000407C000000000C701C0000001C601C6059
:100B50001C00000000004438284400000000043855
:100B6000C03804808000000064544C00000010EE87
:100B700001000080FF8001EE1080000010081008C6
:100B8000000000007F417F000000090910927C7C7A
:100B9000FF7C7C92100000000001000000000909A9
:100BA000007CFEEE83010100000000000001010155
:100BB00000008040FF01010101010101010101016B
:100BC0000101018181818181010101010101010195
:100BD00001010101010101010101F9F9F9F93939B5
:100BE0003939010101818181810101010101010185
:100BF0008181818181010101010101010101010165
:100C00000101010101010101010181818181810154
:100C100001010101018181818101010101010101C4
:100C2000018181818101010139393939F9F9F9F9F4
:100C3000010101FFFF0000000000000000000000B3
:100C4000000000FF000024FF000000000000000082
:100C500000000000000000000000FFFFFFFF000098
:100C60000000000000FFFFFFFF80C0E0F0F83E1F23
:100C70001F0F07030100000000000000000000003B
:100C80000000000080C0F0F8FC7E1FFFFFFFFF00A7
:100C90000000000000FFFFFFFF0000000000000058
:100CA00000FFFFFFFF00000000000000FFFFFFFF4C
:100CB000000000FFFF000000000000000000000036
:100CC0000000E01F0808091FE0000000000000000D
:100CD00000000000000000000000FFFFFFFF000018
:100CE0000000000000FFFFFFFF0F1F3F7FFCF8F038
:100CF000E0C080000000001C1C1C1C1C1C1C1C00F4
:100D000000F0FCFEFFFFE7E1E0E0E0FFFFFFFFE0B7
:100D1000E000000000FFFFFFFFC000000000000037
:100D2000C0FFFFFFFF00000000000000FFFFFFFF0B
:100D3000000000FFFF0000000000C0C0C0C00000B5
:100D4000000000010202020100000080800000009B
:100D500000000000000000000000FFFFFFFFC0C017
:100D6000C0C00000001F1F1F1F0000000000010383
:100D70000F1F1F1F1C1800000000000000000000D3
:100D800000000000000000000000001F1F1F1F00E7
:100D900000000000000003070F1F1F1E1E1E1E1F65
:100DA0001F0F070300000000C0C0C0C0FFFFFFFF0F
:100DB000000000FFFF0000000000FFFF0000000037
:100DC00006060606FEFE0606060600FFFF30303069
:100DD0003070E0C0000080E06030313171E1C1016D
:100DE00001F1F03030303000F0F030303070E0E0C1
:100DF00030303070E0C0000080E07030303070E0A3
:100E00008000000000000000000000000000000062
:100E100000000000000000000000000000000000D2
:100E200000000000000000000101010101010101BA
:100E3000000000FFFF0000000000FFFF80800000B6
:100E4000000000003F3F00000000003F3F000000A6
:100E500000003F3F00000F1F3B33333333330300A9
:100E6000003F3F00000000003F3F000000003F3F08
:100E7000000000003F3F0000071F38303030381FAF
:100E800007000000000000000000E0E0000000009B
:100E90000000000000000000000000000000000052
:100EA0000000000C0CFCFC00000000000000000032
:100EB000000000FFFF000000000001010101000030
:100EC0000000000000000000000000000000000022
:100ED00000000000000000000000000000FFFF0311
:100EE000030307FEFE03030307FEFC0000F8FEB643
:100EF000333333373E3C0000E0F31B1B1B1BFEFC6F
:100F000000001E1F3333E3E00000FFFF0303030371
:100F10000000FFFF030303030078FE87030303873A
:100F2000FE78000000FFFF0000000000000000004D
:100F3000000000FFFF808080808080808080808033
:100F400080808080808080808080808080808080A1
:100F5000808080808080808080808080808383808B
:100F60008080808383808080808383808080818371
:100F7000838383838380808080818383838383834F
:100F80008080838383838381808081838383838341
:100F9000808083838080808080808183838383833B
:100FA00081808098989F9F808080808080808080D2
:100FB000808080FF070970F88C079EF860000001B0
:100FC00001010000090910927C7CFF7C7C921000DA
:100FD00000000001000000000909007CFEEE830112
:100FE00001000000000000010101000000407A1033
:100FF000F35A00A0724E18090010A5D4E80000E8CA
:101000007648170000E40B54020000CA9A3B000027
:1010100000E1F505000080969800000040420F00B6
:101020000000A08601000000102700000000E80377
:10103000000000006400000000000A000000000042
:101040000100000000002C76D888DC674F0823DF01
:10105000C1DFAE59E1B1B796E5E3E453C63AE651D4
:10106000997696E8E6C28426EB898C9B62ED407CFB
:101070006FFCEFBC9C9F40F2BAA56FA5F490055A97
:101080002AF75C936B6CF9676DC11BFCE0E40D47BC
:10109000FEF520E6B500D0ED902E030094357705DF
:1010A0000080841E080000204E0A000000C80C3397
:1010B0003333330F986E12831141EF8D2114893B26
:1010C000E65516CFFEE6DB18D1844B381BF77C1DA6
:1010D000901DA4BBE424203284725E228100C9F1F9
:1010E00024ECA1E53D2711241FBECFEFD4E0DEBFE5
:1010F000CDBF11E0A0E0B1E0E4E1FCE302C0059067
:101100000D92A233B107D9F711E0A2E3B1E001C01B
:101110001D92AF3AB107E1F70E9495130C94081E97
:101120000C9400004F925F927F928F929F92AF92A9
:10113000BF92CF92DF92EF92FF920F931F93DF93B4
:10114000CF930F92CDB7DEB7C82ED62E9A012F5F60
:101150003F4FFA01A49029010894411C511CF90148
:10116000949090E0EA2CFF2414C0F8010F5F1F4F09
:1011700074908B2D8C0D682D99830E94020D872D04
:101180000E946B0DB3949981BA1478F34E0C5F1CD6
:10119000985F991528F48201BB24892E8D0CF4CF19
:1011A0000F90CF91DF911F910F91FF90EF90DF9003
:1011B000CF90BF90AF909F908F907F905F904F9017
:1011C00008954F925F927F928F929F92AF92BF92BB
:1011D000CF92DF92EF92FF920F931F93DF93CF9303
:1011E0000F92CDB7DEB7C82ED62E9A012F5F3F4F94
:1011F000FA01A49029010894411C511CF901949012
:1012000090E0EA2CFF2415C0F8010F5F1F4F749087
:101210008B2D8C0D682D99830E94020D872D809552
:101220000E946B0DB3949981BA1470F34E0C5F1C3D
:10123000985F991528F48201BB24892E8D0CF4CF78
:101240000F90CF91DF911F910F91FF90EF90DF9062
:10125000CF90BF90AF909F908F907F905F904F9076
:101260000895282F392FF90120E030E080E0A8E12F
:1012700012C0419198E0542F5827B52FB17050FDFE
:101280008A278695B13009F48068915011F046950F
:10129000F2CF2F5F3F4F2617370759F70895FF9278
:1012A0000F931F93CF93DF9382E598E06AE57CE08C
:1012B0004FEF0E945D0C8DE560E043E227E000E027
:1012C0000E9444108FE560E00E94020D0BE511E0E2
:1012D00080915B019AE0F92E6F2D0E946E18805D5F
:1012E0000E94070E80915B016F2D0E946E18892F5E
:1012F000805D0E94070E8AE30E94070EE8018A9132
:101300006F2D0E946E18805D0E94070E88816F2DE0
:101310000E946E18892F805D0E94070E8AE30E944A
:10132000070EE801229788816F2D0E946E18805D5C
:101330000E94070E88816F2D0E946E18892F805D94
:101340000E94070EDF91CF911F910F91FF9008959A
:101350000F93CF93DF938DB79EB70A970FB6F8948C
:101360009EBF0FBE8DBFEDB7FEB73196C1E5D1E090
:10137000ADB7BEB71296DC93CE93119780E091E0A3
:101380009383828380915D018483158280915E01C5
:101390008683178280915F01808711860E94F818EA
:1013A0008DB79EB70A960FB6F8949EBF0FBE8DBF3D
:1013B00082E598E06AE57CE04FEF0E945D0CCE018B
:1013C0000E94A20C482F83E060E027E000E00E942A
:1013D000441083E060E00E94020DCE010E944C0F99
:1013E000DF91CF910F9108950F930E944F090E94B2
:1013F000A80980E068E040E820E00FEF0E94441078
:101400000F9108950F9380917A01806280937A0101
:1014100080E46DE24CE22CE000E00E94441080E4A5
:101420006DE24CE22CE00FEF0E94D31181E66BE2FB
:101430004AE022E000E00E94441083E46FE24AE8C0
:101440005BE00E9492088FE46FE24EE95BE00E944D
:10145000920883E4809337019FE29093380189E0FA
:101460008093390180933A012FE420933B019093BC
:101470003C0180933D0180933E010F9108950F93AD
:1014800080917A018F7D80937A0180E46DE24CE255
:101490002CE000E00E9444100F9108950F9382E623
:1014A00065E149E029E000E00E94441080917D015F
:1014B00090917E0121E08731920729F482E665E16F
:1014C0004AE85BE004C082E665E14EE95BE00E9429
:1014D00092080F910895FC01DB0120814C912417A3
:1014E000D8F030E012968C91129790E0840F911D05
:1014F000821793078CF0418111968C9111974817B0
:1015000068F050E013962C91139730E0280F311DAE
:1015100081E0241735071CF480E0089580E00895E9
:10152000FC01DB018C9190E0208130E0AC01415066
:101530005040241735074CF0AC014F5F5F4F81E0FE
:10154000421753071CF080E001C081E011964C91D6
:10155000119750E0218130E0BA01615070402617A8
:1015600037072CF04F5F5F4F421753070CF4826030
:10157000228112969C911297291384600895EF920C
:10158000FF920F931F93CF93DF9383E064E143E2D5
:1015900024E100E00E94441083E064E10E94020D17
:1015A000CAE5DCE088E690E0BE014FEF0E945D0CEA
:1015B00004E611E0C8010E94A20CF82EC8010E94A6
:1015C0004C0F8F2D8B5F61E146E026E003E0EE24B7
:1015D000EA940E94F8108F2D8A5F62E144E024E0D3
:1015E00002E00E94F81086E493E0BE014FEF0E94F3
:1015F0005D0CC9E6D1E0CE010E94A20C182F482F45
:101600004C5F82E464E12EE000E00E94441082E43A
:1016100064E10E94020DCE010E944C0F812F8C5B71
:1016200062E144E024E002E00E94F810DF91CF91F3
:101630001F910F91FF90EF9008950F931F93182F14
:1016400080E564E24CE028E000E00E94441080E481
:1016500064E24CE028E00E94441080E664E24CE042
:1016600028E00E94441080E564E24CE028E00FEF9F
:101670000E94D31180E464E24CE028E00E94D31180
:1016800080E664E24CE028E00E94D31184E468E242
:1016900048E428E20E94FB1184E568E248E528E27C
:1016A0000E94FB1186E566E246E52AE20E94FB11F4
:1016B00080917A0185FF13C081E66BE24AE022E067
:1016C00000E00E94441084E669E246E627E20FEF5C
:1016D0000E94FB1188E669E246E627E20BC084E639
:1016E00067E246E629E20FEF0E94FB1188E667E217
:1016F00046E629E20E94FB11113011F480E507C093
:10170000123011F480E403C0133031F480E664E257
:101710004CE028E00E94AB0F1F910F91089582E5E5
:1017200098E06AE57CE04FEF0E945D0C0E94F409AE
:101730000E94BF0A0E944E0A80E00E941D0B80E4B6
:101740008093430124E2209344019CE0909345015F
:1017500088E08093460130E530933F0120934001BB
:10176000909341018093420130E6309333012093FE
:10177000340190933501809336010895DF93CF9320
:1017800000D0CDB7DEB75D9A80917A0182608093F8
:101790007A011A82198205C089819A8101969A83F9
:1017A000898389819A812AE388399207A8F380E0A6
:1017B0000E94D0100E948F0B0F900F90CF91DF915D
:1017C00008955D9880917A018D7F80937A010895C4
:1017D000DF92EF92FF920F931F93DF93CF9300D08E
:1017E0000F92CDB7DEB787B1807F87B987B18560AB
:1017F00087B988B1807F88B9429A81E00E945013EE
:10180000082F83E00E945013E82E602F665170E08D
:10181000882777FD8095982F0E94BA1720E030E046
:1018200048EC5FE30E9424170E948C17F62E87B1C4
:10183000807F87B987B18A6087B988B1807F88B98E
:10184000439A80E00E945013182F109582E00E9466
:101850005013D82E612F685270E0882777FD80954D
:10186000982F0E94BA1720E030E041E350E40E9434
:1018700024170E948C17762F8E2D90E0801B9109E3
:10188000843091054CF4D0942D2D30E0211B31098A
:1018900081E0243031050CF080E06F2D90E00F9056
:1018A0000F900F90CF91DF911F910F91FF90EF90CC
:1018B000DF900895FC018491089590934E018093E8
:1018C0004D0170934C0160934B0140934701089583
:1018D0000F931F93082F20914D0130914E01E091FD
:1018E0004B01F0914C01C90104960995182F2091E4
:1018F0004D0130914E01E0914B01F0914C01C90135
:10190000059609950117D0F0402F50E0212F30E0C7
:10191000280F311D421753078CF4011B802F90E0D4
:10192000069620914D0130914E01E0914B01F091CE
:101930004C01820F931F09958F5F01C080E01F91BA
:101940000F910895EF92FF920F931F93CF93DF9320
:10195000082F192FC0E0D0E004C00E94680CC80F07
:10196000D11DF80181918F018823B9F7CE01DF9154
:10197000CF911F910F91FF90EF900895EF92FF92FA
:101980000F931F93CF93DF938C01C0E0D0E008C08A
:101990000F5F1F4FFC0184910E94680CC80FD11D7E
:1019A000C801F8012491222399F7CE01DF91CF914C
:1019B0001F910F91FF90EF900895DF93CF930F92B7
:1019C000CDB7DEB7662319F45C985B9A04C061302A
:1019D00011F45B985C9A5E985F989FEF94B985B913
:1019E0005A9A0000000000005A98198203C08981A9
:1019F0008F5F898389818830D0F315B80F90CF919C
:101A0000DF9108951F9387FD80E0603408F060E067
:101A10008093480160934901669566956695609349
:101A20004A01803418F0805461E001C060E08064B5
:101A30000E94DD0C10914A01186B812F60E00E941A
:101A4000DD0C812F61E00E94DD0C1F9108951F9332
:101A5000DF93CF930F92CDB7DEB715B814B890913E
:101A60004801903418F45C985B9A02C05B985C9AC9
:101A700090914801903431F4882321F080E461E0B2
:101A80000E94DD0C5E9A5F9A5A9A000000000000E6
:101A900013B15A98198203C089818F5F8983898124
:101AA0008830D0F38FEF84B980914801609149016B
:101AB0000E94020D8091320181111095812F0F90AB
:101AC000CF91DF911F91089581E00E94270D80E062
:101AD0000E94270D0895DF92EF92FF920F931F93BC
:101AE000DF93CF9300D0CDB7DEB7082F80914801A8
:101AF00087FD83C0803418F45C985B9A02C05B98C1
:101B00005C9A80914801803419F461E00E94DD0CF8
:101B10005E9A5F981FEF14B920914901277009F46C
:101B200054C0DBB02A830E94640DDBB814B910E006
:101B30002A81E22EFF24A80102C0440F551F2A95D6
:101B4000E2F7842B909132019111809585B95A9AD0
:101B50000000000000005A98198203C089818F5F3D
:101B6000898389818830D0F360914901685F8091D1
:101B700048010E94020D0E94640DDBB89FEF94B9EA
:101B800028E030E02E193F0902C0159507952A95E7
:101B9000E2F7082B809132018111009505B95A9A1C
:101BA0000000000000005A98198203C089818F5FED
:101BB000898389818830D0F38091480160914901FF
:101BC00068508F5F0E94020D17C080913201811111
:101BD000009505B95A9A0000000000005A98198231
:101BE00003C089818F5F898389818830D0F3809198
:101BF00048018F5F8093480115B80F900F90CF91E7
:101C0000DF911F910F91FF90EF90DF9008952F9239
:101C10003F924F925F926F927F928F929F92AF927C
:101C2000BF92CF92DF92EF92FF920F931F93DF93B9
:101C3000CF9300D000D000D0CDB7DEB7C82E8091B2
:101C40004D0190914E01E0914B01F0914C010396B2
:101C50000995682E282F2770298380914D01909136
:101C60004E01E0914B01F0914C0104960995082F2B
:101C700020914D0130914E01E0914B01F0914C01CA
:101C8000C90105960995B82E709048013091490117
:101C90003A83C01608F4BBC04C2D50E0202F30E032
:101CA000280F311D421753070CF0B1C0C01A56E07F
:101CB000E52EF12C00E010E009C0C9018E0D9F1D3A
:101CC0000995080F111D0894E11CF11C8E2D8650FA
:101CD00020914D0130914E01E0914B01F0914C016A
:101CE0008C1558F3862D90E0079643E095958795DF
:101CF0004A95E1F7682EE82EFF240E9DA0010F9D66
:101D0000500D1E9D500D11248B2D90E00696840FD2
:101D1000951F9E838D838C2D90E00696820F931FD6
:101D20000995B82E982E9194AA2402E010E027017C
:101D300060C02D803E80290C311CCD80DE80CA0C15
:101D4000D11C7101F8013197FC83EB8335C0809180
:101D50004D0190914E01E0914B01F0914C018C0DA1
:101D60009D1D0995882E2B813C8124153505A1F4F4
:101D700020914D0130914E01E0914B01F0914C01C9
:101D8000C9018E0D9F1D099590E0098002C09595AF
:101D900087950A94E2F7882A809147018F3F11F4D2
:101DA000882D02C0882D80950E946B0D0894C11C5F
:101DB000D11C0894E11CF11C8E2D82198B1538F270
:101DC000809147018F3F11F480E001C08FEF0E94A6
:101DD0006B0D609149010415150514F4685F02C08C
:101DE0003981630F872D0E94020D0F5F1F4F9B0CDF
:101DF000AB0C802F8250861508F49BCF872D8F5F08
:101E00008B0D6A810E94020D20E030E002C021E0CB
:101E100030E0C90126960FB6F894DEBF0FBECDBFE5
:101E2000CF91DF911F910F91FF90EF90DF90CF90B6
:101E3000BF90AF909F908F907F906F905F904F90EA
:101E40003F902F9008950F931F93CF93DF93EC0152
:101E50001091480118C08A3099F4009149012091ED
:101E60004D0130914E01E0914B01F0914C01C901BF
:101E700003960995682F600F812F0E94020D02C002
:101E80000E94070E2196FE018491882321F7DF919D
:101E9000CF911F910F910895EF92FF920F931F938F
:101EA000CF93DF9310914801E82EE7017E01F92ED0
:101EB000E70117C08A3099F40091490120914D0142
:101EC00030914E01E0914B01F0914C01C901039614
:101ED0000995682F600F812F0E94020D02C00E9499
:101EE000070E8991882331F7DF91CF911F910F91D0
:101EF000FF90EF9008951F93DF93CF930F92CDB78C
:101F0000DEB7162F687F49830E94020D0E94640D80
:101F1000612F70E049814F3F59F46770707021E084
:101F200030E002C0220F331F6A95E2F7282B0BC066
:101F30006770707021E030E002C0220F331F6A9595
:101F4000E2F720952823822F0E946B0D0F90CF91EE
:101F5000DF911F910895AF92BF92CF92DF92EF92DF
:101F6000FF920F931F93CF93DF93182F042FE22E2E
:101F7000E394262F2770F62EF21ACE2DD0E0E8E05B
:101F8000F0E0CF01821B9109C817D90764F4CF0193
:101F90008C1B9D0BEFEFF0E002C0F595E7958A955D
:101FA000E2F7DE2C04C068E0D62ED21AEFEFCE2E78
:101FB00001C0CC0C2A95EAF7812F6F2D0E94020DEB
:101FC000BB24AC2CA0940E94640D982F90959C216A
:101FD0008A21892B0E946B0DB3940B15A0F710C0BA
:101FE00088E0D80EF80E812F6F2D0E94020DCC24B0
:101FF0000E94640D80950E946B0DC3940C15C0F770
:10200000ED2DF0E0CF0107968C179D074CF3DE1401
:1020100000F5CE1BDF0B2FEF30E00C2E02C0220F9D
:10202000331F0A94E2F7E22EE0946F2D685F812F50
:102030000E94020D10E0FE2CF0940E94640D982F77
:1020400090959E218F21892B0E946B0D1F5F011798
:10205000A0F7DF91CF911F910F91FF90EF90DF904C
:10206000CF90BF90AF9008951F93182F80913201A9
:10207000811741F080E060E04FE72FE30E94AB0F53
:10208000109332011F9108959F92AF92BF92CF9209
:10209000DF92EF92FF920F931F93CF93DF93182F4E
:1020A000F42ED22EE02ED394262F2770062F021B5B
:1020B000CD2DD0E0E8E0F0E0CF01821B9109C817F8
:1020C000D90764F4CF018C1B9D0BEFEFF0E002C049
:1020D000F595E7958A95E2F7CD2C04C078E0C72EF8
:1020E000C21AEFEFBE2E01C0BB0C2A95EAF7812F72
:1020F000602F0E94020DAA249B2C90940E94640DD4
:102100009E2D9F3F11F48B2901C089210E946B0DE8
:10211000A394FA1498F70EC088E0C80E085F812FC8
:10212000602F0E94020DBB248E2D0E946B0DB39474
:10213000FB14D0F7EC2DF0E0CF0107968C179D072C
:102140005CF3CD1408F5CE1BDF0B2FEF30E00C2E27
:1021500002C0220F331F0A94E2F7D22ED094602FD0
:10216000685F812F0E94020D10E00D2D00950E94E6
:10217000640D9E2D9F3F11F48D2901C080230E9484
:102180006B0D1F5FF11698F7DF91CF911F910F91A3
:10219000FF90EF90DF90CF90BF90AF909F90089509
:1021A0000F93109248011092490110924A018093B6
:1021B00032018FEF8AB98FE360E00E94DD0C8FE37C
:1021C00061E00E94DD0C80EC60E00E94DD0C80ECA0
:1021D00061E00E94DD0C80E060E04FE72FE300E06B
:1021E0000E94441080E060E00E94020D0F9108956B
:1021F0002F923F924F925F926F927F928F929F9217
:10220000AF92BF92CF92DF92EF92FF920F931F9304
:10221000DF93CF93CDB7DEB72B970FB6F894DEBF21
:102220000FBECDBF582F162F742F2D83C02EDD2447
:10223000882799278C199D09880F991F03969B87DA
:102240008A87902E950EF02EF60E942F950F998377
:10225000901B9A83E22FE60FEB83E01BEC837E2E2C
:10226000892E5F2C492C20E030E0AA24BB246C2C62
:102270003F2C3C18842D632D4E2D2E833F83598790
:1022800078870E947B0F292C2C18822D652D4E2DCE
:102290000E947B0F882D632D4E2D0E947B0F3A806C
:1022A0003C0C832D652D4E2D0E947B0FFC816F0E03
:1022B000882D662D4E2D0E947B0F832D672D4E2D70
:1022C0000E947B0F842D662D4E2D0E947B0F822D48
:1022D000672D4E2D0E947B0F2E813F815985788579
:1022E0008A859B8597FF06C00696820F931F9B8762
:1022F0008A8711C0EA85FB853A96C5018C199D092C
:10230000880F991F880F991FE80FF91FFB87EA872D
:102310000894C108D1080894A11CB11C4A945A948D
:10232000839473942C5F3F4FCA14DB040CF09FCF4F
:10233000C02EC194CC0CAC2CA70E892D612F4A2D38
:1023400020E00E2D59870E944410892D6B814A2D63
:1023500020E00E944410FD81CF0E5985852F6F2DFE
:1023600040E02C2D0E94441089816F2D40E02C2DDF
:102370000E9444102B960FB6F894DEBF0FBECDBF5F
:10238000CF91DF911F910F91FF90EF90DF90CF9051
:10239000BF90AF909F908F907F906F905F904F9085
:1023A0003F902F900895CF92DF92EF92FF920F937C
:1023B0001F93E82EF62EC42ED22E20E00E94441049
:1023C0006D2D6F0D8E2D4C2D20E00E9444108E2D12
:1023D0006F2D40E02D2D0E9444108C2D8E0D6F2D01
:1023E00040E02D2D0E9444101F910F91FF90EF901F
:1023F000DF90CF9008952F923F924F925F926F920D
:102400007F928F929F92AF92BF92CF92DF92EF9284
:10241000FF920F931F93CF93DF93182FF62EE42E86
:10242000D22EC02E841751F4261710F4F22ED62E79
:102430002D2D2F19812F6F2D40E00BC0621769F4ED
:10244000481710F4142FE82E4E2D411B812F6F2DAD
:1024500020E00C2D0E944410CCC030E0462F50E00C
:102460008E2D90E0811B9109B901641B750B6817D3
:10247000790734F4421B530B481759070CF45DC01D
:10248000E11630F48F2DFD2CD82E812F1E2DE82E35
:10249000AE2CA11AED2DF0E02F2D30E04F01821A65
:1024A000930ACA2DD0E048EC50E0849EC001859E7E
:1024B000900D949E900D1124BE010E948E181B0158
:1024C0000F2DEE2488EC482E512C39016E1A7F0A0C
:1024D0002E2D30E0229DC001239D900D329D900D48
:1024E0001124B2010E948E18BF2CB60E84369105BD
:1024F00014F0B39405C02FEF8D3992070CF4BA9401
:102500004E2D410F842F602F2B2D0C2D0E94FB117F
:102510008C169D062CF0FD1418F40B2D0F5F09C0CE
:102520006C167D062CF0DF1418F40B2D015001C041
:102530000B2DE394AE1460F65CC0DF1430F48F2DE5
:10254000FD2CD82E812F1E2DE82EAD2CAF18EE2D90
:10255000F0E0212F30E04F01821A930ACA2DD0E01B
:1025600048EC50E0849EC001859E900D949E900D95
:102570001124BE010E948E181B01412FDD2408EC9E
:10258000402E512C39016E1A7F0A2D2D30E0229DEC
:10259000C001239D900D329D900D1124B2010E9427
:1025A0008E18B12EB60E8436910514F0B39405C082
:1025B0002FEF8D3992070CF4BA942D2D2F0D842F07
:1025C000622F4B2D0C2D0E94FB118C169D062CF0BA
:1025D0001E1518F44B2D4F5F09C06C167D062CF0AC
:1025E000E11618F44B2D415001C04B2DD394AD147E
:1025F00060F6DF91CF911F910F91FF90EF90DF90E8
:10260000CF90BF90AF909F908F907F906F905F9092
:102610004F903F902F900895DF93CF9300D000D03C
:102620000F92CDB7DEB7E42F89839A836B837C83C7
:102630009C01AB016E2F70E080E090E00F900F9056
:102640000F900F900F90CF91DF9108950F931F93EC
:10265000CF93DF93EC01888199819695982F8827F5
:10266000979587956A817B810E947A18162F80E062
:102670006C8140E820E000E00E94441080E06C8122
:10268000412F20E00FEF0E944410DF91CF911F9166
:102690000F910895FC01608311820E942613089512
:1026A00090917A0090937A0010927C0090917C0037
:1026B000906290937C0090917C00982B90937C008A
:1026C00080917A00806C80937A0080917A0084FFF8
:1026D000FCCF80917A00806180937A0080917900AC
:1026E000089590917A0090937A0010927C009091D6
:1026F0007C009F7D90937C0090917C00982B909320
:102700007C0080917A00806C80937A0080917A00BE
:1027100084FFFCCF80917A00806180937A002091C1
:10272000780030917900C90108952F923F924F921D
:102730005F926F927F928F929F92AF92BF92CF9251
:10274000DF92EF92FF920F931F93DF93CF93CDB75A
:10275000DEB7A1970FB6F894DEBF0FBECDBF14B899
:1027600017B880E388B98FEF8AB983E291E090933C
:10277000AE018093AD019093AC018093AB010E94B8
:102780006B1678948FE091E00E94C3185D9A809157
:102790007A01826080937A011A82198205C0898148
:1027A0009A8101969A83898389819A812AE388395B
:1027B0009207A8F380E00E94D01080917A00866092
:1027C00080937A0080917C0080937C0080917C00D3
:1027D000806280937C0080917A00806880937A0088
:1027E00080917A00806480937A0083E886BD23E03C
:1027F00025BD80916E00816080936E0080E090E046
:10280000A0E7B1E480936E0190936F01A0937001F3
:10281000B093710180E090E0A8E8B1E4809360019A
:1028200090936101A0936201B093630110925901EA
:1028300085E280935A018DE080935B0120935D01D6
:1028400092E090935E0180935F0160E070E080E72A
:1028500091E441E021E004E611E00E94A1186091BA
:10286000600170916101809162019091630141E08A
:1028700021E009E611E00E94A11880E060E042EB4F
:102880005BE00E94E1088FEF91EEA4E08150904060
:10289000A040E1F700C0000080E060E042EB5BE0B8
:1028A0000E9492088FEF99E6A8E181509040A040E5
:1028B000E1F700C0000080E060E04FE72FE300E0B8
:1028C0000E9444100E948F0B85E00E945013E82E56
:1028D00090E060E071E049E00E940C132B8B3C8B90
:1028E0004D8B5E8B6F8BDE011996FE01739685E032
:1028F00001900D928150E1F720917B0184E190E0FD
:10290000821B910964E170E04FE30E940C132B8B52
:102910003C8B4D8B5E8B6F8BDE011E96FE0173969A
:1029200085E001900D928150E1F739E0A32EB12CA2
:10293000AC0EBD1EC5010E9426138E01025F1F4F03
:10294000C8010E94261380917A01826080937A01E7
:102950005E2C4A2CBB8E08A319A323E0E22EF12C97
:10296000EC0EFD1E96E0292E312C2C0E3D1E809182
:102970007A0181FD18C0359916C00E94BE0B842DC6
:102980009B8D0E94261388A199A10E942613109264
:102990007B0180917A0180FF06C088E765E344EB04
:1029A0005FE00E94920880917A0181FFCFC00E946F
:1029B000E80B688F798F8A8FD701FE01789683E0C4
:1029C00001900D928150E1F7C701B1010E94900A78
:1029D000882309F493C082FF8AC08D81882309F47B
:1029E00081C0C70163E471E00E946B0A882391F003
:1029F00082E00E941D0B60916001709161018091E5
:102A000062019091630120E030E040E05FE30E94CA
:102A1000BB1618C0C7016FE371E00E946B0A8823E0
:102A2000D1F081E00E941D0B609160017091610105
:102A3000809162019091630120E030E040E05FE32B
:102A40000E94BC16609360017093610180936201E3
:102A50009093630113C0C70163E371E00E946B0AA6
:102A6000882361F083E00E941D0B80917A0185FF2D
:102A700003C00E943F0A02C00E94020A80917A01AC
:102A800085FF33C0C70167E371E00E946B0A8823AA
:102A900059F0A7E1B1E0B0937E01A0937D0180E001
:102AA00090E0A0E9B1E411C0C7016BE371E00E94BE
:102AB0006B0A8823D1F0ADE1B1E0B0937E01A09321
:102AC0007D0180E090E0A0E5B1E480936001909307
:102AD0006101A0936201B09363010E943F0A0E94CA
:102AE0004E0A03C080E00E941D0B10927B01D101B1
:102AF000F70183E001900D928150E1F7A090600111
:102B0000B0906101C0906201D09063016C8D7D8DA9
:102B10008E8D9F8DA60195010E9420178823B1F00C
:102B2000C601B50141E021E009E611E00E94A118CB
:102B30008091600190916101A0916201B091630167
:102B40008C8F9D8FAE8FBF8F0E94BF0A80917A01BC
:102B500082FF2FC08B7F80937A0181FF06C0809116
:102B60007B01843111F40E94E10B80917A0184FF92
:102B70001DC08F7E80937A01809159018F5F809371
:102B800059018C3381F41092590180915A018F5F61
:102B900080935A018C3339F410925A0180915B0171
:102BA0008F5F80935B010E944F0903C08061809317
:102BB0007A0120917A0123FFDACE277F20937A01D0
:102BC000852D90E08A3C91051CF4873C91054CF4DE
:102BD00021FF05C0842D9B8D68EC0E944A1388EC70
:102BE000582EA0906E01B0906F01C0907001D090EF
:102BF000710160906001709061018090620190901D
:102C00006301C401B30120E030E040E05FE30E94D3
:102C1000BB169B01AC01C601B5010E942017181616
:102C200084F080917A0180FD0CC0816080937A01EC
:102C300081FF9DCE88E765E344EB5FE00E94920848
:102C400096CEC601B501A40193010E946A1887FDC2
:102C50008ECE80917A0180FF8ACE8E7F80937A011A
:102C600081FF85CE88E765E347EF24EF00E00E940F
:102C700044107DCE1F920F920FB60F9211242F9306
:102C80008F939F9383E886BD80914F01909150016F
:102C900001969093500180934F018436910531F451
:102CA00080917A01886080937A010DC021E0843F91
:102CB000920749F480917A01846080937A0110929E
:102CC000500110924F019F918F912F910F900FBE45
:102CD0000F901F90189583E38093C40088E0809341
:102CE000C10008959091C00095FFFCCF8093C6006D
:102CF00080E090E008959091C00095FFFCCF809314
:102D0000C600089580E090E008958091A70108959D
:102D10002091A7013091A8018217930721F4109206
:102D2000A8011092A70181589E4FFC01808108954F
:102D30001F920F920FB60F9211242F938F939F9390
:102D4000EF93FF938091A7019091A8010196909332
:102D5000A8018093A7012091C60081589E4FFC01D5
:102D60002083FF91EF919F918F912F910F900FBE34
:102D70000F901F9018955058BB27AA270ED070C1EE
:102D800061D130F066D120F031F49F3F11F41EF490
:102D900056C10EF4E095E7FB4CC1E92F72D180F3E8
:102DA000BA17620773078407950718F071F49EF548
:102DB0008AC10EF4E0950B2EBA2FA02D0B01B9019C
:102DC00090010C01CA01A0011124FF27591B99F0A1
:102DD000593F50F4503E68F11A16F040A22F232FAD
:102DE000342F4427585FF3CF469537952795A795FD
:102DF000F0405395C9F77EF41F16BA0B620B730BA4
:102E0000840BBAF09150A1F0FF0FBB1F661F771F14
:102E1000881FC2F70EC0BA0F621F731F841F48F4C9
:102E2000879577956795B795F7959E3F08F0B3CF4F
:102E30009395880F08F09927EE0F97958795089539
:102E4000D4D008F481E008950CD00AC102D140F03A
:102E5000F9D030F021F45F3F19F0EBC0511134C1CB
:102E6000EEC00FD198F39923C9F35523B1F3951B05
:102E7000550BBB27AA2762177307840738F09F5F9B
:102E80005F4F220F331F441FAA1FA9F333D00E2E0A
:102E90003AF0E0E830D091505040E695001CCAF777
:102EA00029D0FE2F27D0660F771F881FBB1F26173C
:102EB00037074807AB07B0E809F0BB0B802DBF010F
:102EC000FF2793585F4F2AF09E3F510568F0B1C02D
:102ED000FBC05F3FECF3983EDCF3869577956795F2
:102EE000B795F7959F5FC9F7880F911D96958795C0
:102EF00097F90895E1E0660F771F881FBB1F6217DF
:102F000073078407BA0720F0621B730B840BBA0B9C
:102F1000EE1F88F7E0950895BCD088F09F5790F099
:102F2000B92F9927B751A0F0D1F0660F771F881FEE
:102F3000991F1AF0BA95C9F712C0B13081F0C3D009
:102F4000B1E00895C0C0672F782F8827B85F39F0A7
:102F5000B93FCCF3869577956795B395D9F73EF44D
:102F600090958095709561957F4F8F4F9F4F0895F5
:102F7000E89409C097FB3EF4909580957095619513
:102F80007F4F8F4F9F4F9923A9F0F92F96E9BB27C9
:102F90009395F695879577956795B795F111F8CF45
:102FA000FAF4BB0F11F460FF1BC06F5F7F4F8F4FB0
:102FB0009F4F16C0882311F096E911C0772321F0A6
:102FC0009EE8872F762F05C0662371F096E8862F3E
:102FD00070E060E02AF09A95660F771F881FDAF795
:102FE000880F9695879597F90895990F0008550FC2
:102FF000AA0BE0E8FEEF16161706E807F907C0F07F
:1030000012161306E407F50798F0621B730B840B86
:10301000950B39F40A2661F0232B242B252B21F460
:1030200008950A2609F4A140A6958FEF811D811D00
:10303000089597F99F6780E870E060E008959FEF3A
:1030400080EC089500240A9416161706180609063F
:10305000089500240A94121613061406050608950E
:10306000092E0394000C11F4882352F0BB0F40F496
:10307000BF2B11F460FF04C06F5F7F4F8F4F9F4FD6
:10308000089557FD9058440F551F59F05F3F71F058
:103090004795880F97FB991F61F09F3F79F08795BF
:1030A0000895121613061406551FF2CF4695F1DF48
:1030B00008C0161617061806991FF1CF86957105D8
:1030C000610508940895E894BB2766277727CB010C
:1030D00097F908958ADF08F48FEF0895991B79E036
:1030E00004C0991F961708F0961B881F7A95C9F798
:1030F00080950895AA1BBB1B51E107C0AA1FBB1FE7
:10310000A617B70710F0A61BB70B881F991F5A9573
:10311000A9F780959095BC01CD01089597FB092EE4
:1031200007260AD077FD04D0E5DF06D000201AF488
:10313000709561957F4F0895F6F7909581959F4F13
:103140000895EF92FF920F931F93322FF02E47FFB7
:1031500002C0A4E101C0A4E0E42FFF27E7FDF09541
:10316000F7FF03C0F095E195FF4F4F2D512F2E2F04
:10317000032FEA2E0E94021B8F2D912F1F910F917A
:10318000FF90EF900895EF92FF920F931F93CF93CC
:10319000DF938C01E091AB01F091AC01838181FF61
:1031A0001FC0C0E0D0E00AC0DB011896ED91FC9191
:1031B00019970995009711F0CFEFDFEFF801819192
:1031C0008F016091AB017091AC01882369F7DB013D
:1031D0001896ED91FC9119978AE00995009711F0E6
:1031E000CFEFDFEFCE01CDB7DEB7E6E00C94F91DEF
:1031F000AEE0B0E0EEEFF8E10C94DF1D0D891E8922
:1032000086E08C831A8309838FEF9FE79E838D83EB
:103210009E01275E3F4FCE0101966F89788DA901EF
:103220000E941B19EF81F885E00FF11F10822E9686
:10323000E4E00C94FB1DACE0B0E0E1E2F9E10C94B9
:10324000D11D6C011B018A01FC011782168283814A
:1032500081FFD1C12E010894411C511CF6019381BC
:10326000F10193FD859193FF81911F01882309F45A
:10327000BEC1853239F493FD859193FF81911F0181
:10328000853229F490E0B6010E94471DE7CFEE2475
:10329000FF2420E02032B0F48B3269F08C3228F425
:1032A000803251F0833271F40BC08D3239F08033AB
:1032B00049F421602CC02260246029C0286027C006
:1032C000206125C027FD2CC0382F30533A3098F4A8
:1032D00026FF08C08E2D880FE82EEE0CEE0CE80EAF
:1032E000E30E15C08F2D880FF82EFF0CFF0CF80E83
:1032F000F30E20620CC08E3221F426FD78C12064CA
:1033000006C08C3611F4206802C0883649F4F101F9
:1033100093FD859193FF81911F01882309F0BACF16
:10332000982F9554933018F09052933028F40C5FF6
:103330001F4FFFE3F9830DC0833631F0833771F0FF
:10334000833509F060C022C0F801808189830E5F57
:103350001F4F420171E0A72EB12C16C062E0662E0D
:10336000712C600E711EF8018080918026FF03C0D1
:103370006E2D70E002C06FEF7FEFC4012C870E94BA
:103380003C1D5C0183012C852F7717C052E0652E10
:10339000712C600E711EF8018080918026FF03C0A1
:1033A0006E2D70E002C06FEF7FEFC4012C870E948A
:1033B000311D5C012C852068830123FD20C008C0DD
:1033C00080E290E0B6012C870E94471DFA942C857C
:1033D0008F2D90E0A816B90698F311C0F40127FDCF
:1033E000859127FF81914F0190E0B6012C870E94C3
:1033F000471D2C85F110FA940894A108B108A11476
:10340000B10461F7F1C0843611F0893649F527FF20
:1034100008C0F80160817181828193810C5F1F4F28
:1034200009C0F80160817181882777FD8095982F08
:103430000E5F1F4F4FE6B42EB22297FF09C0909542
:103440008095709561957F4F8F4F9F4FF0E8BF2A11
:10345000A2012AE030E00E94731D782E741845C046
:10346000853731F43FEEB32EB2222AE030E025C09A
:1034700099EFB92EB2228F36C1F0803720F488350B
:1034800009F0B5C00DC0803721F0883709F0AFC012
:1034900002C020E1B22AB4FE0BC084E0B82A08C002
:1034A000B4FE09C0E6E0BE2A06C028E030E005C050
:1034B00020E130E002C020E132E0B7FE08C0F801B0
:1034C00060817181828193810C5F1F4F07C0F80179
:1034D0006081718180E090E00E5F1F4FA2010E9429
:1034E000731D782E7418FFE7BF22B6FE0BC02EEFB7
:1034F000B2227E1438F4B4FE07C0B2FC05C08FEED1
:10350000B82202C0A72C01C0AE2C8B2D90E0B4FED7
:103510000DC0FE01E70DF11D2081203319F4E9EE05
:10352000BE2209C0A394B2FE06C004C08678907083
:10353000009709F0A3948B2C9924B3FC14C0B0FE1F
:103540000FC0AF1428F4E72CEF0CEA18AF2C08C01A
:10355000E72C06C080E290E0B6010E94471DA394CC
:10356000AF14C0F304C0AF1410F4FA1801C0FF2464
:1035700084FE0FC080E390E0B6010E94471D82FEEA
:103580001FC081FE03C088E590E010C088E790E08E
:103590000DC0C40186789070009791F081FC02C044
:1035A00080E201C08BE2B7FC8DE290E0B6010E94A0
:1035B000471D06C080E390E0B6010E94471DEA94D3
:1035C0007E14C0F37A94F201E70DF11D808190E042
:1035D000B6010E94471D7720A9F706C080E290E05F
:1035E000B6010E94471DFA94FF20C1F737CEF601BD
:1035F0002681378102C02FEF3FEFC9012C96E2E10F
:103600000C94ED1DA9E0B0E0E8E0FBE10C94D91DBD
:103610006A01F22E102F0C3318F4B02EB39402C0AE
:10362000ECE3BE2EAE014F5F5F4F27E00B2D0E94F3
:10363000591C298130E0A901497050704130510571
:1036400031F0E1FC06C0E0FE06C0E0E205C0EDE2BC
:1036500003C0EBE201C0E0E023FF37C0EE2311F02E
:1036600084E001C083E08F1518F4F81A8F2D01C093
:1036700080E0E4FC0BC0982FD60120E202C02D931D
:1036800091509923E1F7C80ED11C80E0EE2319F088
:10369000D601ED936D01F6013196E2FE05C09EE480
:1036A000D6019C9321E404C09EE6D6019C9321E6BA
:1036B00011962C9391833296982FDF0120E202C05D
:1036C0002D9391509923E1F73DC022FF41C0EE2395
:1036D00011F084E001C083E08F1518F4F81A8F2DE3
:1036E00001C080E0E4FC0BC0982FD60120E202C0AC
:1036F0002D9391509923E1F7C80ED11C80E0EE2361
:1037000019F0D601ED936D01F6013196E2FE09C084
:1037100099E4D6019C939EE411969C93119796E4AC
:1037200007C099E6D6019C939EE611969C9396E677
:1037300091833296982FDF0120E202C02D939150A1
:103740009923E1F7E80FF11D10822EEF3FEFACC097
:1037500041E050E0EE2311F440E050E01816190665
:1037600024F4BC016F5F7F4F02C061E070E0640F22
:10377000751F112329F0412F50E04F5F5F4F02C0AA
:1037800040E050E0460F571F6F2D70E04617570777
:103790001CF40F2D041B01C000E0FF24A7014071A1
:1037A0005070E4FC0DC0E3FC0BC0602FD60170E24A
:1037B00002C07D9361506623E1F7C00ED11C00E08A
:1037C000EE2319F0D601ED936D014115510559F421
:1037D000402FF60150E302C0519341504423E1F7DA
:1037E000C00ED11C00E0B80EFA80A90140715070E3
:1037F00024FF04C0BF2DB13309F4BA941B142CF478
:10380000AB2DA93018F0A8E001C0A1E09C0197FF02
:1038100002C020E030E0BC016F5F7F4F621B730B82
:10382000FE013196E60FF71F6EE2E62EBC016A1B21
:103830007109A12FB0E0AA24BB24AA1ABB0A1FEF6A
:103840002F3F310719F4D601ED926D0182179307CE
:103850002CF06217730714F4108101C010E321509B
:10386000304031962A153B0524F0D6011D936D0199
:10387000E6CF2817390749F4BF2DB63328F4B533FE
:1038800021F44115510509F411E3F6011193802F3C
:10389000DF0190E202C09D9381508823E1F7E00FA1
:1038A000F11D108220E030E0C9012996EAE00C9475
:1038B000F51D283008F027E03327DA01990F311D74
:1038C00087FD916000966105710539F432602E5FC5
:1038D0003D9330E32A95E1F708959F3F30F080381B
:1038E0007105610509F03C5F3C5F3D93913008F044
:1038F0008068911DDF93CF931F930F93FF92EF92F8
:10390000192F987F9695E92F96959695E90FFF27A1
:10391000EA5BFF4E99273327EE24FF24A701E70136
:1039200005900894079428F4360FE71EF81E491FE7
:10393000511D660F771F881F991F0694A1F70590E8
:10394000079428F4E70EF81E491F561FC11D770F74
:10395000881F991F661F0694A1F70590079428F405
:10396000F80E491F561FC71FD11D880F991F661FCC
:10397000771F0694A1F70590079420F4490F561F6E
:10398000C71FD81F990F661F771F881F0694A9F7B6
:1039900084911095177041F0D695C7955795479526
:1039A000F794E7941A95C1F7ECEEFFE06894159050
:1039B000159135916591959105907FE27395E11888
:1039C000F10A430B560BC90BD009C0F7E10CF11EED
:1039D000431F561FC91FD01D7EF4703311F48A9502
:1039E000E6CFE894015030F0080F0AF400270217E0
:1039F00008F4202F2395022F7A3328F079E37D9362
:103A00002A95E9F710C07D932A9589F60694979533
:103A10006795379517951794E118F10A430B560BE4
:103A2000C90BD00998F023957E9173957A3308F0ED
:103A300070E37C932013B8F77E9170617D9330F032
:103A4000839571E37D9370E32A95E1F71124EF905C
:103A5000FF900F911F91CF91DF91992787FD90954E
:103A60000895FC010590615070400110D8F78095D1
:103A700090958E0F9F1F0895FC016150704001903A
:103A80000110D8F7809590958E0F9F1F08950F9382
:103A90001F93CF93DF938C01EB018B8181FF1BC0C0
:103AA00082FF0DC02E813F818C819D8128173907AF
:103AB00064F4E881F9810193F983E88306C0E8851D
:103AC000F985802F0995009731F48E819F810196A9
:103AD0009F838E8302C00FEF1FEFC801DF91CF914C
:103AE0001F910F910895FA01AA27283051F1203132
:103AF00081F1E8946F936E7F6E5F7F4F8F4F9F4F82
:103B0000AF4FB1E03ED0B4E03CD0670F781F891FC3
:103B10009A1FA11D680F791F8A1F911DA11D6A0F91
:103B2000711D811D911DA11D20D009F468943F9144
:103B30002AE0269F11243019305D3193DEF6CF0143
:103B40000895462F4770405D4193B3E00FD0C9F709
:103B5000F6CF462F4F70405D4A3318F0495D31FD76
:103B60004052419302D0A9F7EACFB4E0A6959795C9
:103B7000879577956795BA95C9F70097610571059F
:103B800008959B01AC010A2E0694579547953795E9
:103B90002795BA95C9F7620F731F841F951FA01D43
:103BA00008952F923F924F925F926F927F928F92E1
:103BB0009F92AF92BF92CF92DF92EF92FF920F93BC
:103BC0001F93CF93DF93CDB7DEB7CA1BDB0B0FB6C6
:103BD000F894DEBF0FBECDBF09942A883988488883
:103BE0005F846E847D848C849B84AA84B984C88419
:103BF000DF80EE80FD800C811B81AA81B981CE0F10
:103C0000D11D0FB6F894DEBF0FBECDBFED010895F4
:043C1000F894FFCF56
:103C1400253032692D253032692D25303269005323
:103C240074617274210D00C40F00009041D80F001C
:103C340000504100000003000000007216821600CC
:023C440000007E
:00000001FF
