:1000000039C348C347C346C345C344C343C342C3BC
:1000100041C340C33FC33EC33DC33CC33BC33AC3DC
:1000200039C338C337C336C335C322080A0E20602C
:100030000402050607080902030305080204020476
:10004000070407070707070707070202070707084C
:100050000E0908080807070908020708070B08091E
:10006000070909070808090D070808040404060819
:10007000030707060707050707020306020A070723
:10008000070705060507070B06070505010507080D
:100090000000000000000000FEFE18181E1E001EDA
:1000A0001E000000000090F89E90F89E1C00001CAE
:1000B0000000183C26FF66CC88040C183C180C0481
:1000C0001C221CC0308E408000001804000C100C54
:1000D00080CC7E72F2DE0C80000C1C1010101C0C08
:1000E0001C101E1E0000F0FC061C7CC006FCF0C0AC
:1000F0007C1C14140E14140000000000606060FCEE
:10010000FC6060600000000C0C000000000058382B
:10011000C0C0C0C0000000000000181800C03806B1
:1001200018040000F8FC0E060EFCF8040C1C181C49
:100130000C04180CFEFE00001C1C181C86C6663E33
:100140001C181C1C18181818888C062626FEDC049F
:100150000C1C18180C04C0E0B88CFEFE80040404CB
:10016000041C1C04707E3E3636F6C60C1C1818188B
:100170000C04F8FC6E6666EECC040C1818181C0C07
:10018000060606E6761E0600001C1C0000009CFE0B
:10019000666666FE9C0C1C1818181C0C3C7E666675
:1001A00066FCF80C1C18181C0C04181818181818E1
:1001B00058386060F0F098980C0000000004040CBF
:1001C000D8D8D8D8D8D8D8000000000000000C98A3
:1001D00098F0F060600C040400000000080C06C6F3
:1001E000E6763C180000001818000000E03008C453
:1001F000F63A1A1AF2FA7E0408F00C30604C9C9819
:10020000988C9C9C90484C2000C0F8BE86BEF8C0DC
:1002100000181C04040404041C18FEFE66666666CE
:10022000FEDC1C1C181818181C0CF8FC0E06060E18
:100230009C08040C1C18181C0C04FEFE0606060E76
:10024000FCF81C1C1818181C0C04FEFE666666667A
:10025000661C1C1818181818FEFE66666666061CD2
:100260001C0000000000F8FC0E0606C6CEDCC80428
:100270000C1C181818180C04FEFE60606060FEFE6E
:100280001C1C000000001C1CFEFE1C1C80800000CA
:1002900000FEFE0C1C1818181C0CFEFE603078ECDA
:1002A00086021C1C000000041C18FEFE000000005A
:1002B000001C1C1818181818FEFE0E7CE000E07CCC
:1002C0000EFEFE1C1C00000C1C0C00001C1CFEFE84
:1002D0001C78E080FEFE1C1C0000040C1C1CF8FCBA
:1002E0000E0606060EFCF8040C1C1818181C0C044C
:1002F000FEFE6666667E3C1C1C0000000000F8FCEA
:100300000E0686060EFCF8040C1C18181C0C1C2487
:10031000FEFE6666E6E6BE1C001C1C0000000C1C0F
:1003200018103C7E666666EECC0C1C1818181C0C67
:10033000060606FEFE0606060000001C1C00000065
:10034000FEFE00000000FEFE040C1C18181C0C042D
:10035000021EFCE000E0FC1E020000001C1C1C0051
:10036000000006FEF800F0FE0EFEF000F8FE0600AB
:10037000001C1C1C0000001C1C1C0000060EF8F0D9
:10038000F80E06181C0400041C18060E38F0F0388D
:100390000E060000001C1C000000060686E6761E05
:1003A0000E06181C1C1818181818FEFE0606FCFC71
:1003B000C0C00638C000000004180606FEFEC0C01B
:1003C000FCFC20380E0E3820000000000000000069
:1003D0000000000000008080808080808080020615
:1003E000040000001098D858F8F0000C1C18180CE5
:1003F0001C10FEFE301838F0E01C1C0C181C0C04FD
:10040000E0F018183830040C18181C0CE0F03818FC
:1004100030FEFE040C1C180C1C1CE0F0D8D8D8F0E0
:10042000E0040C181818180818FCFE1A1A001C1CF6
:100430000000E0F0381830F8F864ECDCD8CCFC7C34
:10044000FEFE301818F8F01C1C0000001C1CFAFA04
:100450001C1C00FAFAC0FC7CFEFEE0F098081C1C94
:1004600000041C18FEFE1C1CF8F81018F8F01818F0
:10047000F8F01C1C00001C1C00001C1CF8F83018B4
:1004800018F8F01C1C0000001C1CE0F0381838F0B4
:10049000E0040C1C181C0C04F8F8301838F0E0FCD0
:1004A000FC0C181C0C04E0F0381830F8F8040C1C94
:1004B000180CFCFCF8F83018181C1C00000070F830
:1004C000D8D8D890081818181C0C18FCFE1818005A
:1004D0000C1C1818F8F8000000F8F80C1C18180C80
:1004E0001C1C38F8C000C0F83800001C1C1C0000A0
:1004F00018F8E000F038F000E0F81800001C1C0CC0
:10050000000C1C1C00001838E0E03818181C04040B
:100510001C1818F8E000E0F8180084FCF83C04000F
:100520001898D878381C1C18181880FC7E0606000D
:100530007CFCC0C0FEFC06067EFC80C0C0FC7C00CB
:100540006030307060603000000000000000FE028B
:100550000202020202FE1C1010101010101C486152
:100560006C6C6F20776572656C64210048616C6CFF
:100570006F20776572656C64210000407A10F35A31
:1005800000A0724E18090010A5D4E80000E87648D3
:10059000170000E40B54020000CA9A3B000000E17F
:1005A000F505000080969800000040420F00000012
:1005B000A08601000000102700000000E8030000F2
:1005C00000006400000000000A00000000000100BC
:1005D000000000002C76D888DC674F0823DFC1DFDD
:1005E000AE59E1B1B796E5E3E453C63AE6519976E0
:1005F00096E8E6C28426EB898C9B62ED407C6FFC1A
:10060000EFBC9C9F40F2BAA56FA5F490055A2AF75B
:100610005C936B6CF9676DC11BFCE0E40D47FEF564
:1006200020E6B500D0ED902E0300943577050080CC
:10063000841E080000204E0A000000C80C3333332B
:10064000330F986E12831141EF8D2114893BE655CB
:1006500016CFFEE6DB18D1844B381BF77C1D901DAE
:10066000A4BBE424203284725E228100C9F124EC10
:10067000A1E53D2711241FBECFE5D2E0DEBFCDBFEF
:1006800010E0A0E6B0E001C01D92A936B107E1F785
:100690007CD606CBB5CCFC0184910895909368007C
:1006A00080936700709366006093650040936100DB
:1006B00008950F931F93082F2091670030916800D1
:1006C000E0916500F0916600C90104960995182F24
:1006D0002091670030916800E0916500F09166001C
:1006E000C901059609950117D0F0402F50E0212F40
:1006F00030E0280F311D421753078CF4011B802F67
:1007000090E006962091670030916800E0916500C6
:10071000F0916600820F931F09958F5F01C080E002
:100720001F910F910895EF92FF920F931F93CF9314
:10073000DF93082F192FC0E0D0E003C0BADFC80F45
:10074000D11DF80181918F018823C1F7CE01DF917E
:10075000CF911F910F91FF90EF900895EF92FF922C
:100760000F931F93CF93DF938C01C0E0D0E007C0BD
:100770000F5F1F4FFC0184919CDFC80FD11DC80182
:10078000F80124912223A1F7CE01DF91CF911F918F
:100790000F91FF90EF900895DF93CF930F92CDB715
:1007A000DEB7662319F4AB98AA9A04C0613011F43D
:1007B000AA98AB9AAE98AC989FEF91BB82BBAD9ACA
:1007C000000000000000AD98198203C089818F5F8E
:1007D000898389818830D0F312BA0F90CF91DF914D
:1007E00008951F9387FD80E0603408F060E08093F7
:1007F00062006093630066956695669560936400F9
:10080000803418F0805461E001C060E08064C4DF8F
:1008100010916400186B812F60E0BEDF812F61E0D2
:10082000BBDF1F9108951F93DF93CF930F92CDB736
:10083000DEB712BA11BA90916200903418F4AB98F6
:10084000AA9A02C0AA98AB9A90916200903429F4B7
:10085000882319F080E461E09FDFAE9AAC9AAD9AEC
:1008600000000000000010B3AD98198203C0898118
:100870008F5F898389818830D0F38FEF81BB80912E
:10088000620060916300ADDF80916000811110957E
:10089000812F0F90CF91DF911F91089581E0C3DFE9
:1008A00080E0C1DF0895DF92EF92FF920F931F93D4
:1008B000DF93CF9300D0CDB7DEB7082F80916200D1
:1008C00087FD7EC0803418F4AB98AA9A02C0AA981B
:1008D000AB9A80916200803411F461E05DDFAE9AE2
:1008E000AC981FEF11BB20916300277009F450C032
:1008F000D5B22A83D3DFD5BA11BB10E02A81E22E0C
:10090000FF24A80102C0440F551F2A95E2F7842B4B
:10091000909160009111809582BBAD9A000000001B
:100920000000AD98198203C089818F5F8983898116
:100930008830D0F360916300685F8091620051DF7E
:10094000ADDFD5BA9FEF91BB28E030E02E193F090B
:1009500002C0159507952A95E2F7082B8091600053
:100960008111009502BBAD9A000000000000AD9817
:10097000198203C089818F5F898389818830D0F390
:10098000809162006091630068508F5F2ADF17C01A
:10099000809160008111009502BBAD9A00000000BB
:1009A0000000AD98198203C089818F5F8983898196
:1009B0008830D0F3809162008F5F8093620012BA1A
:1009C0000F900F90CF91DF911F910F91FF90EF90BB
:1009D000DF9008952F923F924F925F926F927F9295
:1009E0008F929F92AF92BF92CF92DF92EF92FF923F
:1009F0000F931F93DF93CF9300D000D000D0CDB7DB
:100A0000DEB7C82E8091670090916800E091650084
:100A1000F091660003960995682E282F2770298388
:100A20008091670090916800E0916500F091660008
:100A300004960995082F2091670030916800E09195
:100A40006500F0916600C90105960995B82E709071
:100A50006200309163003A83C01608F4B7C04C2D91
:100A600050E0202F30E0280F311D421753070CF0C3
:100A7000ADC0C01A56E0E52EF12C00E010E009C030
:100A8000C9018E0D9F1D0995080F111D0894E11CC9
:100A9000F11C8E2D86502091670030916800E09106
:100AA0006500F09166008C1558F3862D90E007964E
:100AB00043E0959587954A95E1F7682EE82EFF2447
:100AC0000E9DA0010F9D500D1E9D500D11248B2DCC
:100AD00090E00696840F951F9E838D838C2D90E069
:100AE0000696820F931F0995B82E982E9194AA24EA
:100AF00002E010E027015DC02D803E80290C311CF2
:100B0000CD80DE80CA0CD11C7101F8013197FC83C5
:100B1000EB8334C08091670090916800E09165009C
:100B2000F09166008C0D9D1D0995882E2B813C81CE
:100B300024153505A1F42091670030916800E091FB
:100B40006500F0916600C9018E0D9F1D099590E02A
:100B5000098002C0959587950A94E2F7882A8091CA
:100B600061008F3F11F4882D02C0882D80959BDE97
:100B70000894C11CD11C0894E11CF11C8E2D821913
:100B80008B1540F2809161008F3F11F480E001C02D
:100B90008FEF89DE609163000415150514F4685F1A
:100BA00002C03981630F872D1CDE0F5F1F4F9B0C26
:100BB000AB0C802F8250861508F49ECF872D8F5F57
:100BC0008B0D6A810EDE20E030E002C021E030E0D3
:100BD000C90126960FB6F894DEBF0FBECDBFCF91E8
:100BE000DF911F910F91FF90EF90DF90CF90BF901A
:100BF000AF909F908F907F906F905F904F903F90BD
:100C00002F9008950F931F93CF93DF93EC011091D2
:100C1000620016C08A3091F4009163002091670051
:100C200030916800E0916500F0916600C90103967B
:100C30000995682F600F812FD4DD01C0CBDE21968E
:100C4000FE018491882331F7DF91CF911F910F919D
:100C50000895EF92FF920F931F93CF93DF9310911C
:100C60006200E82EE7017E01F92EE70115C08A3007
:100C700091F4009163002091670030916800E09149
:100C80006500F0916600C90103960995682F600F11
:100C9000812FA7DD01C09EDE8991882341F7DF9176
:100CA000CF911F910F91FF90EF9008951F93DF93C5
:100CB000CF930F92CDB7DEB7162F687F498391DDB2
:100CC000EDDD612F70E049814F3F59F4677070701E
:100CD00021E030E002C0220F331F6A95E2F7282B93
:100CE0000BC06770707021E030E002C0220F331F2C
:100CF0006A95E2F720952823822FD5DD0F90CF91BA
:100D0000DF911F910895AF92BF92CF92DF92EF9241
:100D1000FF920F931F93CF93DF93182F042FE22E90
:100D2000E394262F2770F62EF21ACE2DD0E0E8E0BD
:100D3000F0E0CF01821B9109C817D90764F4CF01F5
:100D40008C1B9D0BEFEFF0E002C0F595E7958A95BF
:100D5000E2F7DE2C04C068E0D62ED21AEFEFCE2EDA
:100D600001C0CC0C2A95EAF7812F6F2D3ADDBB2408
:100D7000AC2CA09493DD982F90959C218A21892BEF
:100D800092DDB3940B15B0F70DC088E0D80EF80EC5
:100D9000812F6F2D26DDCC2481DD809584DDC394E9
:100DA0000C15D0F7ED2DF0E0CF0107968C179D07BD
:100DB00064F3DE14E8F4CE1BDF0B2FEF30E00C2ED3
:100DC00002C0220F331F0A94E2F7E22EE0946F2D47
:100DD000685F812F06DD10E0FE2CF0945FDD982F18
:100DE00090959E218F21892B5EDD1F5F0117B0F743
:100DF000DF91CF911F910F91FF90EF90DF90CF90F7
:100E0000BF90AF9008951F93182F809160008117B5
:100E100039F080E060E04FE72FE375DF109360006A
:100E20001F9108959F92AF92BF92CF92DF92EF925F
:100E3000FF920F931F93CF93DF93182FF42ED22E90
:100E4000E02ED394262F2770062F021BCD2DD0E045
:100E5000E8E0F0E0CF01821B9109C817D90764F4DC
:100E6000CF018C1B9D0BEFEFF0E002C0F595E795ED
:100E70008A95E2F7CD2C04C078E0C72EC21AEFEFB6
:100E8000BE2E01C0BB0C2A95EAF7812F602FA9DC8A
:100E9000AA249B2C909402DD9E2D9F3F11F48B2958
:100EA00001C0892100DDA394FA14A8F70CC088E0E2
:100EB000C80E085F812F602F94DCBB248E2DF3DCDD
:100EC000B394FB14D8F7EC2DF0E0CF0107968C1704
:100ED0009D076CF3CD14F0F4CE1BDF0B2FEF30E049
:100EE0000C2E02C0220F331F0A94E2F7D22ED094A8
:100EF000602F685F812F75DC10E00D2D0095CEDC32
:100F00009E2D9F3F11F48D2901C08023CCDC1F5FF3
:100F1000F116A8F7DF91CF911F910F91FF90EF90FD
:100F2000DF90CF90BF90AF909F9008950F93109255
:100F300062001092630010926400809360008FEF53
:100F400084BB8FE360E028DC8FE361E025DC80EC8C
:100F500060E022DC80EC61E01FDC80E060E04FE7D5
:100F60002FE300E05FDF80E060E03BDC0F9108955D
:100F70002F923F924F925F926F927F928F929F92A9
:100F8000AF92BF92CF92DF92EF92FF920F931F9397
:100F9000DF93CF93CDB7DEB72B970FB6F894DEBFB4
:100FA0000FBECDBF582F162F742F2D83C02EDD24DA
:100FB000882799278C199D09880F991F03969B876D
:100FC0008A87902E950EF02EF60E942F950F99830A
:100FD000901B9A83E22FE60FEB83E01BEC837E2EBF
:100FE000892E5F2C492C20E030E0AA24BB246C2CF5
:100FF0003F2C3C18842D632D4E2D2E833F83598723
:10100000788754DE292C2C18822D652D4E2D4EDE2E
:10101000882D632D4E2D4ADE3A803C0C832D652DA4
:101020004E2D44DEFC816F0E882D662D4E2D3EDE4A
:10103000832D672D4E2D3ADE842D662D4E2D36DE06
:10104000822D672D4E2D32DE2E813F815985788588
:101050008A859B8597FF06C00696820F931F9B8704
:101060008A8711C0EA85FB853A96C5018C199D09CE
:10107000880F991F880F991FE80FF91FFB87EA87D0
:101080000894C108D1080894A11CB11C4A945A9430
:10109000839473942C5F3F4FCA14DB040CF0A7CFEA
:1010A000C02EC194CC0CAC2CA70E892D612F4A2DDB
:1010B00020E00E2D5987B6DE892D6B814A2D20E068
:1010C000B1DEFD81CF0E5985852F6F2D40E02C2D8F
:1010D000A9DE89816F2D40E02C2DA4DE2B960FB662
:1010E000F894DEBF0FBECDBFCF91DF911F910F915E
:1010F000FF90EF90DF90CF90BF90AF909F908F9038
:101100007F906F905F904F903F902F900895CF9277
:10111000DF92EF92FF920F931F93E82EF62EC42ECC
:10112000D22E20E07FDE6D2D6F0D8E2D4C2D20E018
:1011300079DE8E2D6F2D40E02D2D74DE8C2D8E0DE1
:101140006F2D40E02D2D6EDE1F910F91FF90EF90DF
:10115000DF90CF9008952F923F924F925F926F92BF
:101160007F928F929F92AF92BF92CF92DF92EF9237
:10117000FF920F931F93CF93DF93182FF62EE42E39
:10118000D22EC02E841751F4261710F4F22ED62E2C
:101190002D2D2F19812F6F2D40E00BC0621761F4A8
:1011A000481710F4142FE82E4E2D411B812F6F2D60
:1011B00020E00C2D37DEC6C030E0462F50E08E2DEB
:1011C00090E0811B9109B901641B750B68177907C1
:1011D00034F4421B530B481759070CF45AC0E1165C
:1011E00030F48F2DFD2CD82E812F1E2DE82EAE2C05
:1011F000A11AED2DF0E02F2D30E04F01821A930A55
:10120000CA2DD0E048EC50E0849EC001859E900D30
:10121000949E900D1124BE0198D21B010F2DEE2437
:1012200088EC482E512C39016E1A7F0A2E2D30E0A1
:10123000229DC001239D900D329D900D1124B2017D
:1012400084D2BF2CB60E8436910514F0B39405C039
:101250002FEF8D3992070CF4BA944E2D410F842F45
:10126000602F2B2D0C2D77DF8C169D062CF0FD1496
:1012700018F40B2D0F5F09C06C167D062CF0DF14DF
:1012800018F40B2D015001C00B2DE394AE1470F631
:1012900059C0DF1430F48F2DFD2CD82E812F1E2D38
:1012A000E82EAD2CAF18EE2DF0E0212F30E04F01ED
:1012B000821A930ACA2DD0E048EC50E0849EC00107
:1012C000859E900D949E900D1124BE013ED21B016F
:1012D000412FDD2408EC402E512C39016E1A7F0A73
:1012E0002D2D30E0229DC001239D900D329D900D4B
:1012F0001124B2012AD2B12EB60E8436910514F013
:10130000B39405C02FEF8D3992070CF4BA942D2DAC
:101310002F0D842F622F4B2D0C2D1DDF8C169D065B
:101320002CF01E1518F44B2D4F5F09C06C167D066E
:101330002CF0E11618F44B2D415001C04B2DD394E5
:10134000AD1470F6DF91CF911F910F91FF90EF9048
:10135000DF90CF90BF90AF909F908F907F906F90D5
:101360005F904F903F902F90089596B196B917B81F
:1013700097B1982B97B986B1806C86B9349BFECF14
:10138000349A24B135B1C9010895CF92DF92EF921A
:101390000F931F93DF93CF93CDB7DEB72C970FB684
:1013A000F894DEBF0FBECDBF1A82198205C08981B5
:1013B0009A8101969A83898389819A812AE388395F
:1013C0009207A8F380E28ABB17BA8FEF84BB81BB78
:1013D000DD9A86B1866086B987B187B9379A369A21
:1013E00080E0A4DD8AE290E06BE473E04FEF56D931
:1013F0008FE06AE0F6D98CE695E004DC85E065E0F4
:1014000045E724E108E0EE24EA94B2DD83E0C82E4B
:10141000D12CCC0EDD1E80E060E04FE72FE300E032
:1014200001DD83E0A2DFBC0180E090E09DD020E000
:1014300030E040EA50E426D120E030E048EC52E4CD
:1014400021D120E030EC4FE754E426D041E021E008
:101450008601A2D18FE06AE0C4D98EE595E0D2DBA7
:1014600085E065E045E724E108E0EE24EA9480DDCC
:101470008FE06EE1B6D9C601ECDB85E065E045E7BB
:1014800028E276DD8FEF94E3ACE081509040A040FD
:10149000E1F700C00000BFCF0CD0BAC0B2D040F01E
:1014A000A9D030F021F45F3F19F09BC05111E4C086
:1014B0009EC0BFD098F39923C9F35523B1F3951B70
:1014C000550BBB27AA2762177307840738F09F5F65
:1014D0005F4F220F331F441FAA1FA9F333D00E2ED4
:1014E0003AF0E0E830D091505040E695001CCAF741
:1014F00029D0FE2F27D0660F771F881FBB1F261706
:1015000037074807AB07B0E809F0BB0B802DBF01D8
:10151000FF2793585F4F2AF09E3F510568F061C046
:10152000ABC05F3FECF3983EDCF38695779567950B
:10153000B795F7959F5FC9F7880F911D9695879589
:1015400097F90895E1E0660F771F881FBB1F6217A8
:1015500073078407BA0720F0621B730B840BBA0B66
:10156000EE1F88F7E0950895E89409C097FB3EF4D4
:1015700090958095709561957F4F8F4F9F4F9923E0
:10158000A9F0F92F96E9BB279395F695879577955E
:101590006795B795F111F8CFFAF4BB0F11F460FF1E
:1015A0001BC06F5F7F4F8F4F9F4F16C0882311F076
:1015B00096E911C0772321F09EE8872F762F05C08A
:1015C000662371F096E8862F70E060E02AF09A9525
:1015D000660F771F881FDAF7880F9695879597F91A
:1015E000089597F99F6780E870E060E008959FEFA5
:1015F00080EC089500240A941616170618060906AA
:10160000089500240A941216130614060506089578
:10161000092E0394000C11F4882352F0BB0F40F400
:10162000BF2B11F460FF04C06F5F7F4F8F4F9F4F40
:10163000089557FD9058440F551F59F05F3F71F0C2
:101640004795880F97FB991F61F09F3F79F0879529
:101650000895121613061406551FF2CF4695F1DFB2
:1016600008C0161617061806991FF1CF8695710542
:10167000610508940895E894BB2766277727CB0176
:1016800097F908950BD0C4CFB5DF28F0BADF18F072
:10169000952309F0A6CFABCF1124EECFCADFA0F37C
:1016A000959FD1F3950F50E0551F629FF001729FF7
:1016B000BB27F00DB11D639FAA27F00DB11DAA1F16
:1016C000649F6627B00DA11D661F829F2227B00D63
:1016D000A11D621F739FB00DA11D621F839FA00DEE
:1016E000611D221F749F3327A00D611D231F849F3E
:1016F000600D211D822F762F6A2F11249F57504095
:101700008AF0E1F088234AF0EE0FFF1FBB1F661F2F
:10171000771F881F91505040A9F79E3F510570F0E8
:1017200060CFAACF5F3FECF3983EDCF386957795C8
:101730006795B795F795E7959F5FC1F7FE2B880FE3
:10174000911D9695879597F9089597FB092E072681
:101750000AD077FD04D00CD006D000201AF4709582
:1017600061957F4F0895F6F7909581959F4F089565
:10177000AA1BBB1B51E107C0AA1FBB1FA617B707B7
:1017800010F0A61BB70B881F991F5A95A9F78095D3
:101790009095BC01CD010895EF92FF920F931F9396
:1017A000322FF02E47FF02C0A4E101C0A4E0E42FD5
:1017B000FF27E7FDF095F7FF03C0F095E195FF4F98
:1017C0004F2D512F2E2F032FEA2E07D08F2D912F23
:1017D0001F910F91FF90EF900895A9E0B0E0E2EF24
:1017E000FBE02FC26A01F22E102F0C3318F4B02E3A
:1017F000B39402C0ECE3BE2EAE014F5F5F4F27E013
:101800000B2D3FD1298130E0A90149705070413042
:10181000510531F0E1FC06C0E0FE06C0E0E205C083
:10182000EDE203C0EBE201C0E0E023FF37C0EE23AE
:1018300011F084E001C083E08F1518F4F81A8F2DA1
:1018400001C080E0E4FC0BC0982FD60120E202C06A
:101850002D9391509923E1F7C80ED11C80E0EE231F
:1018600019F0D601ED936D01F6013196E2FE05C047
:101870009EE4D6019C9321E404C09EE6D6019C938D
:1018800021E611962C9391833296982FDF0120E266
:1018900002C02D9391509923E1F73DC022FF41C032
:1018A000EE2311F084E001C083E08F1518F4F81ADC
:1018B0008F2D01C080E0E4FC0BC0982FD60120E200
:1018C00002C02D9391509923E1F7C80ED11C80E0FE
:1018D000EE2319F0D601ED936D01F6013196E2FE8B
:1018E00009C099E4D6019C939EE411969C931197AC
:1018F00096E407C099E6D6019C939EE611969C93C8
:1019000096E691833296982FDF0120E202C02D9354
:1019100091509923E1F7E80FF11D10822EEF3FEF70
:10192000ACC041E050E0EE2311F440E050E0181666
:10193000190624F4BC016F5F7F4F02C061E070E0C4
:10194000640F751F112329F0412F50E04F5F5F4F47
:1019500002C040E050E0460F571F6F2D70E0461761
:1019600057071CF40F2D041B01C000E0FF24A70142
:1019700040715070E4FC0DC0E3FC0BC0602FD60139
:1019800070E202C07D9361506623E1F7C00ED11C66
:1019900000E0EE2319F0D601ED936D0141155105DC
:1019A00059F4402FF60150E302C0519341504423B3
:1019B000E1F7C00ED11C00E0B80EFA80A901407119
:1019C000507024FF04C0BF2DB13309F4BA941B1426
:1019D0002CF4AB2DA93018F0A8E001C0A1E09C01C7
:1019E00097FF02C020E030E0BC016F5F7F4F621BB9
:1019F000730BFE013196E60FF71F6EE2E62EBC0177
:101A00006A1B7109A12FB0E0AA24BB24AA1ABB0A41
:101A10001FEF2F3F310719F4D601ED926D018217A8
:101A200093072CF06217730714F4108101C010E3C0
:101A30002150304031962A153B0524F0D6011D93E4
:101A40006D01E6CF2817390749F4BF2DB63328F4C6
:101A5000B53321F44115510509F411E3F601119351
:101A6000802FDF0190E202C09D9381508823E1F72F
:101A7000E00FF11D108220E030E0C9012996EAE074
:101A8000FCC0283008F027E03327DA01990F311D18
:101A900087FD916000966105710539F432602E5F13
:101AA0003D9330E32A95E1F708959F3F30F0803869
:101AB0007105610509F03C5F3C5F3D93913008F092
:101AC0008068911DDF93CF931F930F93FF92EF9246
:101AD000192F987F9695E92F96959695E90FFF27F0
:101AE000EC52FA4F99273327EE24FF24A701E70190
:101AF00005900894079428F4360FE71EF81E491F36
:101B0000511D660F771F881F991F0694A1F7059036
:101B1000079428F4E70EF81E491F561FC11D770FC2
:101B2000881F991F661F0694A1F70590079428F453
:101B3000F80E491F561FC71FD11D880F991F661F1A
:101B4000771F0694A1F70590079420F4490F561FBC
:101B5000C71FD81F990F661F771F881F0694A9F704
:101B600084911095177041F0D695C7955795479574
:101B7000F794E7941A95C1F7EAE7F5E068941590B1
:101B8000159135916591959105907FE27395E118D6
:101B9000F10A430B560BC90BD009C0F7E10CF11E3B
:101BA000431F561FC91FD01D7EF4703311F48A9550
:101BB000E6CFE894015030F0080F0AF4002702172E
:101BC00008F4202F2395022F7A3328F079E37D93B0
:101BD0002A95E9F710C07D932A9589F60694979582
:101BE0006795379517951794E118F10A430B560B33
:101BF000C90BD00998F023957E9173957A3308F03C
:101C000070E37C932013B8F77E9170617D9330F080
:101C1000839571E37D9370E32A95E1F71124EF90AA
:101C2000FF900F911F91CF91DF91992787FD90959C
:101C300008952F923F924F925F926F927F928F9270
:101C40009F92AF92BF92CF92DF92EF92FF920F934B
:101C50001F93CF93DF93CDB7DEB7CA1BDB0B0FB655
:101C6000F894DEBF0FBECDBF09942A883988488812
:101C70005F846E847D848C849B84AA84B984C884A8
:101C8000DF80EE80FD800C811B81AA81B981CE0F9F
:101C9000D11D0FB6F894DEBF0FBECDBFED01089584
:041CA000F894FFCFE6
:00000001FF
