:100000000C94D3040C94F0040C94F0040C94F004BD
:100010000C94F0040C94F0040C94F0040C94F00490
:100020000C94F0040C94F0040C94F0040C94F00480
:100030000C94F0040C94F0040C94F0040C94F00470
:100040000C94F0040C94F0040C94E80F0C94F0045D
:100050000C94F0040C94F0040C94F0040C94F00450
:100060000C94F0040C94F0040D170A0920600001B0
:10007000030504070501030303050202010304024B
:100080000404040404030404010204040403080532
:100090000505050404040501030504070506040617
:1000A000050405050509050504020302050402040B
:1000B0000403040402040401020402070404040407
:1000C00002030304030504050303010304035E00A4
:1000D00003000300000028782E782E0000000000A6
:1000E000444AD32200000000044A2418245220006D
:1000F0000000000000003C526C6010000000000096
:1001000003007C820100008001827C8000000C06DC
:100110000C00000010107C10100000000000804057
:10012000000010100000400080F01E8000003C42E3
:10013000423C00000000047E00004462524C00007B
:100140000000424A4A340000000018147E100000EB
:100150000000404E4A3200000000384C4A32000095
:10016000000002720E000000344A4A340000000011
:100170004C52321C00000000440080440000102853
:1001800028440000000028282828000000004428F7
:1001900028100000000002520C0000007CC239450B
:1001A000453D423C0000808080800000603C223C55
:1001B0006000000000007E4A4A4A3400000000004F
:1001C0003C4242424200000000007E4242423C006B
:1001D000000000007E4A4A42000000007E0A0A0237
:1001E000000000003C424272000000007E08080847
:1001F0007E00000000007E0040403E0000007E08BF
:1002000014224000000000007E404040000000003A
:100210007E04182018047E000000000000007E0408
:1002200008307E00000000003C424242423C000098
:10023000000000007E12120C000000003C4242C28E
:10024000423C0000000080007E1212324C00000090
:100250000000444A52220000000002027E02020016
:10026000000000003E4040403E0000000000063814
:100270004038060000000000063840380438403896
:100280000600000000000000000042241824420084
:1002900000000000020C700C02000000000062521E
:1002A0004A4600000000FF018080031C600000003F
:1002B00001FF808008040204080000000000000024
:1002C00000008080808001020000245454780000E7
:1002D00000007F444438000000003844440000001F
:1002E0003844447F00000000385454580000000097
:1002F0007F050000384444FC808080007F0404783F
:10030000000000007D0000FD80007F1028440000F8
:1003100000003F4000007C040478040478000000E2
:10032000000000007C0404780000000038444438D9
:1003300000000000FC44443880000000384444FCC5
:10034000000000807C0400005854340000003E444B
:10035000440000003C40407C000000000C701C0089
:1003600000001C601C601C00000000004438284491
:10037000000000000438C03804808000000064548D
:100380004C00000010EE01000080FF8001EE1080A4
:10039000000010081008000000007F417F000000EE
:1003A00020F00A0E206000020509060C0902040470
:1003B00005060304030606050606070606060606E6
:1003C0000304060706060C090707080607080802C3
:1003D0000609070B0809070908060808090D090896
:1003E00007040604070702060605060605060602B8
:1003F0000307030A0607060605050506070B080797
:100400000504020407057E7E1C1C0F0F000F0F0061
:10041000000000009898F8FE9EF8FE9E98041C1CB0
:10042000041C1C040404387C6FCFCC8C181878781A
:100430001C0C1C3E2222BEFCF8DC4E42C080000098
:10044000101C0C040C1C10101C0CC0FC7E66FE9CC6
:10045000C0C0000C1C18181C0C1C18100F0F00003A
:10046000F8FE0F021C7CF040020FFEF840F07C1CEE
:100470002C781E782C0000000000C0C0F0F0C0C036
:1004800000000C0C0000000000407838C0C0C0C064
:10049000000000000000001C1C1C0000E0FC1F030A
:1004A000C0F83C040000F8FC0606FCF8040C181820
:1004B0000C04081C0CFEFE0000001C1C048EC6E68A
:1004C0007E1C1C1C1C18181804066666FEDC181816
:1004D00018181C0CC0F0B88CFEFE80040404041C28
:1004E0001C04607E7E66E6C6181818181C0CF0FC0A
:1004F0007C66E6C0041C18181C0C0606C6F61E0610
:10050000001C1C000000DCFE6666FEDC0C1C1818DB
:100510001C0C3C7E6666FEF80018180C0C0038387F
:10052000381C1C1C0038383840783800E0E0B0B087
:10053000B01800000404040CB0B0B0B0B0B0B00407
:1005400004040404040418B0B0B0E0E00C04040493
:100550000000030363731F0E001C1C1C0000E0F866
:100560001CECF636F6F60E0CF8F0041C38346C6C05
:100570006C6C6C0C040000C0F8BE86BEF8C000189D
:100580001C0C0404040C1C18FEFE666666FEDC1CD3
:100590001C1818181C0CF0FC0E06060606040C1C91
:1005A00018181818FEFE0606060CFCF81C1C181875
:1005B000180C0C00FEFE666666061C1C181818183F
:1005C000FEFE66666666661C1C0000000000F0FC0D
:1005D0000C060606C6C6000C1C1818181C1CFEFECD
:1005E00060606060FEFE1C1C000000001C1CFEFE23
:1005F0001C1C00000000FEFE181818181C0CFEFE43
:1006000030F0D88C0602001C1C0000040C1C1810D2
:10061000FEFE00000000001C1C1818181818E0FE50
:100620001E78E080E0781EFEE01C1C00000C0C042C
:1006300000001C1CFEFE1C38E0C0FEFE1C1C00005E
:10064000000C1C1CF0FC0E0606060EFCF0000C1C38
:100650001818181C0C04FEFEC6C6C67C3C1C1C00E8
:1006600000000000F0FC0E0606060EFCF0000C1C5C
:10067000183878DCCC04FEFEC6C6C67C38001C1CCC
:1006800000000C1C18101C3E6666C6C61818181808
:100690001C0C060606FEFE0606060000001C1C00DA
:1006A0000000FEFE00000000FEFE040C1C18181CDA
:1006B0000C04063EFCE000E0FC3E060000041C1CAE
:1006C0001C0400000EFEF800E0FC1CFCE000F8FE3C
:1006D0000E00001C1C1C0000001C1C1C000002065C
:1006E0009EF8F0F89E060210181C0400041C181056
:1006F000020E3CF0F03C0E020000001C1C0000004A
:100700000686C6F63E1E06181C1C18181818FFFF91
:100710000303FCFCC0C0031FFCE000000000043C1D
:10072000F8C00303FFFFC0C0FCFC20701C061C7057
:10073000200000000000000000000000000000C0D9
:10074000C0C0C0C0C0C00306000000B0B0B0F0E040
:100750000C1C18181C1CFFFF3030F0E01C1C181873
:100760001C0CE0E03030300C1C181818E0F0303071
:10077000FFFF0C1C18181C1CC0F0B0B0F0E00C1CE3
:1007800018181818FEFF3333331C1C000000C0F08B
:100790003030F0F08CDCD8D8FC7CFFFF3030F0E05B
:1007A0001C1C00001C1CF3F31C1C00F3F3C0FC7C9D
:1007B000FFFF80E07030101C1C00041C1810FFFFAD
:1007C000000C1C18F0F03030F0F03030F0E01C1C61
:1007D00000001C1C00001C1CF0F03030F0E01C1C61
:1007E00000001C1CC0E0303030E0C0040C181818A9
:1007F0000C04F0F03030F0E0FCFC18181C0CC0F0D9
:100800003030F0F00C1C1818FCFCF0F03030301CCC
:100810001C000000E0F0B0B0901818181C0CFCFC94
:100820003030300C1C181818F0F00000F0F00C1CE0
:1008300018181C1C30F0C000C0F03000041C181C3C
:10084000040030F0C000E070E000C0F03000001C98
:10085000180C000C181C0000103070C0C070301054
:1008600010181C0C041C181030F0C000C0F030C070
:10087000CCFC783C040030B0F0F030181C1C181888
:10088000C0FEFF03007CFCC0FFFFFCFC03FFFEC0BA
:10089000C0FC7C00C0E060E0C0E060000000000040
:1008A0000000FF010101FF1C1010101C00407A1015
:1008B000F35A00A0724E18090010A5D4E80000E811
:1008C0007648170000E40B54020000CA9A3B00006F
:1008D00000E1F505000080969800000040420F00FE
:1008E0000000A08601000000102700000000E803BF
:1008F000000000006400000000000A00000000008A
:100900000100000000002C76D888DC674F0823DF48
:10091000C1DFAE59E1B1B796E5E3E453C63AE6511B
:10092000997696E8E6C28426EB898C9B62ED407C42
:100930006FFCEFBC9C9F40F2BAA56FA5F490055ADE
:100940002AF75C936B6CF9676DC11BFCE0E40D4703
:10095000FEF520E6B500D0ED902E03009435770526
:100960000080841E080000204E0A000000C80C33DE
:100970003333330F986E12831141EF8D2114893B6D
:10098000E65516CFFEE6DB18D1844B381BF77C1DED
:10099000901DA4BBE424203284725E228100C9F140
:1009A00024ECA1E53D2711241FBECFEFD4E0DEBF2C
:1009B000CDBF11E0A0E0B1E0E6E8FEE202C00590A4
:1009C0000D92A235B107D9F711E0A2E5B1E001C05F
:1009D0001D92AE3AB107E1F70E943B0E0C9441170D
:1009E0000C9400000F931F93CF93DF93C5E7D1E0E2
:1009F000CE010E943307482F1DE7181B812F61E0AD
:100A000028E000E00E94D50A812F61E00E94930750
:100A1000CE010E94DD09DF91CF911F910F910895C2
:100A2000EF920F93CF93DF93EC0183E061E00E949C
:100A30009307CE010E94DD090E94F20480E060E08D
:100A40004FE729E004E0EE24EA940E94890BDF914D
:100A5000CF910F91EF9008950895FC01DB01208163
:100A60004C912417D8F030E012968C91129790E0B8
:100A7000840F911D821793078CF0418111968C9100
:100A80001197481768F050E013962C91139730E0B7
:100A9000280F311D81E0241735071CF480E00895EC
:100AA00080E00895FC01DB018C9190E0208130E032
:100AB000AC0141505040241735074CF0AC014F5F5A
:100AC0005F4F81E0421753071CF080E001C081E0D6
:100AD00011964C91119750E0218130E0BA0161509C
:100AE0007040261737072CF04F5F5F4F42175307B0
:100AF0000CF48260228112969C91129729138460D3
:100B00000895CF92DF92EF92FF920F931F93CF93AE
:100B1000DF9381E067E143E224E100E00E94D50A2F
:100B200081E06CE00E94930780E091E00E94DD0983
:100B300083E06BE10E94930780EAC82E83E0D82E01
:100B4000CBEED6E0C601BE014FEF0E94EE0607E6EF
:100B500011E0C8010E943307F82EC8010E94DD0988
:100B60008F2D8D5F69E144E024E002E0EE24EA94F9
:100B70000E94890B81E067E143E224E103E00E94E7
:100B8000890B88E690E0BE014FEF0E94EE0680E4FC
:100B90006CE00E94930787E091E00E94DD0980E409
:100BA00067E143E224E100E00E94D50A82E46BE1C0
:100BB0000E949307C601BE014FEF0E94EE06CCE6ED
:100BC000D1E0CE010E943307082FCE010E94DD093B
:100BD000802F8E5B69E144E024E002E00E94890BF3
:100BE00080E467E143E224E103E00E94890BDF91A6
:100BF000CF911F910F91FF90EF90DF90CF900895CC
:100C0000EF920F931F93182F88E690E06BEE76E03B
:100C10004FEF0E94EE0685E667E14FE02AE000E034
:100C20000E94D50A85E661E24FE02AE00E94D50ADB
:100C300085E667E14FE02AE003E0EE24EA940E94B3
:100C4000890B85E661E24FE02AE00E94890B8BE286
:100C50000E94F9062FE030E0281B3109C90162E04B
:100C600070E00E94CE11862F8A5968E10E94930796
:100C70008BE20E94980889E666E240E726E20FEFE1
:100C80000E948C0C113019F485E667E104C0123023
:100C900031F485E661E24FE02AE00E943C0A1F91B0
:100CA0000F91EF90089588E690E06BEE76E04FEFBD
:100CB0000E94EE0681E191E00E9410050E948105EC
:100CC00080E00E94000625E62093570181E2809390
:100CD00058019FE0909359018AE080935A01209334
:100CE000530127E1209354019093550180935601BD
:100CF0000895DF92EF92FF920F931F93DF93CF93AC
:100D000000D00F92CDB7DEB787B1807F87B987B1AA
:100D1000856087B988B1807F88B9429A81E00E9456
:100D2000F60D082F83E00E94F60DE82E602F665125
:100D300070E0882777FD8095982F0E940A1120E0A7
:100D400030E048EC5FE30E9474100E94DC10F62E45
:100D500087B1807F87B987B18A6087B988B1807F82
:100D600088B9439A80E00E94F60D182F109582E012
:100D70000E94F60DD82E612F685270E0882777FD0B
:100D80008095982F0E940A1120E030E041E350E462
:100D90000E9474100E94DC10762F8E2D90E0801B34
:100DA0009109843091054CF4D0942D2D30E0211B15
:100DB000310981E0243031050CF080E06F2D90E0A6
:100DC0000F900F900F90CF91DF911F910F91FF9097
:100DD000EF90DF900895FC01849108959093620153
:100DE000809361017093600160935F0140935B01A8
:100DF00008950F931F93082F209161013091620194
:100E0000E0915F01F0916001C90104960995182FE6
:100E10002091610130916201E0915F01F0916001E8
:100E2000C901059609950117D0F0402F50E0212FF8
:100E300030E0280F311D421753078CF4011B802F1F
:100E400090E006962091610130916201E0915F018E
:100E5000F0916001820F931F09958F5F01C080E0C0
:100E60001F910F910895EF92FF920F931F93CF93CD
:100E7000DF93082F192FC0E0D0E004C00E94F906CC
:100E8000C80FD11DF80181918F018823B9F7CE01D8
:100E9000DF91CF911F910F91FF90EF900895EF9206
:100EA000FF920F931F93CF93DF938C01C0E0D0E0AC
:100EB00008C00F5F1F4FFC0184910E94F906C80F04
:100EC000D11DC801F8012491222399F7CE01DF91A9
:100ED000CF911F910F91FF90EF900895DF93CF93E3
:100EE0000F92CDB7DEB7662319F45C985B9A04C005
:100EF000613011F45B985C9A5E985F989FEF94B9AB
:100F000085B95A9A0000000000005A98198203C05F
:100F100089818F5F898389818830D0F315B80F90DC
:100F2000CF91DF9108951F9387FD80E0603408F032
:100F300060E080935C0160935D01669566956695BF
:100F400060935E01803418F0805461E001C060E07D
:100F500080640E946E0710915E01186B812F60E023
:100F60000E946E07812F61E00E946E071F91089515
:100F70001F93DF93CF930F92CDB7DEB715B814B898
:100F800090915C01903418F45C985B9A02C05B9875
:100F90005C9A90915C01903431F4882321F080E4D4
:100FA00061E00E946E075E9A5F9A5A9A0000000004
:100FB000000013B15A98198203C089818F5F898319
:100FC00089818830D0F38FEF84B980915C01609182
:100FD0005D010E9493078091520181111095812F2C
:100FE0000F90CF91DF911F91089581E00E94B80783
:100FF00080E00E94B8070895DF92EF92FF920F936E
:101000001F93DF93CF9300D0CDB7DEB7082F809129
:101010005C0187FD83C0803418F45C985B9A02C041
:101020005B985C9A80915C01803419F461E00E94C5
:101030006E075E9A5F981FEF14B920915D012770CB
:1010400009F454C0DBB02A830E94F507DBB814B959
:1010500010E02A81E22EFF24A80102C0440F551F90
:101060002A95E2F7842B909152019111809585B9D0
:101070005A9A0000000000005A98198203C0898122
:101080008F5F898389818830D0F360915D01685FCB
:1010900080915C010E9493070E94F507DBB89FEFE7
:1010A00094B928E030E02E193F0902C01595079544
:1010B0002A95E2F7082B809152018111009505B91C
:1010C0005A9A0000000000005A98198203C08981D2
:1010D0008F5F898389818830D0F380915C01609132
:1010E0005D0168508F5F0E94930717C08091520185
:1010F0008111009505B95A9A0000000000005A9825
:10110000198203C089818F5F898389818830D0F3F8
:1011100080915C018F5F80935C0115B80F900F90F8
:10112000CF91DF911F910F91FF90EF90DF90089585
:101130002F923F924F925F926F927F928F929F92E7
:10114000AF92BF92CF92DF92EF92FF920F931F93D5
:10115000DF93CF9300D000D000D0CDB7DEB7C82E3C
:101160008091610190916201E0915F01F0916001D5
:1011700003960995682E282F277029838091610195
:1011800090916201E0915F01F091600104960995F0
:10119000082F2091610130916201E0915F01F0918F
:1011A0006001C90105960995B82E70905C013091D7
:1011B0005D013A83C01608F4BBC04C2D50E0202FCF
:1011C00030E0280F311D421753070CF0B1C0C01A90
:1011D00056E0E52EF12C00E010E009C0C9018E0DAB
:1011E0009F1D0995080F111D0894E11CF11C8E2DFF
:1011F00086502091610130916201E0915F01F09190
:1012000060018C1558F3862D90E0079643E0959584
:1012100087954A95E1F7682EE82EFF240E9DA001E0
:101220000F9D500D1E9D500D11248B2D90E00696A4
:10123000840F951F9E838D838C2D90E00696820FE0
:10124000931F0995B82E982E9194AA2402E010E0DD
:10125000270160C02D803E80290C311CCD80DE80AE
:10126000CA0CD11C7101F8013197FC83EB8335C0A6
:101270008091610190916201E0915F01F0916001C4
:101280008C0D9D1D0995882E2B813C8124153505DB
:10129000A1F42091610130916201E0915F01F09130
:1012A0006001C9018E0D9F1D099590E0098002C063
:1012B000959587950A94E2F7882A80915B018F3F84
:1012C00011F4882D02C0882D80950E94FC07089497
:1012D000C11CD11C0894E11CF11C8E2D82198B15A8
:1012E00038F280915B018F3F11F480E001C08FEFF5
:1012F0000E94FC0760915D010415150514F4685FF8
:1013000002C03981630F872D0E9493070F5F1F4F23
:101310009B0CAB0C802F8250861508F49BCF872D39
:101320008F5F8B0D6A810E94930720E030E002C03E
:1013300021E030E0C90126960FB6F894DEBF0FBE5B
:10134000CDBFCF91DF911F910F91FF90EF90DF9074
:10135000CF90BF90AF909F908F907F906F905F9055
:101360004F903F902F9008950F931F93CF93DF934B
:10137000EC0110915C0118C08A3099F400915D0174
:101380002091610130916201E0915F01F091600173
:10139000C90103960995682F600F812F0E9493075A
:1013A00002C00E9498082196FE018491882321F7AB
:1013B000DF91CF911F910F910895EF92FF920F93BC
:1013C0001F93CF93DF9310915C01E82EE7017E011C
:1013D000F92EE70117C08A3099F400915D01209140
:1013E000610130916201E0915F01F0916001C901FA
:1013F00003960995682F600F812F0E94930702C002
:101400000E9498088991882331F7DF91CF911F912D
:101410000F91FF90EF9008951F93DF93CF930F925A
:10142000CDB7DEB7162F687F49830E9493070E94CD
:10143000F507612F70E049814F3F59F46770707074
:1014400021E030E002C0220F331F6A95E2F7282B1B
:101450000BC06770707021E030E002C0220F331FB4
:101460006A95E2F720952823822F0E94FC070F90AF
:10147000CF91DF911F910895AF92BF92CF92DF92EB
:10148000EF92FF920F931F93CF93DF93182F042FA8
:10149000E22EE394262F2770F62EF21ACE2DD0E0FE
:1014A000E8E0F0E0CF01821B9109C817D90764F486
:1014B000CF018C1B9D0BEFEFF0E002C0F595E79597
:1014C0008A95E2F7DE2C04C068E0D62ED21AEFEF40
:1014D000CE2E01C0CC0C2A95EAF7812F6F2D0E94E9
:1014E0009307BB24AC2CA0940E94F507982F9095ED
:1014F0009C218A21892B0E94FC07B3940B15A0F72D
:1015000010C088E0D80EF80E812F6F2D0E9493072F
:10151000CC240E94F50780950E94FC07C3940C150B
:10152000C0F7ED2DF0E0CF0107968C179D074CF327
:10153000DE1400F5CE1BDF0B2FEF30E00C2E02C0C7
:10154000220F331F0A94E2F7E22EE0946F2D685FBA
:10155000812F0E94930710E0FE2CF0940E94F50763
:10156000982F90959E218F21892B0E94FC071F5F49
:101570000117A0F7DF91CF911F910F91FF90EF908E
:10158000DF90CF90BF90AF9008951F93182F809158
:101590005201811741F080E060E04FE72FE30E94A5
:1015A0003C0A109352011F9108959F92AF92BF92EF
:1015B000CF92DF92EF92FF920F931F93CF93DF931F
:1015C000182FF42ED22EE02ED394262F2770062F1C
:1015D000021BCD2DD0E0E8E0F0E0CF01821B9109A5
:1015E000C817D90764F4CF018C1B9D0BEFEFF0E017
:1015F00002C0F595E7958A95E2F7CD2C04C078E016
:10160000C72EC21AEFEFBE2E01C0BB0C2A95EAF717
:10161000812F602F0E949307AA249B2C90940E94F4
:10162000F5079E2D9F3F11F48B2901C089210E944F
:10163000FC07A394FA1498F70EC088E0C80E085F60
:10164000812F602F0E949307BB248E2D0E94FC07E0
:10165000B394FB14D0F7EC2DF0E0CF0107968C1774
:101660009D075CF3CD1408F5CE1BDF0B2FEF30E0A8
:101670000C2E02C0220F331F0A94E2F7D22ED09410
:10168000602F685F812F0E94930710E00D2D009559
:101690000E94F5079E2D9F3F11F48D2901C08023E4
:1016A0000E94FC071F5FF11698F7DF91CF911F9101
:1016B0000F91FF90EF90DF90CF90BF90AF909F90F1
:1016C00008950F9310925C0110925D0110925E01DB
:1016D000809352018FEF8AB98FE360E00E946E071A
:1016E0008FE361E00E946E0780EC60E00E946E076D
:1016F00080EC61E00E946E0780E060E04FE72FE33E
:1017000000E00E94D50A80E060E00E9493070F91FC
:1017100008952F923F924F925F926F927F928F9295
:101720009F92AF92BF92CF92DF92EF92FF920F9370
:101730001F93DF93CF93CDB7DEB72B970FB6F894F7
:10174000DEBF0FBECDBF582F162F742F2D83C02E96
:10175000DD24882799278C199D09880F991F0396E6
:101760009B878A87902E950EF02EF60E942F950F5C
:101770009983901B9A83E22FE60FEB83E01BEC83A7
:101780007E2E892E5F2C492C20E030E0AA24BB2439
:101790006C2C3F2C3C18842D632D4E2D2E833F83C3
:1017A000598778870E940C0A292C2C18822D652DC8
:1017B0004E2D0E940C0A882D632D4E2D0E940C0A7E
:1017C0003A803C0C832D652D4E2D0E940C0AFC8125
:1017D0006F0E882D662D4E2D0E940C0A832D672DCD
:1017E0004E2D0E940C0A842D662D4E2D0E940C0A4F
:1017F000822D672D4E2D0E940C0A2E813F81598526
:1018000078858A859B8597FF06C00696820F931F71
:101810009B878A8711C0EA85FB853A96C5018C199A
:101820009D09880F991F880F991FE80FF91FFB87E3
:10183000EA870894C108D1080894A11CB11C4A94F5
:101840005A94839473942C5F3F4FCA14DB040CF0BA
:101850009FCFC02EC194CC0CAC2CA70E892D612F2C
:101860004A2D20E00E2D59870E94D50A892D6B81C3
:101870004A2D20E00E94D50AFD81CF0E5985852F83
:101880006F2D40E02C2D0E94D50A89816F2D40E0FC
:101890002C2D0E94D50A2B960FB6F894DEBF0FBEF2
:1018A000CDBFCF91DF911F910F91FF90EF90DF900F
:1018B000CF90BF90AF909F908F907F906F905F90F0
:1018C0004F903F902F900895CF92DF92EF92FF922A
:1018D0000F931F93E82EF62EC42ED22E20E00E94E6
:1018E000D50A6D2D6F0D8E2D4C2D20E00E94D50A4E
:1018F0008E2D6F2D40E02D2D0E94D50A8C2D8E0D42
:101900006F2D40E02D2D0E94D50A1F910F91FF9061
:10191000EF90DF90CF9008952F923F924F925F9279
:101920006F927F928F929F92AF92BF92CF92DF92EF
:10193000EF92FF920F931F93CF93DF93182FF62E02
:10194000E42ED22EC02E841751F4261710F4F22E56
:10195000D62E2D2D2F19812F6F2D40E00BC0621731
:1019600069F4481710F4142FE82E4E2D411B812FD7
:101970006F2D20E00C2D0E94D50ACCC030E0462F00
:1019800050E08E2D90E0811B9109B901641B750B0D
:101990006817790734F4421B530B481759070CF4A6
:1019A0005DC0E11630F48F2DFD2CD82E812F1E2D19
:1019B000E82EAE2CA11AED2DF0E02F2D30E04F01D6
:1019C000821A930ACA2DD0E048EC50E0849EC001F0
:1019D000859E900D949E900D1124BE010E94CE1103
:1019E0001B010F2DEE2488EC482E512C39016E1A64
:1019F0007F0A2E2D30E0229DC001239D900D329D47
:101A0000900D1124B2010E94CE11BF2CB60E843667
:101A1000910514F0B39405C02FEF8D3992070CF4A3
:101A2000BA944E2D410F842F602F2B2D0C2D0E9428
:101A30008C0C8C169D062CF0FD1418F40B2D0F5FEA
:101A400009C06C167D062CF0DF1418F40B2D015024
:101A500001C00B2DE394AE1460F65CC0DF1430F4CB
:101A60008F2DFD2CD82E812F1E2DE82EAD2CAF18DA
:101A7000EE2DF0E0212F30E04F01821A930ACA2D9B
:101A8000D0E048EC50E0849EC001859E900D949E6D
:101A9000900D1124BE010E94CE111B01412FDD24A7
:101AA00008EC402E512C39016E1A7F0A2D2D30E0A2
:101AB000229DC001239D900D329D900D1124B201F5
:101AC0000E94CE11B12EB60E8436910514F0B39457
:101AD00005C02FEF8D3992070CF4BA942D2D2F0DE0
:101AE000842F622F4B2D0C2D0E948C0C8C169D0682
:101AF0002CF01E1518F44B2D4F5F09C06C167D0697
:101B00002CF0E11618F44B2D415001C04B2DD3940D
:101B1000AD1460F6DF91CF911F910F91FF90EF9080
:101B2000DF90CF90BF90AF909F908F907F906F90FD
:101B30005F904F903F902F900895EF920F93DF9317
:101B4000CF93CDB7DEB728970FB6F894DEBF0FBEA0
:101B5000CDBF372FE42F722F89839A836B833C8309
:101B60009C01462F5C816E2F802F9E2D28960FB6EC
:101B7000F894DEBF0FBECDBFCF91DF910F91EF90F4
:101B800008950F93CF93DF93EC018C816D814E818B
:101B90002F8100E00E94D50A8C816D814E812F81BA
:101BA0000FEF0E94640CED81EF5F4E8150E02881C1
:101BB0003981429FC001439F900D529F900D112487
:101BC0002A813B81B9010E94BA11462F2F812250F0
:101BD0008C816E2F0E94D50ADF91CF910F910895CD
:101BE000FC01608311820E94C10D089590917A00DA
:101BF00090937A0010927C0090917C009062909378
:101C00007C0090917C00982B90937C0080917A00CE
:101C1000806C80937A0080917A0084FFFCCF809161
:101C20007A00806180937A00809179000895909184
:101C30007A0090937A0010927C0090917C009F7DB6
:101C400090937C0090917C00982B90937C008091E5
:101C50007A00806C80937A0080917A0084FFFCCFB8
:101C600080917A00806180937A0020917800309191
:101C70007900C90108952F923F924F925F926F921F
:101C80007F928F929F92AF92BF92CF92DF92EF920C
:101C9000FF920F931F93DF93CF93CDB7DEB7A0973B
:101CA0000FB6F894DEBF0FBECDBF1A82198205C0F1
:101CB00089819A8101969A83898389819A812AE30D
:101CC00088399207A8F314B817B88FEF8AB983E45C
:101CD00091E09093AD018093AC019093AB01809320
:101CE000AA010E94BB0F789400D082E291E0ADB7C8
:101CF000BEB712969C938E9311970E940A125D9A1A
:101D000080917A00866080937A0080917C00809335
:101D10007C0080917C00806280937C0080917A00BE
:101D2000806880937A0080917A00806480937A0042
:101D30000F900F9080E00E94610B80E090E0A4EA99
:101D4000B1E48093710190937201A0937301B093F9
:101D5000740180E090E0A8E8B1E48093630190937F
:101D60006401A0936501B093660160E070E084EACD
:101D700091E441E021E007E611E00E94E111609169
:101D8000630170916401809165019091660141E069
:101D900021E00CE611E00E94E11185E791E067E2A5
:101DA00071E00E9403120E94530685E00E94F60D26
:101DB000882E90E060E071E041E02DE30EE732E034
:101DC000E32E0E949D0D298B3A8B4B8B5C8B6D8B88
:101DD0007E8B8F8B988FDE011996FE01719688E0BD
:101DE00001900D928150E1F78E01075F1F4FC801EE
:101DF0000E94C10D582C23E0E22EF12CEC0EFD1EAA
:101E000099E1292E312C2C0E3D1E86E0682E712C76
:101E10006C0E7D1E08A3412E0E947906698F7A8F71
:101E20008B8FD701F10183E001900D928150E1F792
:101E3000C701B3010E945205882309F451C082FFF3
:101E400048C08D818823F1F180E391E00E941F1248
:101E5000C70167E571E00E942D05882391F082E0BB
:101E60000E94000660916301709164018091650198
:101E70009091660120E030E040E05FE30E940B10AB
:101E800018C0C70163E571E00E942D05882309F1A0
:101E900081E00E940006609163017091640180916D
:101EA00065019091660120E030E040E05FE30E9430
:101EB0000C106093630170936401809365019093AB
:101EC000660107C089E391E00E941F1280E00E9432
:101ED0000006D301F70183E001900D928150E1F7F4
:101EE0008090630190906401A0906501B0906601BC
:101EF0006C8D7D8D8E8D9F8DA50194010E9470103B
:101F00008823B1F0C501B40141E021E00CE611E005
:101F10000E94E1118091630190916401A09165019B
:101F2000B09166018C8F9D8FAE8FBF8F0E9481050F
:101F300090E0C91692E0D906D1F485E00E94F60D32
:101F4000082F452D50E0282F30E0FA0131972E1749
:101F50003F072CF04F5F5F4F4217530734F488A1BF
:101F6000942D602F0E94F00D502ECC24DD24089477
:101F7000C11CD11C51CF83E38093C40088E08093BF
:101F8000C10008959091C00095FFFCCF8093C600DA
:101F900080E090E008959091C00095FFFCCF809381
:101FA000C600089580E090E008958091A60108950C
:101FB0002091A6013091A7018217930721F4109276
:101FC000A7011092A60182589E4FFC0180810895BE
:101FD0001F920F920FB60F9211242F938F939F93FE
:101FE000EF93FF938091A6019091A70101969093A2
:101FF000A7018093A6012091C60082589E4FFC0144
:102000002083FF91EF919F918F912F910F900FBEA1
:102010000F901F9018955058BB27AA270ED070C15B
:1020200061D130F066D120F031F49F3F11F41EF4FD
:1020300056C10EF4E095E7FB4CC1E92F72D180F355
:10204000BA17620773078407950718F071F49EF5B5
:102050008AC10EF4E0950B2EBA2FA02D0B01B90109
:1020600090010C01CA01A0011124FF27591B99F00E
:10207000593F50F4503E68F11A16F040A22F232F1A
:10208000342F4427585FF3CF469537952795A7956A
:10209000F0405395C9F77EF41F16BA0B620B730B11
:1020A000840BBAF09150A1F0FF0FBB1F661F771F82
:1020B000881FC2F70EC0BA0F621F731F841F48F437
:1020C000879577956795B795F7959E3F08F0B3CFBD
:1020D0009395880F08F09927EE0F979587950895A7
:1020E000D4D008F481E008950CD00AC102D140F0A8
:1020F000F9D030F021F45F3F19F0EBC0511134C139
:10210000EEC00FD198F39923C9F35523B1F3951B72
:10211000550BBB27AA2762177307840738F09F5F08
:102120005F4F220F331F441FAA1FA9F333D00E2E77
:102130003AF0E0E830D091505040E695001CCAF7E4
:1021400029D0FE2F27D0660F771F881FBB1F2617A9
:1021500037074807AB07B0E809F0BB0B802DBF017C
:10216000FF2793585F4F2AF09E3F510568F0B1C09A
:10217000FBC05F3FECF3983EDCF38695779567955F
:10218000B795F7959F5FC9F7880F911D969587952D
:1021900097F90895E1E0660F771F881FBB1F62174C
:1021A00073078407BA0720F0621B730B840BBA0B0A
:1021B000EE1F88F7E0950895BCD088F09F5790F007
:1021C000B92F9927B751A0F0D1F0660F771F881F5C
:1021D000991F1AF0BA95C9F712C0B13081F0C3D077
:1021E000B1E00895C0C0672F782F8827B85F39F015
:1021F000B93FCCF3869577956795B395D9F73EF4BB
:1022000090958095709561957F4F8F4F9F4F089562
:10221000E89409C097FB3EF4909580957095619580
:102220007F4F8F4F9F4F9923A9F0F92F96E9BB2736
:102230009395F695879577956795B795F111F8CFB2
:10224000FAF4BB0F11F460FF1BC06F5F7F4F8F4F1D
:102250009F4F16C0882311F096E911C0772321F013
:102260009EE8872F762F05C0662371F096E8862FAB
:1022700070E060E02AF09A95660F771F881FDAF702
:10228000880F9695879597F90895990F0008550F2F
:10229000AA0BE0E8FEEF16161706E807F907C0F0EC
:1022A00012161306E407F50798F0621B730B840BF4
:1022B000950B39F40A2661F0232B242B252B21F4CE
:1022C00008950A2609F4A140A6958FEF811D811D6E
:1022D000089597F99F6780E870E060E008959FEFA8
:1022E00080EC089500240A941616170618060906AD
:1022F000089500240A94121613061406050608957C
:10230000092E0394000C11F4882352F0BB0F40F403
:10231000BF2B11F460FF04C06F5F7F4F8F4F9F4F43
:10232000089557FD9058440F551F59F05F3F71F0C5
:102330004795880F97FB991F61F09F3F79F087952C
:102340000895121613061406551FF2CF4695F1DFB5
:1023500008C0161617061806991FF1CF8695710545
:10236000610508940895E894BB2766277727CB0179
:1023700097F90895AA1BBB1B51E107C0AA1FBB1FF9
:10238000A617B70710F0A61BB70B881F991F5A9501
:10239000A9F780959095BC01CD01089597FB092E72
:1023A00007260AD077FD04D0E5DF06D000201AF416
:1023B000709561957F4F0895F6F7909581959F4FA1
:1023C0000895EF92FF920F931F93322FF02E47FF45
:1023D00002C0A4E101C0A4E0E42FFF27E7FDF095CF
:1023E000F7FF03C0F095E195FF4F4F2D512F2E2F92
:1023F000032FEA2E0E943B148F2D912F1F910F91D6
:10240000FF90EF900895FB01DC0101900D920020F8
:10241000E1F70895A0E0B0E0E0E1F2E10C941A17D2
:10242000FE013596619171918091AA019091AB0165
:10243000AF010E9454122096E2E00C943617EF92FE
:10244000FF920F931F93CF93DF938C01E091AA012A
:10245000F091AB01838181FF1FC0C0E0D0E00AC0D2
:10246000DB011896ED91FC9119970995009711F0F1
:10247000CFEFDFEFF80181918F016091AA01709198
:10248000AB01882369F7DB011896ED91FC91199750
:102490008AE00995009711F0CFEFDFEFCE01CDB7BD
:1024A000DEB7E6E00C943217ACE0B0E0EAE5F2E12A
:1024B0000C940A176C011B018A01FC011782168219
:1024C000838181FFD1C12E010894411C511CF6016A
:1024D0009381F10193FD859193FF81911F018823E1
:1024E00009F4BEC1853239F493FD859193FF819142
:1024F0001F01853229F490E0B6010E948016E7CFD3
:10250000EE24FF2420E02032B0F48B3269F08C32CC
:1025100028F4803251F0833271F40BC08D3239F0DF
:10252000803349F421602CC02260246029C02860D7
:1025300027C0206125C027FD2CC0382F30533A30EA
:1025400098F426FF08C08E2D880FE82EEE0CEE0CB6
:10255000E80EE30E15C08F2D880FF82EFF0CFF0C30
:10256000F80EF30E20620CC08E3221F426FD78C1E5
:10257000206406C08C3611F4206802C0883649F405
:10258000F10193FD859193FF81911F01882309F04B
:10259000BACF982F9554933018F09052933028F476
:1025A0000C5F1F4FFFE3F9830DC0833631F0833793
:1025B00071F0833509F060C022C0F8018081898301
:1025C0000E5F1F4F420171E0A72EB12C16C062E0D2
:1025D000662E712C600E711EF8018080918026FF9E
:1025E00003C06E2D70E002C06FEF7FEFC4012C8737
:1025F0000E9475165C0183012C852F7717C052E06D
:10260000652E712C600E711EF8018080918026FF6E
:1026100003C06E2D70E002C06FEF7FEFC4012C8706
:102620000E946A165C012C852068830123FD20C06E
:1026300008C080E290E0B6012C870E948016FA94D0
:102640002C858F2D90E0A816B90698F311C0F401DF
:1026500027FD859127FF81914F0190E0B6012C87DE
:102660000E9480162C85F110FA940894A108B108F4
:10267000A114B10461F7F1C0843611F0893649F52F
:1026800027FF08C0F80160817181828193810C5F0E
:102690001F4F09C0F80160817181882777FD8095FF
:1026A000982F0E5F1F4F4FE6B42EB22297FF09C03E
:1026B00090958095709561957F4F8F4F9F4FF0E873
:1026C000BF2AA2012AE030E00E94AC16782E7418CE
:1026D00045C0853731F43FEEB32EB2222AE030E018
:1026E00025C099EFB92EB2228F36C1F0803720F481
:1026F000883509F0B5C00DC0803721F0883709F062
:10270000AFC002C020E1B22AB4FE0BC084E0B82AF8
:1027100008C0B4FE09C0E6E0BE2A06C028E030E0EA
:1027200005C020E130E002C020E132E0B7FE08C081
:10273000F80160817181828193810C5F1F4F07C016
:10274000F8016081718180E090E00E5F1F4FA2016F
:102750000E94AC16782E7418FFE7BF22B6FE0BC09D
:102760002EEFB2227E1438F4B4FE07C0B2FC05C0CE
:102770008FEEB82202C0A72C01C0AE2C8B2D90E0AA
:10278000B4FE0DC0FE01E70DF11D2081203319F4C8
:10279000E9EEBE2209C0A394B2FE06C004C086784A
:1027A0009070009709F0A3948B2C9924B3FC14C06B
:1027B000B0FE0FC0AF1428F4E72CEF0CEA18AF2CD2
:1027C00008C0E72C06C080E290E0B6010E948016A7
:1027D000A394AF14C0F304C0AF1410F4FA1801C0EE
:1027E000FF2484FE0FC080E390E0B6010E948016B3
:1027F00082FE1FC081FE03C088E590E010C088E71C
:1028000090E00DC0C40186789070009791F081FC33
:1028100002C080E201C08BE2B7FC8DE290E0B6011D
:102820000E94801606C080E390E0B6010E948016E8
:10283000EA947E14C0F37A94F201E70DF11D8081D1
:1028400090E0B6010E9480167720A9F706C080E2CA
:1028500090E0B6010E948016FA94FF20C1F737CEAF
:10286000F6012681378102C02FEF3FEFC9012C9678
:10287000E2E10C942617A9E0B0E0E1E4F4E10C9465
:1028800012176A01F22E102F0C3318F4B02EB394E5
:1028900002C0ECE3BE2EAE014F5F5F4F27E00B2D71
:1028A0000E949215298130E0A90149705070413091
:1028B000510531F0E1FC06C0E0FE06C0E0E205C0D3
:1028C000EDE203C0EBE201C0E0E023FF37C0EE23FE
:1028D00011F084E001C083E08F1518F4F81A8F2DF1
:1028E00001C080E0E4FC0BC0982FD60120E202C0BA
:1028F0002D9391509923E1F7C80ED11C80E0EE236F
:1029000019F0D601ED936D01F6013196E2FE05C096
:102910009EE4D6019C9321E404C09EE6D6019C93DC
:1029200021E611962C9391833296982FDF0120E2B5
:1029300002C02D9391509923E1F73DC022FF41C081
:10294000EE2311F084E001C083E08F1518F4F81A2B
:102950008F2D01C080E0E4FC0BC0982FD60120E24F
:1029600002C02D9391509923E1F7C80ED11C80E04D
:10297000EE2319F0D601ED936D01F6013196E2FEDA
:1029800009C099E4D6019C939EE411969C931197FB
:1029900096E407C099E6D6019C939EE611969C9317
:1029A00096E691833296982FDF0120E202C02D93A4
:1029B00091509923E1F7E80FF11D10822EEF3FEFC0
:1029C000ACC041E050E0EE2311F440E050E01816B6
:1029D000190624F4BC016F5F7F4F02C061E070E014
:1029E000640F751F112329F0412F50E04F5F5F4F97
:1029F00002C040E050E0460F571F6F2D70E04617B1
:102A000057071CF40F2D041B01C000E0FF24A70191
:102A100040715070E4FC0DC0E3FC0BC0602FD60188
:102A200070E202C07D9361506623E1F7C00ED11CB5
:102A300000E0EE2319F0D601ED936D01411551052B
:102A400059F4402FF60150E302C051934150442302
:102A5000E1F7C00ED11C00E0B80EFA80A901407168
:102A6000507024FF04C0BF2DB13309F4BA941B1475
:102A70002CF4AB2DA93018F0A8E001C0A1E09C0116
:102A800097FF02C020E030E0BC016F5F7F4F621B08
:102A9000730BFE013196E60FF71F6EE2E62EBC01C6
:102AA0006A1B7109A12FB0E0AA24BB24AA1ABB0A91
:102AB0001FEF2F3F310719F4D601ED926D018217F8
:102AC00093072CF06217730714F4108101C010E310
:102AD0002150304031962A153B0524F0D6011D9334
:102AE0006D01E6CF2817390749F4BF2DB63328F416
:102AF000B53321F44115510509F411E3F6011193A1
:102B0000802FDF0190E202C09D9381508823E1F77E
:102B1000E00FF11D108220E030E0C9012996EAE0C3
:102B20000C942E17283008F027E03327DA01990F8C
:102B3000311D87FD916000966105710539F43260A1
:102B40002E5F3D9330E32A95E1F708959F3F30F0E3
:102B500080387105610509F03C5F3C5F3D93913021
:102B600008F08068911DDF93CF931F930F93FF921E
:102B7000EF92192F987F9695E92F96959695E90FE4
:102B8000FF27EA5FF64F99273327EE24FF24A7019A
:102B9000E70105900894079428F4360FE71EF81E05
:102BA000491F511D660F771F881F991F0694A1F7B3
:102BB0000590079428F4E70EF81E491F561FC11D03
:102BC000770F881F991F661F0694A1F70590079439
:102BD00028F4F80E491F561FC71FD11D880F991FD3
:102BE000661F771F0694A1F70590079420F4490FFC
:102BF000561FC71FD81F990F661F771F881F06947F
:102C0000A9F784911095177041F0D695C7955795FF
:102C10004795F794E7941A95C1F7ECEAF8E06894C1
:102C20001590159135916591959105907FE2739579
:102C3000E118F10A430B560BC90BD009C0F7E10CA0
:102C4000F11E431F561FC91FD01D7EF4703311F4AF
:102C50008A95E6CFE894015030F0080F0AF4002777
:102C6000021708F4202F2395022F7A3328F079E3F6
:102C70007D932A95E9F710C07D932A9589F60694ED
:102C800097956795379517951794E118F10A430BB7
:102C9000560BC90BD00998F023957E9173957A3322
:102CA00008F070E37C932013B8F77E9170617D93F8
:102CB00030F0839571E37D9370E32A95E1F7112459
:102CC000EF90FF900F911F91CF91DF91992787FD92
:102CD00090950895FC010590615070400110D8F75F
:102CE000809590958E0F9F1F0895FC016150704054
:102CF00001900110D8F7809590958E0F9F1F089531
:102D00000F931F93CF93DF938C01EB018B8181FF96
:102D10001BC082FF0DC02E813F818C819D812817B1
:102D2000390764F4E881F9810193F983E88306C0E7
:102D3000E885F985802F0995009731F48E819F8170
:102D400001969F838E8302C00FEF1FEFC801DF91B2
:102D5000CF911F910F910895FA01AA27283051F1C0
:102D6000203181F1E8946F936E7F6E5F7F4F8F4FBC
:102D70009F4FAF4FB1E03ED0B4E03CD0670F781F1B
:102D8000891F9A1FA11D680F791F8A1F911DA11D00
:102D90006A0F711D811D911DA11D20D009F4689439
:102DA0003F912AE0269F11243019305D3193DEF6E1
:102DB000CF010895462F4770405D4193B3E00FD097
:102DC000C9F7F6CF462F4F70405D4A3318F0495D82
:102DD00031FD4052419302D0A9F7EACFB4E0A69565
:102DE0009795879577956795BA95C9F70097610587
:102DF000710508959B01AC010A2E069457954795DD
:102E000037952795BA95C9F7620F731F841F951FD1
:102E1000A01D08952F923F924F925F926F927F92E2
:102E20008F929F92AF92BF92CF92DF92EF92FF92DA
:102E30000F931F93CF93DF93CDB7DEB7CA1BDB0B86
:102E40000FB6F894DEBF0FBECDBF09942A8839882B
:102E500048885F846E847D848C849B84AA84B98432
:102E6000C884DF80EE80FD800C811B81AA81B9813E
:102E7000CE0FD11D0FB6F894DEBF0FBECDBFED0152
:062E80000895F894FFCF55
:102E860048756964696700496E67657374656C6443
:102E9600004B2D345520546865726D6F73746161F3
:102EA6007400546573740032303A30393A33300066
:102EB600507265737365640D0052656C6561736568
:102EC600640D000000000300000000C20FD20F00D6
:022ED6000000FA
:00000001FF
