:100000000C9490080C94AD080C94AD080C94AD08B9
:100010000C94AD080C94AD080C94AD080C94AD088C
:100020000C94AD080C94AD080C94AD080C94AD087C
:100030000C94AD080C94AD080C94AD080C94EB1A1C
:100040000C94AD080C94AD080C94AD080C94AD085C
:100050000C944F1B0C94AD080C94AD080C94AD0897
:100060000C94AD080C94AD080C94AD080C94AD083C
:1000700011780A192A100B0E0508050B0D090D0C35
:100080000D0C0D0D0D0D40F0E0E0DCFCDCE0E0F0CF
:10009000400002060F0701070F06020000000000E3
:1000A0000000000000000000000000000000000050
:1000B00000000000000000C0C0C0C0000000000040
:1000C0003838383838FFFFFFFF3838383838000004
:1000D0000000000707070700000000000000000004
:1000E0000000000000000000000000000000000010
:1000F0000000000040FFFF7F0F0000000000000034
:100100000000000000003C3C3C3C3C3C3C3C00000F
:1001100000000000000000000000000000000000DF
:100120000000000080808000070F0F0F0700000014
:100130000000000000000080F0FEFF7F0F00008044
:10014000F0FEFFFF1F030000E0FCFFFF1F030000A5
:10015000000000808080000000000000000080E0BF
:10016000F0F87C1C1C1C7CF8F8E0807FFFFFFF800F
:1001700000000080FFFFFF7F000107070F0E0E0E3B
:100180000F07070100000000000000000000000051
:100190000000C0E0E0F078F8FCFCFC00010000008A
:1001A000FFFFFFFF00000000000F0F0F0F00000017
:1001B0000000000000001038383C1C1C1C3CFCF8FF
:1001C000F8E00000C0E0F0F0F87C3E1F0F070100EF
:1001D0000F0F0F0F0F0E0E0E0E0E0E0E0E00000064
:1001E0000000000000000000000018383C1C1C1C2F
:1001F0003CFCF8F8E0000000000E0E0E0F1FFFFBA5
:10020000F1E0060F0E0E0E0E0E0F070703010000A1
:100210000000000000000000000000000080E0F08E
:10022000F8FCFCFCFC0000F0FCFEFFE7E1E0FFFF57
:10023000FFFFE0E0000000000000000F0F0F0F00C4
:10024000000000000000000000000000000000802E
:10025000FCFCFC1C1C1C1C1C1C00000707070707DF
:100260000F1FFEFEFCF0060F0E0E0E0E0E0F070700
:1002700003010000000000000000000000000080FA
:10028000E0F0F07838381C1C1C1C00FEFFFFFF87D4
:100290000707070FFFFEFCF8000307070F0E0E0EFF
:1002A0000F0707030000000000000000000000002E
:1002B00000001C1C1C1C1C1C1CDCFCFCFC7C1C0012
:1002C000000000E0FCFFFF1F070100000000000E1F
:1002D0000F0F0F01000000000000000000000000F0
:1002E000000000000000E0F0F8F83C1C1C1C3CFC86
:1002F000F8F0E0F1FBFFFF1F0E0E1E3FFFFFFBF1CA
:100300000103070F0F0E0E0E0F0F07030100000071
:1003100000000000000000000000E0F0F8F83C1CC5
:100320001C1C3CF8F8F0C0030F0F1F1E1C1C9CFC8B
:10033000FFFFFF3F00000E0E0E0F0707070301002F
:10034000000000000000000000000000000020F09D
:100350000A0E206000020509060C090204040506C5
:10036000030403060605060607060606060603043A
:10037000060706060C09070708060708080206090B
:10038000070B0809070908060808090D09080704EA
:100390000604070702060605060605060602030709
:1003A000030A0607060605050506070B08070504E8
:1003B000020407057E7E1C1C0F0F000F0F000000BB
:1003C00000009898F8FE9EF8FE9E98041C1C041CE1
:1003D0001C040404387C6FCFCC8C181878781C0C63
:1003E0001C3E2222BEFCF8DC4E42C0800000101CE5
:1003F0000C040C1C10101C0CC0FC7E66FE9CC0C0C3
:10040000000C1C18181C0C1C18100F0F0000F8FE14
:100410000F021C7CF040020FFEF840F07C1C2C7890
:100420001E782C0000000000C0C0F0F0C0C000002A
:100430000C0C0000000000407838C0C0C0C00000B4
:1004400000000000001C1C1C0000E0FC1F03C0F8A2
:100450003C040000F8FC0606FCF8040C18180C0418
:10046000081C0CFEFE0000001C1C048EC6E67E1C50
:100470001C1C1C18181804066666FEDC18181818D0
:100480001C0CC0F0B88CFEFE80040404041C1C0488
:10049000607E7E66E6C6181818181C0CF0FC7C6698
:1004A000E6C0041C18181C0C0606C6F61E06001C26
:1004B0001C000000DCFE6666FEDC0C1C18181C0C20
:1004C0003C7E6666FEF80018180C0C003838381CA4
:1004D0001C1C0038383840783800E0E0B0B0B01864
:1004E00000000404040CB0B0B0B0B0B0B004040418
:1004F0000404040418B0B0B0E0E00C0404040000EC
:10050000030363731F0E001C1C1C0000E0F81CECAE
:10051000F636F6F60E0CF8F0041C38346C6C6C6C85
:100520006C0C040000C0F8BE86BEF8C000181C0C9D
:100530000404040C1C18FEFE666666FEDC1C1C1817
:1005400018181C0CF0FC0E06060606040C1C1818E5
:100550001818FEFE0606060CFCF81C1C1818180CD1
:100560000C00FEFE666666061C1C18181818FEFEB7
:1005700066666666661C1C0000000000F0FC0C0647
:100580000606C6C6000C1C1818181C1CFEFE60606F
:100590006060FEFE1C1C000000001C1CFEFE1C1CFB
:1005A00000000000FEFE181818181C0CFEFE30F0AB
:1005B000D88C0602001C1C0000040C1C1810FEFE47
:1005C00000000000001C1C1818181818E0FE1E7807
:1005D000E080E0781EFEE01C1C00000C0C04000013
:1005E0001C1CFEFE1C38E0C0FEFE1C1C0000000CA3
:1005F0001C1CF0FC0E0606060EFCF0000C1C181865
:10060000181C0C04FEFEC6C6C67C3C1C1C00000068
:100610000000F0FC0E0606060EFCF0000C1C18385C
:1006200078DCCC04FEFEC6C6C67C38001C1C00006C
:100630000C1C18101C3E6666C6C6181818181C0C30
:10064000060606FEFE0606060000001C1C00000052
:10065000FEFE00000000FEFE040C1C18181C0C041A
:10066000063EFCE000E0FC3E060000041C1C1C04EE
:1006700000000EFEF800E0FC1CFCE000F8FE0E009E
:10068000001C1C1C0000001C1C1C000002069EF824
:10069000F0F89E060210181C0400041C1810020E2C
:1006A0003CF0F03C0E020000001C1C00000006861E
:1006B000C6F63E1E06181C1C18181818FFFF030368
:1006C000FCFCC0C0031FFCE000000000043CF8C0BC
:1006D0000303FFFFC0C0FCFC20701C061C70200040
:1006E00000000000000000000000000000C0C0C0CA
:1006F000C0C0C0C00306000000B0B0B0F0E00C1CE9
:1007000018181C1CFFFF3030F0E01C1C18181C0CC3
:10071000E0E03030300C1C181818E0F03030FFFFEB
:100720000C1C18181C1CC0F0B0B0F0E00C1C181801
:100730001818FEFF3333331C1C000000C0F03030AB
:10074000F0F08CDCD8D8FC7CFFFF3030F0E01C1CD3
:1007500000001C1CF3F31C1C00F3F3C0FC7CFFFF27
:1007600080E07030101C1C00041C1810FFFF000CEF
:100770001C18F0F03030F0F03030F0E01C1C0000BD
:100780001C1C00001C1CF0F03030F0E01C1C0000B1
:100790001C1CC0E0303030E0C0040C1818180C04E9
:1007A000F0F03030F0E0FCFC18181C0CC0F03030D9
:1007B000F0F00C1C1818FCFCF0F03030301C1C0061
:1007C0000000E0F0B0B0901818181C0CFCFC3030A1
:1007D000300C1C181818F0F00000F0F00C1C181861
:1007E0001C1C30F0C000C0F03000041C181C0400B9
:1007F00030F0C000E070E000C0F03000001C180CC9
:10080000000C181C0000103070C0C07030101018A0
:100810001C0C041C181030F0C000C0F030C0CCFC20
:10082000783C040030B0F0F030181C1C1818C0FEE2
:10083000FF03007CFCC0FFFFFCFC03FFFEC0C0FC0C
:100840007C00C0E060E0C0E060000000000000004C
:10085000FF010101FF1C1010101C0D170A09206078
:100860000001030504070501030303050202010358
:100870000402040404040403040401020404040341
:10088000080505050504040405010305040705061C
:10089000040605040505050905050402030205040F
:1008A0000204040304040204040102040207040411
:1008B0000404020303040305040503030103040302
:1008C0005E0003000300000028782E782E00000050
:1008D0000000444AD32200000000044A2418245295
:1008E00020000000000000003C526C60100000007E
:1008F000000003007C820100008001827C800000F7
:100900000C060C00000010107C101000000000000D
:100910008040000010100000400080F01E800000A9
:100920003C42423C00000000047E00004462524C05
:1009300000000000424A4A340000000018147E10F3
:1009400000000000404E4A3200000000384C4A329D
:100950000000000002720E000000344A4A34000019
:1009600000004C52321C0000000044008044000093
:100970001028284400000000282828280000000033
:10098000442828100000000002520C0000007CC225
:100990003945453D423C0000808080800000603C3D
:1009A000223C6000000000007E4A4A4A34000000F9
:1009B00000003C4242424200000000007E424242AF
:1009C0003C00000000007E4A4A42000000007E0A0F
:1009D0000A02000000003C424272000000007E0853
:1009E00008087E00000000007E0040403E0000003D
:1009F0007E0814224000000000007E4040400000BD
:100A000000007E04182018047E0000000000000092
:100A10007E0408307E00000000003C424242423C1E
:100A20000000000000007E12120C000000003C429A
:100A300042C2423C0000000080007E1212324C0094
:100A400000000000444A52220000000002027E0220
:100A50000200000000003E4040403E000000000058
:100A600006384038060000000000063840380438D8
:100A70004038060000000000000000004224182456
:100A8000420000000000020C700C02000000000098
:100A900062524A4600000000FF018080031C600093
:100AA000000001FF8080080402040800000000002C
:100AB00000000000808080800102000024545478EF
:100AC000000000007F444438000000003844440027
:100AD00000003844447F000000003854545800009F
:100AE00000007F050000384444FC808080007F04C3
:100AF0000478000000007D0000FD80007F10284485
:100B0000000000003F4000007C04047804047800EA
:100B10000000000000007C0404780000000038445D
:100B2000443800000000FC44443880000000384491
:100B300044FC000000807C04000058543400000095
:100B40003E44440000003C40407C000000000C702B
:100B50001C0000001C601C601C00000000004438E9
:100B60002844000000000438C038048080000000E1
:100B700064544C00000010EE01000080FF8001EE84
:100B80001080000010081008000000007F417F0066
:100B90000000090910927C7CFF7C7C921000000010
:100BA0000001000000000909007CFEEE8301010045
:100BB000000000000001010100008040FF01010170
:100BC0000101010101010101010101818181818195
:100BD0000101010101010101010101010101010105
:100BE0000101F9F9F9F939393939010101818181B5
:100BF00081010101010101018181818181010101E5
:100C000001010101010101010101010101010101D4
:100C100001018181818181010101010101818181C4
:100C20008101010101010101018181818101010134
:100C300039393939F9F9F9F9010101FFFF000000EB
:100C40000000000000000000000000FF000024FF82
:100C50000000000000000000000000000000000094
:100C60000000FFFFFFFF00000000000000FFFFFF8B
:100C7000FF80C0E0F0F83E1F1F0F070301000000D7
:100C800000000000000000000000000080C0F0F83C
:100C9000FC7E1FFFFFFFFF000000000000FFFFFFC2
:100CA000FF0000000000000000FFFFFFFF00000049
:100CB00000000000FFFFFFFF000000FFFF0000003A
:100CC00000000000000000000000E01F0808091FED
:100CD000E000000000000000000000000000000034
:100CE0000000FFFFFFFF00000000000000FFFFFF0B
:100CF000FF0F1F3F7FFCF8F0E0C080000000001CE9
:100D00001C1C1C1C1C1C1C0000F0FCFEFFFFE7E16F
:100D1000E0E0E0FFFFFFFFE0E000000000FFFFFF7A
:100D2000FFC0000000000000C0FFFFFFFF00000048
:100D300000000000FFFFFFFF000000FFFF000000B9
:100D40000000C0C0C0C0000000000001020202019B
:100D50000000008080000000000000000000000093
:100D60000000FFFFFFFFC0C0C0C00000001F1F1F2A
:100D70001F000000000001030F1F1F1F1C180000B0
:100D80000000000000000000000000000000000063
:100D90000000001F1F1F1F000000000000000307CD
:100DA0000F1F1F1E1E1E1E1F1F0F07030000000027
:100DB000C0C0C0C0FFFFFFFF000000FFFF00000039
:100DC0000000FFFF0000000006060606FEFE060605
:100DD000060600FFFF3030303070E0C0000080E0D9
:100DE0006030313171E1C10101F1F030303030005B
:100DF000F0F030303070E0E030303070E0C00000B3
:100E000080E07030303070E08000000000000000B2
:100E100000000000000000000000000000000000D2
:100E200000000000000000000000000000000000C2
:100E30000101010101010101000000FFFF000000AC
:100E40000000FFFF80800000000000003F3F000026
:100E50000000003F3F00000000003F3F00000F1F68
:100E60003B33333333330300003F3F0000000000C7
:100E70003F3F000000003F3F000000003F3F0000F8
:100E8000071F38303030381F070000000000000016
:100E90000000E0E000000000000000000000000092
:100EA00000000000000000000000000C0CFCFC0032
:100EB0000000000000000000000000FFFF00000034
:100EC000000001010101000000000000000000001E
:100ED0000000000000000000000000000000000012
:100EE0000000000000FFFF03030307FEFE030303EF
:100EF00007FEFC0000F8FEB6333333373E3C0000FB
:100F0000E0F31B1B1B1BFEFC00001E1F3333E3E042
:100F10000000FFFF030303030000FFFF03030303BD
:100F20000078FE8703030387FE78000000FFFF00C0
:100F30000000000000000000000000FFFF80808033
:100F400080808080808080808080808080808080A1
:100F50008080808080808080808080808080808091
:100F60008080808080838380808080838380808075
:100F70008083838080808183838383838380808058
:100F8000808183838383838380808383838383813E
:100F9000808081838383838380808383808080803B
:100FA000808081838383838381808098989F9F80C2
:100FB0008080808080808080808080FF070970F83A
:100FC0008C079EF86000000101010000180AFF0173
:100FD000FD95956901C1794579C10105FD040105BA
:100FE000FD0501BD01FF030202020202020202022C
:100FF00002020202020202020202020202030909C2
:1010000010927C7CFF7C7C921000000000010000AC
:1010100000000909007CFEEE8301010000000000D1
:1010200000010101000000407A10F35A00A0724E46
:1010300018090010A5D4E80000E87648170000E47D
:101040000B54020000CA9A3B000000E1F5050000C5
:1010500080969800000040420F000000A08601002A
:101060000000102700000000E803000000006400FA
:10107000000000000A000000000001000000000065
:101080002C76D888DC674F0823DFC1DFAE59E1B189
:10109000B796E5E3E453C63AE651997696E8E6C298
:1010A0008426EB898C9B62ED407C6FFCEFBC9C9F9F
:1010B00040F2BAA56FA5F490055A2AF75C936B6CC1
:1010C000F9676DC11BFCE0E40D47FEF520E6B500B5
:1010D000D0ED902E0300943577050080841E080023
:1010E00000204E0A000000C80C333333330F986ED3
:1010F00012831141EF8D2114893BE65516CFFEE690
:10110000DB18D1844B381BF77C1D901DA4BBE42455
:10111000203284725E228100C9F124ECA1E53D27D2
:1011200011241FBECFEFD0E1DEBFCDBF11E0A0E0A4
:10113000B1E0E2E7F6E402C005900D92A835B107F0
:10114000D9F711E0A8E5B1E001C01D92AD3DB107AE
:10115000E1F70E94B4170C9437230C9400004F92CF
:101160005F926F927F929F92AF92BF92CF92DF92E7
:10117000EF92FF920F931F93CF93DF93082FA62E2A
:101180007A010894E11CF11CFA01C490F7019490D3
:10119000992049F10894E11CF11CBB2466247724B2
:1011A0004C2C4A9455240894411C511C19C0E3014D
:1011B000DB2CDA0CF701EC0FFD1F14919E01200FC0
:1011C000822F6D2D0E948F0F812F0E94FB0F219681
:1011D000CC1580F3E40CF51C98E0B90EB91418F4A2
:1011E000CC2029F7F9CFDF91CF911F910F91FF907C
:1011F000EF90DF90CF90BF90AF909F907F906F90D7
:101200005F904F9008954F925F926F927F929F925E
:10121000AF92BF92CF92DF92EF92FF920F931F9304
:10122000CF93DF93082FA62E7A010894E11CF11CBE
:10123000FA01C490F7019490992051F10894E11CAF
:10124000F11CBB24662477244C2C4A945524089422
:10125000411C511C1AC0E301DB2CDA0CF701EC0F26
:10126000FD1F14919E01200F822F6D2D0E948F0F64
:10127000812F80950E94FB0F2196CC1578F3E40C0A
:10128000F51C98E0B90EB91418F4CC2021F7F9CF69
:10129000DF91CF911F910F91FF90EF90DF90CF9052
:1012A000BF90AF909F907F906F905F904F90089508
:1012B00061157105E1F0E82FF92F20E030E080E0C2
:1012C000B8E0A8E141919B2F542F582750FF04C04C
:1012D0008A278695806801C08695915011F04695C1
:1012E000F3CF2F5F3F4F6217730761F7089580E0D8
:1012F0000895813059F0813028F0823059F08330E0
:1013000091F40CC084EA8093BC000DC084E8809303
:10131000BC0009C084EC8093BC0005C084E98093C4
:10132000BC0080E00895ECEBF0E080818823ECF7CE
:101330008091B900887F08950F931F93CF93DF9317
:1013400012E3082F007F042B6770062BCBEBD0E055
:1013500002C01150A9F080E00E9479098833C9F3D6
:10136000883011F0803171F4088381E00E9479099E
:10137000803279F3883369F3883131F08FEF05C01B
:101380008FEF03C08FEF01C080E0DF91CF911F91FD
:101390000F91089583E00E94790908958093BB001E
:1013A00081E00E947909883211F08FEF089580E082
:1013B00008951F93CF93DF93EC01162F80E091E007
:1013C0000E94F21D112301F18AE091E00E94F21DBA
:1013D00082E00E947909182F00D000D0EDB7FEB747
:1013E000319682E191E0ADB7BEB712969C938E9391
:1013F0001197128313820E94DD1D0F900F900F90A2
:101400000F90103559F405C081E00E9479098835A4
:1014100039F48091BB00888380E003C08FEF01C066
:101420008FEFDF91CF911F9108956AE00E94881D90
:101430008295807F890F0895982F92959F70990FBC
:10144000292F220F220F920F8F70890F08950F936B
:101450001F93DF93CF930F92CDB7DEB780ED90E06F
:1014600060E070E040E00E949C0980E00E94CE09AC
:101470000E94CA0980ED90E060E070E041E00E94C7
:101480009C098E010F5F1F4FC80161E00E94D909BE
:1014900089818F770E941C0A80935A01809388016A
:1014A000C80161E00E94D90989810E941C0A8093C9
:1014B0005B0180938901C80161E00E94D90989819B
:1014C000282F30E086FF19C091E0909359012072D7
:1014D0003070359527953595279535952795359510
:1014E000279535952795209361018F710E941C0ADD
:1014F00080935C0180938A010BC010925901109275
:1015000061018F730E941C0A80935C0180938A01A1
:101510008E010F5F1F4FC80161E00E94D9098981C8
:101520000E941C0A80935D0180938B01C80161E0D9
:101530000E94D90989810E941C0A80935E018093D0
:101540008C01C80161E00E94D90989810E941C0AAE
:1015500080935F0180938D01C80160E00E94D909EA
:1015600089810E941C0A8093600180938E010E94F1
:10157000CA090F90CF91DF911F910F910895CF92DB
:10158000DF92EF92FF921F93CF93DF93FC01908144
:1015900090935A01818180935B01828180935C01E9
:1015A000838180935D01848180935E018581809336
:1015B0005F01868180936001A8E8B1E087E0019037
:1015C0000D928150E1F79F7790935A0180ED90E062
:1015D00060E070E040E00E949C0980E00E94CE093B
:1015E00011E0C0E0D0E00F2EFAE5EF2EF1E0FF2E83
:1015F000F02D0F2EFCE5CF2EF1E0DF2EF02D02C0F6
:1016000021961F5FC230A9F4F60180810E94150A5D
:1016100090915901992349F0806490916101992337
:1016200011F0806203C08F7D01C08F7B0E94CE09C4
:10163000E7CFF701EC0FF11D80810E94150A0E948F
:10164000CE091730E8F20E94CA09DF91CF911F91AD
:10165000FF90EF90DF90CF9008958A3090F090E364
:101660009F5F8A508A30E0F720E320932301903374
:1016700011F090932301805D8093240183E291E037
:10168000089590E390932301F6CF1F93EAE7F0E0EB
:10169000808180830E949C168CEC0E94C11684E499
:1016A0000E94C1160E9414178823E1F30E949C1621
:1016B0008CEC0E94C1168EEB0E94C1160E9414177A
:1016C000182F0E941417382F20E0612F70E0262B6E
:1016D000372BB901882777FD8095982F0E94711CC0
:1016E00020E030E040E85DE30E94251D1F91089551
:1016F000EF92FF920F931F93CF93DF938AE598E0C9
:101700006FEC7EE04FEF0E94D20E8DE560E043E289
:1017100027E000E00E9435138FE560E00E948F0F04
:101720000F2EFAE8EF2EF1E0FF2EF02D80918A01C6
:101730001AE0612F0E94881D805D0E94C010809178
:101740008A01612F0E94881D892F805D0E94C01030
:101750008AE30E94C010E7018A91612F0E94881DD0
:10176000805D0E94C0108881612F0E94881D892F92
:10177000805D0E94C0108AE30E94C010E70122979A
:101780008881612F0E94881D805D0E94C010888121
:10179000612F0E94881D892F805D0E94C010DF91FB
:1017A000CF911F910F91FF90EF9008950F93CF93DA
:1017B000DF938DB79EB70A970FB6F8949EBF0FBE02
:1017C0008DBFEDB7FEB73196C0E8D1E0ADB7BEB77B
:1017D0001296DC93CE93119786E291E093838283F5
:1017E00080918C018483158280918D01868317827C
:1017F00080918E01808711860E94271E8DB79EB72B
:101800000A960FB6F8949EBF0FBE8DBF8AE598E08A
:101810006FEC7EE04FEF0E94D20ECE010E94180FB7
:10182000482F83E060E027E000E00E94351383E06A
:1018300060E00E948F0FCE010E943E12DF91CF9197
:101840000F9108950F930E94780B0E94D60B80E0B1
:1018500068E040E820E00FEF0E9435130F910895F3
:101860000F938091A90180628093A90180E46DE2C9
:101870004CE22CE000E00E94351380E46DE24CE283
:101880002CE00FEF0E94C51481E66BE24AE022E0F3
:1018900000E00E94351383E46FE242E95BE00E94BE
:1018A000AF088FE46FE246EA5BE00E94AF0883E492
:1018B000809366019FE29093670189E080936801BD
:1018C000809369012FE420936A0190936B018093C8
:1018D0006C0180936D010F9108950F938091A90180
:1018E0008F7D8093A90180E46DE24CE22CE000E062
:1018F0000E9435130F9108950F9382E665E149E048
:1019000029E000E00E9435138091AB019091AC0179
:1019100021E08D33920739F482E665E142E95BE02C
:101920000E94AF0806C082E665E146EA5BE00E94DD
:10193000AF080F910895FC01DB0120814C91241721
:10194000E8F030E012968C91129790E0840F911D90
:1019500082179307ACF0418111968C91119748172B
:1019600088F050E013962C91139730E0280F311D2A
:1019700081E0241735073CF480E0089580E0089565
:1019800080E0089580E00895FC01DB01208130E0D3
:101990008C9190E0AC0142505040421753074CF4F8
:1019A000AC014E5F5F4F81E0241735071CF480E0E7
:1019B00001C081E0218130E011964C91119750E0F7
:1019C000BA0162507040621773072CF44E5F5F4F8C
:1019D000241735070CF08260228112969C91129791
:1019E000291384600895EF920F931F93CF93DF9391
:1019F00083E064E14CE324E100E00E94351383E0DE
:101A000064E10E948F0FCFECDEE080E790E0BE0142
:101A10004FEF0E94D20E60919D0170919E018091C6
:101A20009F019091A00120E030E040E251E40E944B
:101A3000DB1B20E030E040E452E40E94731B0E9474
:101A4000431C862F0E94C01060919D0170919E01E1
:101A500080919F019091A0010E94431C862F1AE063
:101A6000612F0E94881D892F805D0E94C0108EE228
:101A70000E94C01060919D0170919E0180919F0114
:101A80009091A00120E030E040E251E40E94251D49
:101A90000E94431C862F612F0E94881D892F805D24
:101AA0000E94C0108FE261E146E026E003E0EE24F0
:101AB000EA940E94EE1380E362E144E024E002E055
:101AC0000E94EE138EE493E0BE014FEF0E94D20E0F
:101AD000C8E9D1E0CE010E94180F482F4C5F82E484
:101AE00064E12EE000E00E94351382E464E10E948C
:101AF0008F0FCE010E943E128AE562E144E024E0AD
:101B000002E00E94EE13DF91CF911F910F91EF90B1
:101B100008950F931F93182F80E564E24CE028E0AE
:101B200000E00E94351380E464E24CE028E00E946B
:101B3000351380E664E24CE028E00E94351380E52E
:101B400064E24CE028E00FEF0E94C51480E464E2F8
:101B50004CE028E00E94C51480E664E24CE028E0F6
:101B60000E94C51484E468E248E428E20E94ED146F
:101B700084E568E248E528E20E94ED1486E566E225
:101B800046E52AE20E94ED148091A90185FF15C067
:101B900081E66BE24AE022E000E00E94351384E631
:101BA00069E246E627E20FEF0E94ED1488E669E25B
:101BB00046E627E20E94ED140DC084E667E246E6A1
:101BC00029E20FEF0E94ED1488E667E246E629E27B
:101BD0000E94ED14113039F480E564E24CE028E015
:101BE0000E94971211C0123039F480E464E24CE094
:101BF00028E00E94971208C0133031F480E664E2B6
:101C00004CE028E00E9497121F910F9108958AE5F9
:101C100098E06FEC7EE04FEF0E94D20E0E94220C03
:101C20000E94F30C0E947C0C80E00E94890D80E4ED
:101C30008093720124E2209373019CE090937401DD
:101C400088E08093750130E530936E0120936F0139
:101C5000909370018093710130E63093620120937C
:101C6000630190936401809365010895DF93CF939E
:101C700000D0CDB7DEB7429A8091A90182608093EF
:101C8000A9011A82198289819A812AE388399207E7
:101C900058F489819A8101969A83898389819A81EE
:101CA0002AE388399207A8F380E00E94C6130E94B5
:101CB000070E0F900F90CF91DF9108954298809179
:101CC000A9018D7F8093A9010895DF92EF92FF9281
:101CD0000F931F93DF93CF9300D00F92CDB7DEB752
:101CE00081B1807F81B981B1856081B982B1807F06
:101CF00082B9129A81E00E947617182F83E00E9421
:101D00007617E82E612F665170E0882777FD809561
:101D1000982F0E94711C20E030E048EC5FE30E94A5
:101D2000DB1B0E94431CF62E81B1807F81B981B1FB
:101D30008A6081B982B1807F82B9139A80E00E9463
:101D40007617082F009582E00E947617D82E602F14
:101D5000685270E0882777FD8095982F0E94711C4B
:101D600020E030E041E350E40E94DB1B0E94431C72
:101D7000762F1E1531F4D09481E00D1519F080E016
:101D800001C080E06F2D90E00F900F900F90CF91E9
:101D9000DF911F910F91FF90EF90DF900895FC016C
:101DA0008491089590937D0180937C0170937B01D1
:101DB00060937A014093760108950F931F93182F33
:101DC00080917C0190917D01E0917A01F0917B01FD
:101DD00004960995082F80917C0190917D01E091F6
:101DE0007A01F0917B01059609951017D8F0212F03
:101DF00030E0402F50E0BA01680F711D26173707F9
:101E00009CF4101B812F90E0069620917C0130916C
:101E10007D01E0917A01F0917B01820F931F09957A
:101E20008F5F03C080E001C080E01F910F91089593
:101E3000EF92FF920F931F93CF93DF93FC0180816A
:101E4000882379F08F010F5F1F4FC0E0D0E00E9420
:101E5000DD0EC80FD11DF80181918F018823B9F7DC
:101E600002C0C0E0D0E07E018C2F9F2DDF91CF918A
:101E70001F910F91FF90EF9008950F931F93CF93B1
:101E8000DF93EC01FE012491222379F000E010E0C1
:101E90002196FC0184910E94DD0E080F111DCE01D8
:101EA000FE0124912223A1F702C000E010E0802F60
:101EB000912FDF91CF911F910F910895DF93CF93D1
:101EC0000F92CDB7DEB7662319F45A985B9A04C017
:101ED000613011F45B985A9A5C985D989FEF94B9C1
:101EE00085B95E9A000000000000000000000000BC
:101EF00000000000000000000000000000005E98EC
:101F0000198289818E3130F489818F5F898389813B
:101F10008E31D0F315B80F90CF91DF9108951F93B4
:101F200088230CF480E0603408F060E0809377014F
:101F30006093780166956695669560937901803423
:101F400018F0805461E001C060E080640E945E0F80
:101F500010917901186B812F60E00E945E0F812F34
:101F600061E00E945E0F1F9108951F93DF93CF934E
:101F70000F92CDB7DEB715B814B8909177019034B1
:101F800018F45A985B9A02C05B985A9A909177011C
:101F9000903431F4882321F080E461E00E945E0FE8
:101FA0005C9A5D9A5E9A00000000000013B15E9892
:101FB00019828981883030F489818F5F8983898192
:101FC0008830D0F38FEF84B98091770160917801E8
:101FD0000E948F0F8091580181111095812F0F90D1
:101FE000CF91DF911F91089581E00E94B50F80E0AD
:101FF0000E94B50F0895CF92DF92EF92FF920F9358
:102000001F93DF93CF930F92CDB7DEB7082F809148
:10201000770188230CF4AAC0803418F45A985B9A8C
:1020200002C05B985A9A80917701803419F461E07C
:102030000E945E0F5C9A5D988FEF84B98091780161
:102040000F2EF7E0FF2EF02DF82209F46BC0EBB055
:102050000E94F40FEBB89FEF94B910E0CF2CDD2471
:10206000980102C0220F331FFA94E2F7822B90915D
:1020700058019111809585B95E9A0000000000001A
:102080000000000000000000000000000000000050
:10209000000000005E98198289818E3130F48981B8
:1020A0008F5F898389818E31D0F360917801685F79
:1020B000809177010E948F0F0E94F40FEBB89FEF81
:1020C00094B928E030E02C193D0902C01595079518
:1020D0002A95E2F7082B809158018111009505B9E6
:1020E0005E9A0000000000000000000000000000F8
:1020F0000000000000000000000000005E9819824F
:1021000089818E3130F489818F5F898389818E3115
:10211000D0F3809177016091780168508F5F0E94C1
:102120008F0F23C0809158018111009505B95E9AE7
:10213000000000000000000000000000000000009F
:10214000000000000000000000005E9819828981F4
:102150008E3130F489818F5F898389818E31D0F30C
:10216000809177018F5F8093770115B80F90CF91A1
:10217000DF911F910F91FF90EF90DF90CF90089526
:102180002F923F924F925F926F927F928F929F9287
:10219000AF92BF92CF92DF92EF92FF920F931F9375
:1021A000DF93CF9300D000D000D0CDB7DEB7E82EBC
:1021B00080917C0190917D01E0917A01F0917B0109
:1021C00003960995C82E282F2770298380917C01BA
:1021D00090917D01E0917A01F0917B01049609953F
:1021E000182F80917C0190917D01E0917A01F0910E
:1021F0007B0105960995A82E309177013B8380914C
:1022000078018C83E11608F4DFC02E2D30E0812F99
:1022100090E08A0D911D281739070CF0D8C0E11AFB
:10222000E1F00F2EF6E08F2E9924F02D00E010E063
:1022300080917C0190917D01E0917A01F0917B0188
:10224000880D991D0995080F111D0894811C911C7A
:10225000882D86508E1560F302C000E010E08C2DB2
:1022600090E007969595879595958795959587958F
:102270008A83282F30E0029FC001039F900D129F98
:10228000900D11242A2C3324E6E0F0E02E0E3F1EA0
:10229000280E391E8E2D90E0069620917C013091FB
:1022A0007D01E0917A01F0917B01820F931F0995E6
:1022B000082FFA81FF2309F47EC0482E419455244B
:1022C00066247724689461F8CF2EDD24002309F476
:1022D00049C04101840C911C9101250D311D3E83A3
:1022E0002D83740153010894A108B10880917C01E9
:1022F00090917D01E0917A01F0917B012D813E81E9
:10230000820F931F0995182FAC14BD0499F4809186
:102310007C0190917D01E0917A01F0917B018E0D1D
:102320009F1D099590E0098002C0959587950A94B4
:10233000E2F7182B809176018F3F21F4812F0E94C4
:10234000FB0F04C0812F80950E94FB0F8D819E8121
:1023500001969E838D830894E11CF11C8E2D8819B3
:10236000801720F2809176018F3F21F480E00E9457
:10237000FB0F03C08FEF0E94FB0F6C147D0444F42D
:10238000E8E7F1E06081685F8B810E948F0F08C0F1
:10239000E8E7F1E06081F9816F0F8B810E948F0F78
:1023A0000894611C711C500E400E862D82502A81AB
:1023B000821708F48BCF8B818F5F800F6C810E9416
:1023C0008F0F20E030E005C021E030E002C021E0C6
:1023D00030E0822F932F26960FB6F894DEBF0FBE03
:1023E000CDBFCF91DF911F910F91FF90EF90DF90C4
:1023F000CF90BF90AF909F908F907F906F905F90A5
:102400004F903F902F900895EF92FF920F931F935C
:10241000CF93DF93EC0100917701FE0124912223F9
:1024200031F10F2EF8E7EF2EF1E0FF2EF02DFC0139
:1024300024912A3091F4F701108180917C019091D0
:102440007D01E0917A01F0917B0103960995682F57
:10245000610F802F0E948F0F04C0FC0184910E94A5
:10246000C0102196CE01FE012491222301F7DF91B5
:10247000CF911F910F91FF90EF900895EF92FF92EF
:102480000F931F93CF93DF93EC0100917701888125
:10249000882301F121960F2EF8E7EF2EF1E0FF2EB1
:1024A000F02D8A3091F4F701108180917C01909198
:1024B0007D01E0917A01F0917B0103960995682FE7
:1024C000610F802F0E948F0F02C00E94C01089915F
:1024D000882339F7DF91CF911F910F91FF90EF90F3
:1024E00008950F931F93162F042F687F0E948F0F5C
:1024F0000E94F40F0F3F59F4177041E050E09A0129
:1025000002C0220F331F1A95E2F7822B0BC01770FF
:1025100021E030E0B90102C0660F771F1A95E2F79B
:10252000609586230E94FB0F1F910F910895AF9233
:10253000BF92CF92DF92EF92FF920F931F93CF93B0
:10254000DF93C82EE42EA22EA394462F4770062FA9
:10255000041BCA2DD0E088E090E0841B9109C817C5
:10256000D9077CF488E090E08C1B9D0B2FEF30E0C6
:10257000B90102C0759567958A95E2F7D62E1A2D96
:1025800004C018E0141BDD24DA9401C0DD0C4A9568
:10259000EAF78C2D602F0E948F0FFF24BD2CB09482
:1025A0000E94F40F982F90959D218B21892B0E94DA
:1025B000FB0FF394EF14A0F710C0185F085F8C2D89
:1025C000602F0E948F0FDF2C0E94F40F80950E94D5
:1025D000FB0FD394ED1410F0F7CFFF24812F90E080
:1025E0009C01285F3F4FC217D3073CF71A1510F51F
:1025F000C81BD90B8FEF90E09C010C2E02C0220F5C
:10260000331F0A94E2F7B9016095162F602F685FB7
:102610008C2D0E948F0F00E0F12EF0940E94F40F99
:10262000982F909591238F21892B0E94FB0F0F5F8C
:10263000E016A0F7DF91CF911F910F91FF90EF90DF
:10264000DF90CF90BF90AF9008951F93182F809187
:102650005801811741F080E060E04FE72FE30E94CE
:102660009712109358011F9108959F92AF92BF92B5
:10267000CF92DF92EF92FF920F931F93CF93DF934E
:10268000B82ED42EE02E922E9394462F4770062F0C
:10269000041BC92DD0E088E090E0841B9109C81785
:1026A000D9077CF488E090E08C1B9D0B2FEF30E085
:1026B000B90102C0759567958A95E2F7A62E192D86
:1026C00004C018E0141BAA24AA9401C0AA0C4A95BD
:1026D000EAF78B2D602F0E948F0FFF24CA2CC09425
:1026E0000E94F40F7E2D7F3F11F48A2901C08C21B6
:1026F0000E94FB0FF394DF1498F70EC0185F085F79
:102700008B2D602F0E948F0FCF2C8E2D0E94FB0FE0
:10271000C394DC1410F0F9CFFF24812F90E09C01CA
:10272000285F3F4FC217D3074CF7191518F5C81B80
:10273000D90B8FEF90E09C010C2E02C0220F331FAB
:102740000A94E2F7B9016095F62E602F685F8B2D31
:102750000E948F0F10E00F2D00950E94F40F7E2D28
:102760007F3F11F48F2901C080230E94FB0F1F5F60
:10277000D11698F7DF91CF911F910F91FF90EF90B5
:10278000DF90CF90BF90AF909F9008950F931092DD
:1027900077011092780110927901809358018FEFA0
:1027A0008AB98FE360E00E945E0F8FE361E00E94D0
:1027B0005E0F80EC60E00E945E0F80EC61E00E94A2
:1027C0005E0F80E060E04FE72FE300E00E943513EA
:1027D00080E060E00E948F0F0F9108952F923F924A
:1027E0004F925F926F927F928F929F92AF92BF9221
:1027F000CF92DF92EF92FF920F931F93DF93CF93CD
:10280000CDB7DEB72B970FB6F894DEBF0FBECDBFA6
:102810008C836D83488729870B83C02EDD24662433
:1028200077246C187D08660C771C83E090E0680EB6
:10283000791E302E9C81390E202E260EE42FE90FB2
:10284000EF83E01BE983822F860F8E83801B8A83B0
:10285000F82EBE2EA22C932C442455241B861A86B7
:102860001C2D022D0C19892D602F4E2D0E947112E6
:10287000832C8C18882D6A2D4E2D0E9471128B2D61
:10288000602F4E2D0E94711209810C0D802F6A2D30
:102890004E2D0E9471129A81190F8B2D612F4E2D92
:1028A0000E947112802F6F2D4E2D0E947112892D62
:1028B000612F4E2D0E947112882D6F2D4E2D0E947A
:1028C000711277203CF4E6E0F0E06E0E7F1E640C9F
:1028D000751C11C08AE090E0680E791E8A859B8580
:1028E0008C199D09880F991F880F991F680E791EF2
:1028F0000894C108D108EA85FB853196FB87EA87F1
:102900009A94AA94B394F39484E090E0480E591EEC
:10291000CE16DF060CF0A4CFFB80F194FF0C1885D7
:102920001F0D832D6D81412F20E00E2D0E94351348
:10293000832D6E81412F20E00E94351319851F0DD4
:102940008C81622D40E0212F0E9435138F81622DF2
:1029500040E0212F0E9435132B960FB6F894DEBF6E
:102960000FBECDBFCF91DF911F910F91FF90EF90E0
:10297000DF90CF90BF90AF909F908F907F906F909F
:102980005F904F903F902F900895CF92DF92EF92FB
:10299000FF920F931F93F82EE62ED42EC22E20E026
:1029A0000E9435136C2D6E0D8F2D4D2D20E00E9451
:1029B00035138F2D6E2D40E02C2D0E9435138D2D5B
:1029C0008F0D6E2D40E02C2D0E9435131F910F911D
:1029D000FF90EF90DF90CF9008952F923F924F920B
:1029E0005F926F927F928F929F92AF92BF92CF929F
:1029F000DF92EF92FF920F931F93DF93CF9300D05C
:102A000000D0CDB7DEB7E82ED62EA42EB22EC02E23
:102A1000841769F4261710F4D22EB62E2B2D2D19FB
:102A20008E2D6D2D40E00C2D0E943513F4C06217E1
:102A300069F4481710F4E42EA82E4A2D4E198E2D55
:102A40006D2D20E00C2D0E943513E5C030E0462F9F
:102A500050E08A2D90E08E199109B901641B750B25
:102A60006817790734F4421B530B481759070CF4C5
:102A70006BC0AE1430F48D2DDB2CB82E8E2DEA2CCD
:102A8000A82EAE188B2D90E09A8389832D2C3324A9
:102A90004C0182189308AA2DB0E0BC83AB8328ECCC
:102AA00030E0829EC001839E900D929E900D112475
:102AB000BD010E94A81D3B01ED2D10E00F2EF8EC8A
:102AC0004F2E5524F02D89819A81281A390A212FF9
:102AD00030E0269DC001279D900D369D900D11245C
:102AE000B2010E94A81DFD2CF60E282F392F243686
:102AF000310514F0F39405C09FEF2D3939070CF41C
:102B0000FA94412F4E0D842F6E2F2F2D0C2D0E94E5
:102B1000ED14AB81BC818A169B062CF0DB1418F4F3
:102B2000EF2DEF5F0DC0EB81FC812E163F062CF0E0
:102B3000BD1428F4EF2DE15003C0EF2D01C0EF2D9F
:102B40001F5FA11620F667C0BD1430F48D2DDB2C5D
:102B5000B82E8E2DEA2CA82EBD18EA2DF0E02E2CD2
:102B600033244F01821893088B2D90E09A83898338
:102B700028EC30E0829EC001839E900D929E900DC5
:102B8000112469817A810E94A81D3B014E2D10E01D
:102B90000F2EF8EC4F2E5524F02D2E1A3F0A212F20
:102BA00030E0269DC001279D900D369D900D11248B
:102BB000B2010E94A81DFE2CF60E282F392F2436B4
:102BC000310514F0F39405C09FEF2D3939070CF44B
:102BD000FA94212F2D0D842F622F4F2D0C2D0E9442
:102BE000ED14A981BA818A169B062CF0EA1418F418
:102BF0004F2D4F5F0DC0E981FA812E163F062CF054
:102C0000AE1428F44F2D415003C04F2D01C04F2D5D
:102C10001F5FB11620F60F900F900F900F90CF917D
:102C2000DF911F910F91FF90EF90DF90CF90BF90B9
:102C3000AF909F908F907F906F905F904F903F905C
:102C40002F900895DF93CF9300D000D00F92CDB78F
:102C5000DEB7E42F89839A836B837C83282F392FF7
:102C6000462F572F6E2F70E080E090E00F900F906E
:102C70000F900F900F90CF91DF9108950F931F93B6
:102C8000CF93DF93EC01888199819695982F8827BF
:102C9000979587956A817B810E94941D162F80E00D
:102CA0006C8140E820E000E00E94351380E06C81F8
:102CB000412F20E00FEF0E943513DF91CF911F913C
:102CC0000F910895FC01608311820E943E160895C1
:102CD00089B1807808955F9A579A08950F931F934A
:102CE000182F0FB7F8945F98579A8DE08A95F1F7EF
:102CF0000000112311F057985F9A96E59A95F1F725
:102D000000C089B1880F880B182386ED90E00197E9
:102D1000F1F700C000005F9A5798662311F00E94F7
:102D20006B160FBF92E49A95F1F700C0812F1F91A7
:102D30000F910895579808955F98579A8FE599E0F5
:102D40000197F1F700C000009FB7F89457985F9A79
:102D5000EFE3F1E03197F1F700C0000089B19FBFC8
:102D6000EFE1F8E03197F1F700C000004F9B02C09F
:102D70008078089581E00895817060E00E946E1669
:102D800008950F931F93182F08E0812F81700E94E0
:102D9000BC161695811110680150B9F7812F1F914B
:102DA0000F9108950F931F93182F08E0013031F011
:102DB000812F817060E00E946E1605C0812F8170A6
:102DC00061E00E946E16169581111068015071F72E
:102DD000812F1F910F910895FF920F931F93CF930F
:102DE000DF93F82EEB01042F0E949C16209751F0E0
:102DF00085E50E94C11618E089910E94C116115004
:102E0000D9F703C08CEC0E94C116002321F08F2D4E
:102E10000E94D21603C08F2D0E94C116DF91CF9160
:102E20001F910F91FF9008958FEF0E94C116089592
:102E3000DF92EF92FF920F931F93CF93DF93D82EE1
:102E4000EB010E949C16882361F580EF0E94C11659
:102E5000EE2410E40F2EF8EFFF2EF02DF10E81E09E
:102E60000E94BC16082F81E00E94BC16882319F02E
:102E7000002351F019C0002349F51D1510F1888178
:102E800080FF02C0D11601F5802F0E94BC168881F8
:102E90008695888311501F1511F7112349F021964B
:102EA000D9CFEE24EA9404C00F2EFEEFEF2EF02DC2
:102EB0008E2DDF91CF911F910F91FF90EF90DF90BA
:102EC0000895E12E01E002C0E12E01E0802F0E9472
:102ED000BC168881869580688883DCCF40E00E949C
:102EE000EC16089541E00E94EC160895AAE7B0E0C0
:102EF0009C919C93ECE7F0E010829081906290832B
:102F00009081892B80838C91806C8C93EAE7F0E030
:102F1000808184FFFDCFEAE7F0E0808180618083DB
:102F2000809179000895AAE7B0E09C919C93ECE72A
:102F3000F0E0108290819F7D90839081892B808327
:102F40008C91806C8C93EAE7F0E0808184FFFDCF68
:102F5000EAE7F0E080818061808320917800309101
:102F60007900822F932F08952F923F924F925F9274
:102F70006F927F928F929F92AF92BF92CF92DF9289
:102F8000EF92FF920F931F93DF93CF93CDB7DEB7EE
:102F90006B970FB6F894DEBF0FBECDBF80E281B94C
:102FA00014B880EC87B912B888E388B98FEF8AB972
:102FB00089E491E09093DC018093DB019093DA0146
:102FC0008093D9010E94201B789485E391E00E94B0
:102FD000F21D429A8091A90182608093A9011A8A08
:102FE000198A89899A892AE38839920758F4898944
:102FF0009A8901969A8B898B89899A89AAE388395B
:103000009A07A8F380E00E94C613EAE7F0E0808107
:1030100086608083ACE7B0E08C918C938C91806269
:103020008C9380818068808380818064808310920B
:10303000B90080E38093B8008CE38093840086EF2E
:103040008093850082E080938100EFE6F0E080814C
:103050008160808380E090E0DC0180939D0190930B
:103060009E01A0939F01B093A00180938F01909344
:103070009001A0939101B09392010E94270A609160
:103080009D0170919E0180919F019091A00141E06E
:1030900021E003E911E00E94BB1D60918F01709156
:1030A0009001809191019091920141E021E008E925
:1030B00011E00E94BB1D0F2EFAEBEF2EFBE0FF2E5E
:1030C000F02D80E060E0A7010E9403098FEF94E3F8
:1030D000ACE081509040A040E1F700C0000080E0EB
:1030E00060E0A7010E94AF088FEF98E0ADE3815048
:1030F0009040A040E1F700C0000080E060E04FE7B2
:103100002FE300E00E9435130E94070E85E00E9425
:103110007617682E90E060E071E049E00E94221688
:103120002B8B3C8B4D8B5E8B6F8BDE011796FE01DC
:10313000739685E001900D928150E1F72091AA01EC
:1031400084E190E0821B910964E170E04FE30E940A
:1031500022162B8B3C8B4D8B5E8B6F8BDE011C966E
:10316000FE01739685E001900D928150E1F7CE014A
:1031700007960E943E16CE010C960E943E16809144
:10318000A90182608093A9010E94270A4E01089438
:10319000811C911C0F2EF3E07F2EF02D8091A90150
:1031A00081FD1CC033992AC10E94360ECE010796BC
:1031B0000E943E16CE010C960E943E161092AA0165
:1031C0008091A90180FF06C088E765E34CEB5FE0D2
:1031D0000E94AF088091A90181FF10C1349916C0E7
:1031E000ADE3B1E0B093AC01A093AB0180E090E01F
:1031F000A0E9B1E480938F0190939001A093910195
:10320000B09392010E947C0C1092AA01359916C0CD
:10321000A3E4B1E0B093AC01A093AB0180E090E0F7
:10322000A0E5B1E480938F0190939001A093910168
:10323000B09392010E947C0C1092AA010E94650E2C
:103240006B8B7C8B8D8BD401FE017396872D019047
:103250000D928150E1F7C401BE016C5F7F4F0E9467
:10326000C40C882309F4A8C082FF9EC08B818823E8
:1032700009F495C0C40162E771E00E949B0C8823A9
:10328000D1F082E00E94890D60918F0170919001D0
:10329000809191019091920120E030E040E05FE365
:1032A0000E94721B60938F01709390018093910133
:1032B0009093920134C0C4016EE671E00E949B0CB1
:1032C0008823D1F081E00E94890D60918F01709177
:1032D0009001809191019091920120E030E040E0D6
:1032E0005FE30E94731B60938F0170939001809342
:1032F00091019093920113C0C40162E671E00E94B3
:103300009B0C882361F0872D0E94890D8091A90173
:1033100085FF03C00E946D0C02C00E94300C80919A
:10332000A90185FF3FC0C40166E671E00E949B0CC5
:103330008823B9F0ADE3B1E0B093AC01A093AB0149
:1033400080E090E0A0E9B1E480938F019093900138
:10335000A0939101B09392010E946D0C0E947C0C8D
:1033600021C0C4016AE671E00E949B0C8823D1F061
:10337000A3E4B1E0B093AC01A093AB0180E090E096
:10338000A0E5B1E480938F0190939001A093910107
:10339000B09392010E946D0C0E947C0C03C080E0EF
:1033A0000E94890D1092AA01DE011496F401872D66
:1033B00001900D928150E1F7E0908F01F090900123
:1033C0000091910110919201C201B101A8019701F0
:1033D0000E94D71B882391F0C801B70141E021E08A
:1033E00008E911E00E94BB1D20908F0130909001F0
:1033F00040909101509092010E94F30C8091A9019C
:1034000082FF89C08B7F8093A90181FF11C08091C9
:10341000AA018F5F8093AA0164E1681BCE010C961C
:103420000E9462168091AA01843111F40E945E0EFE
:103430008091A90184FF68C08F7E8093A901A8E8CC
:10344000B1E08C918F5F8C938C3311F40E94270A2A
:103450000E94780B0E94450B9B01AC0160939D017B
:1034600070939E0180939F019093A001688D798D48
:103470008A8D9B8D0E94D71B882391F08091A90192
:1034800081FF02C00E94F30C80919D0190919E01EA
:10349000A0919F01B091A001888F998FAA8FBB8FB7
:1034A00084E00E947617182F482F50E0862D90E078
:1034B0009C01225030402417350724F40296481707
:1034C00059074CF18091A90181FF05C0CE010796F3
:1034D000612F0E9462161431D8F48091A90186FDF3
:1034E00019C080648093A901469AA7EAB1E61197B2
:1034F000F1F700C00000469880E065E34CEC5FE027
:103500000E94AF08612E07C080618093A90103C0AB
:10351000612E01C0612EE0908F01F090900100912A
:10352000910110919201A0909D01B0909E01C090D8
:103530009F01D090A001C801B70120E030E040E039
:103540005FE30E94721BA60195010E94211D882342
:10355000D4F09091A90190FD16C096FD14C0916021
:103560009093A901479AE7EAF1E63197F1F700C095
:103570000000479891FF27C088E765E34CEB5FE0C8
:103580000E94AF0820C0C801B701A60195010E94A2
:10359000D71B1816C4F08091A90180FF14C08E7F3C
:1035A0008093A901469AA7EAB1E61197F1F700C006
:1035B0000000469881FF07C088E765E347E029E0FF
:1035C00000E00E9435138091A90183FFE7CD877F3A
:1035D0008093A901E3CD1F920F920FB60F92112491
:1035E0002F938F939F938CE38093840086EF809337
:1035F000850080917E0190917F01019690937F01DB
:1036000080937E018436910531F48091A901886010
:103610008093A9010DC021E0843F920749F4809175
:10362000A90184608093A90110927F0110927E010C
:103630009F918F912F910F900FBE0F901F90189513
:1036400080E48093C40088E08093C1000895E0EC9A
:10365000F0E0908195FFFDCF8093C60080E090E080
:103660000895E0ECF0E0908195FFFDCF8093C600D7
:10367000089580E090E008958091D501089520910B
:10368000D5013091D6018217930721F41092D6010B
:103690001092D50183559E4FFC01808108951F92A1
:1036A0000F920FB60F9211242F938F939F93EF9346
:1036B000FF938091D5019091D60101969093D60108
:1036C0008093D5012091C60083559E4FFC01208335
:1036D000FF91EF919F918F912F910F900FBE0F90BF
:1036E0001F9018955058BB27AA270ED070C161D1E2
:1036F00030F066D120F031F49F3F11F41EF456C132
:103700000EF4E095E7FB4CC1E92F72D180F3BA17B4
:10371000620773078407950718F071F49EF58AC154
:103720000EF4E0950B2EBA2FA02D0B01B9019001DC
:103730000C01CA01A0011124FF27591B99F0593F20
:1037400050F4503E68F11A16F040A22F232F342F68
:103750004427585FF3CF469537952795A795F040B6
:103760005395C9F77EF41F16BA0B620B730B840BCB
:10377000BAF09150A1F0FF0FBB1F661F771F881F83
:10378000C2F70EC0BA0F621F731F841F48F48795DB
:1037900077956795B795F7959E3F08F0B3CF9395CA
:1037A000880F08F09927EE0F979587950895D4D044
:1037B00008F481E008950CD00AC102D140F0F9D09C
:1037C00030F021F45F3F19F0EBC0511134C1EEC06D
:1037D0000FD198F39923C9F35523B1F3951B550BDA
:1037E000BB27AA2762177307840738F09F5F5F4FD4
:1037F000220F331F441FAA1FA9F333D00E2E3AF015
:10380000E0E830D091505040E695001CCAF729D02E
:10381000FE2F27D0660F771F881FBB1F261737077D
:103820004807AB07B0E809F0BB0B802DBF01FF27AD
:1038300093585F4F2AF09E3F510568F0B1C0FBC01E
:103840005F3FECF3983EDCF3869577956795B795E7
:10385000F7959F5FC9F7880F911D9695879597F902
:103860000895E1E0660F771F881FBB1F621773077B
:103870008407BA0720F0621B730B840BBA0BEE1F90
:1038800088F7E0950895BCD088F09F5790F0B92F45
:103890009927B751A0F0D1F0660F771F881F991FA5
:1038A0001AF0BA95C9F712C0B13081F0C3D0B1E0B7
:1038B0000895C0C0672F782F8827B85F39F0B93FC7
:1038C000CCF3869577956795B395D9F73EF49095A7
:1038D0008095709561957F4F8F4F9F4F0895E89425
:1038E00009C097FB3EF490958095709561957F4F48
:1038F0008F4F9F4F9923A9F0F92F96E9BB279395F6
:10390000F695879577956795B795F111F8CFFAF405
:10391000BB0F11F460FF1BC06F5F7F4F8F4F9F4F36
:1039200016C0882311F096E911C0772321F09EE894
:10393000872F762F05C0662371F096E8862F70E0FA
:1039400060E02AF09A95660F771F881FDAF7880FD4
:103950009695879597F90895990F0008550FAA0B2A
:10396000E0E8FEEF16161706E807F907C0F0121692
:103970001306E407F50798F0621B730B840B950B95
:1039800039F40A2661F0232B242B252B21F40895EA
:103990000A2609F4A140A6958FEF811D811D089587
:1039A00097F99F6780E870E060E008959FEF80ECF2
:1039B000089500240A941616170618060906089595
:1039C00000240A9412161306140605060895092EFB
:1039D0000394000C11F4882352F0BB0F40F4BF2B6A
:1039E00011F460FF04C06F5F7F4F8F4F9F4F0895AA
:1039F00057FD9058440F551F59F05F3F71F04795A0
:103A0000880F97FB991F61F09F3F79F08795089584
:103A1000121613061406551FF2CF4695F1DF08C0A3
:103A2000161617061806991FF1CF869571056105C0
:103A300008940895E894BB2766277727CB0197F968
:103A400008958ADF08F48FEF08950BD0C0CFB1DF5F
:103A500028F0B6DF18F0952309F0A2CFA7CF1124E4
:103A6000EACFC6DFA0F3959FD1F3950F50E0551F25
:103A7000629FF001729FBB27F00DB11D639FAA27C3
:103A8000F00DB11DAA1F649F6627B00DA11D661F12
:103A9000829F2227B00DA11D621F739FB00DA11D33
:103AA000621F839FA00D611D221F749F3327A00DED
:103AB000611D231F849F600D211D822F762F6A2F89
:103AC00011249F5750408AF0E1F088234AF0EE0F0E
:103AD000FF1FBB1F661F771F881F91505040A9F71B
:103AE0009E3F510570F05CCFA6CF5F3FECF3983E50
:103AF000DCF3869577956795B795F795E7959F5F82
:103B0000C1F7FE2B880F911D9695879597F908951B
:103B1000991B79E004C0991F961708F0961B881F1F
:103B20007A95C9F780950895AA1BBB1B51E107C080
:103B3000AA1FBB1FA617B70710F0A61BB70B881F3D
:103B4000991F5A95A9F780959095BC01CD010895CC
:103B500097FB092E07260AD077FD04D0E5DF06D0B3
:103B600000201AF4709561957F4F0895F6F79095AF
:103B700081959F4F0895EF92FF920F931F93322FDD
:103B8000F02E47FF02C0A4E101C0A4E0E42FFF270C
:103B9000E7FDF095F7FF03C0F095E195FF4F4F2D3E
:103BA000512F2E2F032FEA2E0E9431208F2D912F7F
:103BB0001F910F91FF90EF900895A0E0B0E0E3EE29
:103BC000FDE10C941023FE01359661917191809175
:103BD000D9019091DA01AF010E944A1E2096E2E0DD
:103BE0000C942C23EF92FF920F931F93CF93DF93AC
:103BF0008C01E091D901F091DA01838181FF1FC02E
:103C0000C0E0D0E00AC0DB011896ED91FC91199755
:103C10000995009711F0CFEFDFEFF80181918F0147
:103C20006091D9017091DA01882369F7DB01189658
:103C3000ED91FC9119978AE00995009711F0CFEF6B
:103C4000DFEFCE01CDB7DEB7E6E00C942823AEE07F
:103C5000B0E0EDE2FEE10C940E230D891E8986E0B2
:103C60008C831A8309838FEF9FE79E838D839E0148
:103C7000275E3F4FCE0101966F89788DA9010E9482
:103C80004A1EEF81F885E00FF11F10822E96E4E0C6
:103C90000C942A23ACE0B0E0E0E5FEE10C940023B4
:103CA0006C011B018A01FC0117821682838181FF4E
:103CB000D1C12E010894411C511CF6019381F101E0
:103CC00093FD859193FF81911F01882309F4BEC163
:103CD000853239F493FD859193FF81911F018532DF
:103CE00029F490E0B6010E947622E7CFEE24FF246B
:103CF00020E02032B0F48B3269F08C3228F480322C
:103D000051F0833271F40BC08D3239F0803349F4B5
:103D100021602CC02260246029C0286027C0206157
:103D200025C027FD2CC0382F30533A3098F426FF99
:103D300008C08E2D880FE82EEE0CEE0CE80EE30E78
:103D400015C08F2D880FF82EFF0CFF0CF80EF30E08
:103D500020620CC08E3221F426FD78C1206406C09A
:103D60008C3611F4206802C0883649F4F10193FDC5
:103D7000859193FF81911F01882309F0BACF982F75
:103D80009554933018F09052933028F40C5F1F4FE5
:103D9000FFE3F9830DC0833631F0833771F083354B
:103DA00009F060C022C0F801808189830E5F1F4F37
:103DB000420171E0A72EB12C16C062E0662E712C74
:103DC000600E711EF8018080918026FF03C06E2D69
:103DD00070E002C06FEF7FEFC4012C870E946B225E
:103DE0005C0183012C852F7717C052E0652E712C62
:103DF000600E711EF8018080918026FF03C06E2D39
:103E000070E002C06FEF7FEFC4012C870E94602238
:103E10005C012C852068830123FD20C008C080E25E
:103E200090E0B6012C870E947622FA942C858F2D83
:103E300090E0A816B90698F311C0F40127FD85910A
:103E400027FF81914F0190E0B6012C870E947622D6
:103E50002C85F110FA940894A108B108A114B104BA
:103E600061F7F1C0843611F0893649F527FF08C0A3
:103E7000F80160817181828193810C5F1F4F09C0BD
:103E8000F80160817181882777FD8095982F0E5FFA
:103E90001F4F4FE6B42EB22297FF09C09095809530
:103EA000709561957F4F8F4F9F4FF0E8BF2AA20119
:103EB0002AE030E00E94A222782E741845C085378F
:103EC00031F43FEEB32EB2222AE030E025C099EF64
:103ED000B92EB2228F36C1F0803720F4883509F030
:103EE000B5C00DC0803721F0883709F0AFC002C0DF
:103EF00020E1B22AB4FE0BC084E0B82A08C0B4FEA8
:103F000009C0E6E0BE2A06C028E030E005C020E196
:103F100030E002C020E132E0B7FE08C0F801608165
:103F20007181828193810C5F1F4F07C0F80160810E
:103F3000718180E090E00E5F1F4FA2010E94A222DB
:103F4000782E7418FFE7BF22B6FE0BC02EEFB22208
:103F50007E1438F4B4FE07C0B2FC05C08FEEB82260
:103F600002C0A72C01C0AE2C8B2D90E0B4FE0DC07A
:103F7000FE01E70DF11D2081203319F4E9EEBE2288
:103F800009C0A394B2FE06C004C086789070009762
:103F900009F0A3948B2C9924B3FC14C0B0FE0FC07D
:103FA000AF1428F4E72CEF0CEA18AF2C08C0E72C6C
:103FB00006C080E290E0B6010E947622A394AF147E
:103FC000C0F304C0AF1410F4FA1801C0FF2484FE3B
:103FD0000FC080E390E0B6010E94762282FE1FC0EF
:103FE00081FE03C088E590E010C088E790E00DC036
:103FF000C40186789070009791F081FC02C080E245
:1040000001C08BE2B7FC8DE290E0B6010E947622FF
:1040100006C080E390E0B6010E947622EA947E1406
:10402000C0F37A94F201E70DF11D808190E0B601B2
:104030000E9476227720A9F706C080E290E0B601C0
:104040000E947622FA94FF20C1F737CEF60126812E
:10405000378102C02FEF3FEFC9012C96E2E10C94AB
:104060001C23A9E0B0E0E7E3F0E20C9408236A0126
:10407000F22E102F0C3318F4B02EB39402C0ECE3E0
:10408000BE2EAE014F5F5F4F27E00B2D0E948821AF
:10409000298130E0A901497050704130510531F05B
:1040A000E1FC06C0E0FE06C0E0E205C0EDE203C0B0
:1040B000EBE201C0E0E023FF37C0EE2311F084E023
:1040C00001C083E08F1518F4F81A8F2D01C080E02D
:1040D000E4FC0BC0982FD60120E202C02D93915032
:1040E0009923E1F7C80ED11C80E0EE2319F0D60128
:1040F000ED936D01F6013196E2FE05C09EE4D60116
:104100009C9321E404C09EE6D6019C9321E611967F
:104110002C9391833296982FDF0120E202C02D93D9
:1041200091509923E1F73DC022FF41C0EE2311F0E9
:1041300084E001C083E08F1518F4F81A8F2D01C0B8
:1041400080E0E4FC0BC0982FD60120E202C02D9342
:1041500091509923E1F7C80ED11C80E0EE2319F0AD
:10416000D601ED936D01F6013196E2FE09C099E4A6
:10417000D6019C939EE411969C93119796E407C0F8
:1041800099E6D6019C939EE611969C9396E69183C0
:104190003296982FDF0120E202C02D93915099238F
:1041A000E1F7E80FF11D10822EEF3FEFACC041E0C8
:1041B00050E0EE2311F440E050E01816190624F404
:1041C000BC016F5F7F4F02C061E070E0640F751F3C
:1041D000112329F0412F50E04F5F5F4F02C040E0B4
:1041E00050E0460F571F6F2D70E0461757071CF41D
:1041F0000F2D041B01C000E0FF24A7014071507087
:10420000E4FC0DC0E3FC0BC0602FD60170E202C0DD
:104210007D9361506623E1F7C00ED11C00E0EE23D0
:1042200019F0D601ED936D014115510559F4402F58
:10423000F60150E302C0519341504423E1F7C00E10
:10424000D11C00E0B80EFA80A9014071507024FF23
:1042500004C0BF2DB13309F4BA941B142CF4AB2D58
:10426000A93018F0A8E001C0A1E09C0197FF02C0AE
:1042700020E030E0BC016F5F7F4F621B730BFE01DB
:104280003196E60FF71F6EE2E62EBC016A1B71093C
:10429000A12FB0E0AA24BB24AA1ABB0A1FEF2F3F0C
:1042A000310719F4D601ED926D01821793072CF0B6
:1042B0006217730714F4108101C010E321503040DD
:1042C00031962A153B0524F0D6011D936D01E6CFEA
:1042D0002817390749F4BF2DB63328F4B53321F434
:1042E0004115510509F411E3F6011193802FDF0107
:1042F00090E202C09D9381508823E1F7E00FF11D09
:10430000108220E030E0C9012996EAE00C942423D1
:10431000283008F027E03327DA01990F311D87FD97
:10432000916000966105710539F432602E5F3D930E
:1043300030E32A95E1F708959F3F30F0803871050A
:10434000610509F03C5F3C5F3D93913008F0806867
:10435000911DDF93CF931F930F93FF92EF92192F2D
:10436000987F9695E92F96959695E90FFF27E05847
:10437000FF4E99273327EE24FF24A701E70105907C
:104380000894079428F4360FE71EF81E491F511DA4
:10439000660F771F881F991F0694A1F70590079451
:1043A00028F4E70EF81E491F561FC11D770F881FFE
:1043B000991F661F0694A1F70590079428F4F80E3C
:1043C000491F561FC71FD11D880F991F661F771FD2
:1043D0000694A1F70590079420F4490F561FC71FB4
:1043E000D81F990F661F771F881F0694A9F784911D
:1043F0001095177041F0D695C79557954795F79446
:10440000E7941A95C1F7E6E2F0E1689415901591EA
:1044100035916591959105907FE27395E118F10AC8
:10442000430B560BC90BD009C0F7E10CF11E431F1B
:10443000561FC91FD01D7EF4703311F48A95E6CF44
:10444000E894015030F0080F0AF40027021708F42E
:10445000202F2395022F7A3328F079E37D932A9534
:10446000E9F710C07D932A9589F60694979567958C
:10447000379517951794E118F10A430B560BC90BA2
:10448000D00998F023957E9173957A3308F070E304
:104490007C932013B8F77E9170617D9330F0839503
:1044A00071E37D9370E32A95E1F71124EF90FF907B
:1044B0000F911F91CF91DF91992787FD90950895D6
:1044C000FC010590615070400110D8F780959095DF
:1044D0008E0F9F1F0895FC016150704001900110E4
:1044E000D8F7809590958E0F9F1F08950F931F9377
:1044F000CF93DF938C01EB018B8181FF1BC082FF87
:104500000DC02E813F818C819D812817390764F46D
:10451000E881F9810193F983E88306C0E885F9858C
:10452000802F0995009731F48E819F8101969F839A
:104530008E8302C00FEF1FEFC801DF91CF911F9153
:104540000F910895FA01AA27283051F1203181F105
:10455000E8946F936E7F6E5F7F4F8F4F9F4FAF4F8B
:10456000B1E03ED0B4E03CD0670F781F891F9A1F9E
:10457000A11D680F791F8A1F911DA11D6A0F711D52
:10458000811D911DA11D20D009F468943F912AE05E
:10459000269F11243019305D3193DEF6CF01089546
:1045A000462F4770405D4193B3E00FD0C9F7F6CF77
:1045B000462F4F70405D4A3318F0495D31FD40523F
:1045C000419302D0A9F7EACFB4E0A69597958795D5
:1045D00077956795BA95C9F70097610571050895B4
:1045E0009B01AC010A2E0694579547953795279560
:1045F000BA95C9F7620F731F841F951FA01D0895F8
:104600002F923F924F925F926F927F928F929F92E2
:10461000AF92BF92CF92DF92EF92FF920F931F93D0
:10462000CF93DF93CDB7DEB7CA1BDB0B0FB6F89481
:10463000DEBF0FBECDBF09942A88398848885F84C1
:104640006E847D848C849B84AA84B984C884DF8032
:10465000EE80FD800C811B81AA81B981CE0FD11D16
:104660000FB6F894DEBF0FBECDBFED010895F894EC
:02467000FFCF7A
:104672006932635F726561640D0061636B696E67C5
:104682000D00493263207374617475733A20256991
:104692000D0A00303000253032692D253032692D67
:1046A20025303269005374617274210D00FE0F00CF
:1046B2000090411210000050410000000300000071
:0846C20000271B391B0000005A
:00000001FF
